:1000000000000420750300005D0300005F03000092
:1000100061030000630300006503000000000000AE
:100020000000000000000000000000006703000066
:1000300069030000000000006B0300006D03000076
:100040006F0300006F030000410800006F03000011
:100050006F0300006F0300006F0300006F030000D8
:100060006F0300006F0300006F0300006F030000C8
:100070006F0300006F0300006F0300006F030000B8
:100080006F0300006F0300006F0300006F030000A8
:100090006F0300006F0300006F0300006F03000098
:1000A0006F0300006F0300006F0300006F03000088
:1000B0006F0300006F03000000000000000000005C
:1000C0006F0300006F0300006F0300006F03000068
:1000D0006F0300006F0300006F0300006F03000058
:1000E0006F0300006F0300006F03000000000000BA
:1000F000000000006F030000000000006F0300001C
:1001000000000000000000000000000000000000EF
:1001100000000000000000000000000000000000DF
:1001200000000000000000000000000000000000CF
:1001300000000000000000000000000000000000BF
:1001400000000000000000000000000000000000AF
:10015000000000000000000000000000000000009F
:10016000000000000000000000000000000000008F
:10017000000000000000000000000000000000007F
:10018000000000000000000000000000000000006F
:10019000000000000000000000000000000000005F
:1001A000000000000000000000000000000000004F
:1001B000000000000000000000000000000000003F
:1001C000000000000000000000000000000000002F
:1001D000000000000000000000000000000000001F
:1001E000000000000000000000000000000000000F
:1001F00000000000000000000000000000000000FF
:10020000354936480A1A02D0072291438D463449AF
:1002100034480A1A06D00722914381F30988022242
:1002200082F3148830483149314A00F044F83148AB
:100230003149324A00F03FF831483249324A00F041
:100240003AF832483249334A00F035F832483349F7
:10025000334A00F030F833483349344A00F02BF881
:1002600033483449344A00F026F8344834490022EF
:1002700000F02CF833483449002200F027F83348C6
:100280003349091A082902DB002202604160314A21
:1002900090471F481F49884205D00268043003B4C4
:1002A000904703BCF7E700208646EC46002000217B
:1002B000294A9047FEE7884207D0521A05D00378B2
:1002C00001300B700131013AF9D17047884202D0F8
:1002D00002700130FAE770470000042000E00320BC
:1002E0000000042000000420E01C000000000020AA
:1002F00018000020D0030000D0030000501C0000B4
:10030000E01C00000000002000000020501C000045
:10031000501C0000501C0000501C0000501C00002D
:10032000501C0000501C0000501C0000DF1C00008E
:10033000F81C000018000020180000201800002001
:10034000B8020020B8020020B8020020B802002045
:10035000B82200209D0300002D120000FEE7FEE7FA
:10036000FEE7FEE7FEE7FEE7FEE7FEE7FEE7FEE765
:1003700000F002B8FFF7FCBF0F484FF007018843B9
:1003800085460E4880470E48016841F470010160BF
:10039000BFF34F8FBFF36F8FFFF732BF09480A4992
:1003A0000A4A884207D0521A05D0037801300B70F0
:1003B0000131013AF9D170470000042019130000FF
:1003C00088ED00E0501C000000000020000000202C
:1003D000074B1B5C1F2B86BF064903F01F034FF022
:1003E000A041012202FA03F3C1F80835704700BFAB
:1003F000501C00000003005008B50020FFF7E8FF84
:100400000120FFF7E5FF0220FFF7E2FFBDE808400B
:100410000320FFF7DDBFC20710B504460CD54FF02F
:10042000A0430322C3F83427C3F83827C3F83C2776
:10043000C3F84027FFF7E0FFA3070AD54FF0A0431A
:100440000C22C3F82C27C3F83027C3F86027C3F861
:10045000642710BD1FB50021039001AA44F20100DA
:10046000CDE9011100F004F805B05DF804FB0000CF
:1004700072B6094B1B68DB0700D500BEBFF34F8F78
:100480000649074BCA6802F4E0621343CB60BFF32E
:100490004F8F00BFFDE700BFF0ED00E000ED00E092
:1004A0000400FA0549B152B1531E1A4007D18260C7
:1004B00001608380C260104670470E20704709209B
:1004C000704710B58468C2688388121B934208D3B2
:1004D000C26813400268D154C3680133C36000206E
:1004E00010BD0420FCE78268C3689A420AD0826883
:1004F000838813400268D35C0B7083680133836088
:1005000000207047052070470648074A03780749CE
:10051000D35C012213B1043000F012BE0C3000F0A5
:10052000C1BB00BF00000020580000204000002098
:100530000648074A03780749D35C012213B1043007
:1005400000F0AABD0C3000F05BBB00BF0000002033
:10055000580000204100002037B50578012D0BD050
:10056000022D2ED065B91E491E48FFF7BCFF00289A
:1005700032D1FFF7DDFF03E0037A1BB9FFF7C4FFB9
:1005800003B030BD4368184C19782046FFF799FF37
:1005900080B18DF800500190144B68461B68984755
:1005A000A168E368A2885B1A9A42E7D2104B012245
:1005B0001A70E5E7A268E3689A42F1D08DF800006E
:1005C000EAE7C3688DF800500193FFF79DFF074BE2
:1005D00068461B689847D3E703238DF80030F6E799
:1005E00041000020300000201C00002018000020E6
:1005F0002C000020F0B51F46234B89B004461A603A
:100600000D4600293DD08A8820480968FFF74AFF37
:10061000002834D1AA89A9681D48FFF743FF0028A4
:100620002DD11C4E0FCE6D460FC596E80F0085E804
:100630000F0063690693237C174A18488DF81C70D5
:10064000003B18BF01238DF81430637C002B14BFCE
:100650000E2300238DF81530E3680293A3680393FB
:100660002368019369466368009300F0ABF830B9E2
:100670000B4B18702368013301D0FFF745FF09B019
:10068000F0BD0720FBE700BF180000201C00002081
:1006900030000020541C000059050000000000201C
:1006A0002C00002070B5084D014608482E78FFF751
:1006B0001AFF044636B100232B70FFF725FF08B15F
:1006C000FFF7C8FE204670BD2C0000201C00002053
:1006D00010B501460E48FFF7F4FE0446A8B90D48D0
:1006E0000D4A0378D35C63B1043000F01DFD60B99E
:1006F0000A490748FFF7F7FE38B9BDE81040FFF791
:1007000017BF0C3000F0C2FAF1E7204610BD00BF61
:100710003000002000000020580000204100002090
:1007200072B6024A13680133136070474400002018
:10073000034A1368013B136003B962B6704700BFF8
:1007400044000020FFF7ECBFFFF7F2BF10B50446EE
:10075000C0B2FFF7BDFF204610BD00001FB50378F3
:100760008DF800304368019383688DF80830C368C2
:10077000054A0393054B684653F8213052F821107F
:10078000984705B05DF804FB4800002050000020A9
:100790001FB503788DF800304368019383688DF8A6
:1007A0000830C368054A0393054B684653F8213067
:1007B00052F82110984705B05DF804FB480000206E
:1007C00050000020F0B5194B90F800C0DFF86CE045
:1007D00043F82C20164B16460A6943F82C204B7F11
:1007E0000EF80C300C4607460FCC89B06D460FC58D
:1007F00094E80F0085E80F001EF80C30CDF810C00B
:100800004BB1002E0B4A694608BF3246381D00F036
:1008100065FB09B0F0BD002E074A694608BF3246A5
:1008200007F10C0000F01AF9F3E700BF50000020B8
:10083000480000205D0700009107000058000020DC
:10084000014B1B68184700BF5C00002038B50B4BFC
:1008500098420C4601D0002038BD0020FFF772FFFF
:10086000074B1D7915B901221C601A710020FFF792
:100870006BFF002DEFD01120EEE700BF00200040FD
:100880005C0000200023435082B043580193019B39
:1008900002B070470A4610B54FF48E71FFF7F2FFB1
:1008A000136A9168C95C136A01331362C0F81C159E
:1008B00010BD024608B500684FF49271FFF7E2FFE1
:1008C0004FF484711068FFF7DDFF136801221A608E
:1008D00008BD8B690A4610B54FF4847123B9FFF740
:1008E000D1FFD0F8183510BDFFF7CCFF536AD1689F
:1008F000D0F81805C854536A01335362F3E7000077
:100900001FB501238DF80030044BCDE90110D3E968
:1009100000126846904705B05DF804FB64000020B3
:1009200030B54C48D0F8043313F4007F85B0054649
:100930004DD0D0F82431002B49D04FF49271FFF7FD
:10094000A1FF4FF40173C0F80833434B93F82920FB
:100950000AB9012242603F4902228DF80020D1F8F5
:100960008024C1F8802403929A690292DA68019285
:100970000022C3E906226846D3E9001290473548B1
:10098000D0F81C315BB134494A690B6A9A420A4675
:100990004AD991F82830002B46D1FFF77BFF2D482C
:1009A000D0F844318BB14FF4A271FFF76BFF2A4BA3
:1009B00093F829200AB1012202609A692AB1002223
:1009C000586AD9689A61FFF79BFF05B030BDD5F82A
:1009D00004335B07D3D5D5F80831002BCFD01E4C9C
:1009E0001C482146FFF775FF636AA2699A422346B5
:1009F000C5D1E269E1684AB12369E3600023606A16
:100A0000A261E3616362FFF77BFFB8E794F82920F6
:100A10000AB901226A600F4A4FF40170C2F8080354
:100A20000022586A9A61EEE70A484FF48E71FFF788
:100A300029FF5369002BB2D05169029100239168BC
:100A40008DF80030019153616846D2E90013984750
:100A5000A5E700BF00200040640000202DE9F84316
:100A6000614B057991462C2202FB0532064692F82D
:100A70002A200C469846002A40F0B1805B49006865
:100A8000FFF7E4FE0746002840F0AB8021684A1CCF
:100A900010D01F2987BF564A01F01F030B464FF0A5
:100AA000A0420120984003F5E073C2F80805032036
:100AB00042F823006068431C0DD01F288BBF00F054
:100AC0001F0303464A4A4FF0A04203F5E0734FF07C
:100AD000000C42F823C03368A269C3F8242594F8B7
:100AE00014C0627DBCF1010F4CEA0202C3F86C2510
:100AF000C3F81405C3F80C152BD1A168481C0DD000
:100B00001F298BBF01F01F020A4639484FF0A04051
:100B100002F5E0724FF0000C40F822C0E068421C81
:100B200013D01F2887BF324A00F01F0C84464FF0B5
:100B3000A0424FF0010E0EFA0CFE0CF5E07CC2F85C
:100B400008E54FF0030E42F82CE0C3F80805C3F89F
:100B500010152C236B4308EB0302C2F804902269A2
:100B600048F80320B9F1000F21D03068247F4FF4FA
:100B70008E71FFF787FE4FF4A2713068FFF782FE97
:100B800032681C4BC2F80433110B42F30732630185
:100B9000002ADBB21EDB1848841884F800330123D6
:100BA000520901F01F0103FA01F140F822103368E5
:100BB0000422C3F800252C2303FB05830022C3E98C
:100BC000062283F829205A61012283F82A20384618
:100BD000BDE8F883094A01F00F015354E7E70827FD
:100BE000F5E71127F3E700BF6400002021090000AA
:100BF000000300508000020000E100E014ED00E07E
:100C00002DE9F047204F90F804904FF02C0808FB96
:100C1000097405466669002E34D162610068A160DE
:100C200026624FF48E7184F82860FFF72BFE286847
:100C3000012383602146FFF72DFE6368A0468BB930
:100C40002868D4F814A0236A9A4511D82A68D2F8E3
:100C50001C31002BFBD00123D3602C2303FB097331
:100C600000225A613046BDE8F08794F828303BB93D
:100C7000D0F81C31002BF8D04146FFF70BFEE2E71D
:100C80000F26EAE71126EDE7640000200379044A05
:100C90002C2101FB03235869003818BF012070473D
:100CA000640000202DE9F843394F05792C2303FB1C
:100CB000057306465C6824B103684FF40170C3F8FD
:100CC00008032C2303FB0573986950B1D8690028E9
:100CD0003ED024B133684FF40172C3F804231124C9
:100CE00033E09A61D9605862D8612C2303FB057305
:100CF00093F829301BB910B93046FFF7DAFD4FF0F1
:100D00002C0909FB05783068D8F80430002B34D161
:100D10004FF4A271C146FFF7B5FD3068D0F8243119
:100D2000D0F80821D0F84441B2B90CB9002BF4D066
:100D30002C2202FB05750022AA6123BB2CBB95F86F
:100D4000291033680122B1B11A602046BDE8F8834A
:100D50001961DA610120C8E7002BE9D1002CE7D145
:100D60004946FFF7B6FDD8F82430D8F818209A4243
:100D7000D3D82346DCE75A60E7E74FF40173C0F8A5
:100D800004330024E1E70324DFE70F24DDE700BF9D
:100D9000640000200023435082B043580193019B1C
:100DA00002B070471FB501238DF80030044BCDE928
:100DB0000110D3E900126846904705B05DF804FBC6
:100DC000900000207FB5434AD2F82461002E60D005
:100DD00010464FF49271FFF7DDFF02238DF80030CB
:100DE000D2F88034C2F880340393D2F83C350293B1
:100DF000394BDA6801920022C3E906226846D3E93A
:100E0000001290473348D0F8443173B14FF4A271C7
:100E1000FFF7C0FF304B9A693AB10022C3E90622BE
:100E2000D968D0F83C05FFF7BDFF2A48D0F820313B
:100E3000ABB14FF49071FFF7ADFF0123C360264BB8
:100E40005A6962B1D0F84C150291002299688DF868
:100E5000002001915A616846D3E9001290471D486D
:100E6000D0F858319BB14FF4AC71FFF793FF1A4B98
:100E70005A6962B1D0F84C150291002299688DF838
:100E8000002001915A616846D3E90012904704B0EE
:100E900070BDD2F81031002BB4D04FF488711046D9
:100EA000FFF778FF0C4BD2F83C0599698842A9D12D
:100EB000DC69D96864B1D2F8005225F02005C2F887
:100EC00000521A699C61DA60DE61FFF76BFF99E7F7
:100ED0009C61FAE700200040900000202DE9F843D3
:100EE000674B06799146242202FB0632044692F8AB
:100EF00020200D469846002A40F0BE8061490068D7
:100F0000FFF7A4FC0746002840F0B8802868421C80
:100F100010D01F2887BF5C4A00F01F0303464FF024
:100F2000A0420121994003F5E073C2F8081503219E
:100F300042F8231069684B1C0DD01F298BBF01F0AC
:100F40001F030B46504A4FF0A04203F5E0734FF0E9
:100F5000000C42F823C02368AA69C3F8242595F839
:100F600014C06A7DBCF1010F4CEA0202C3F86C2583
:100F7000C3F80C05C3F814152BD1A968481C0DD073
:100F80001F298BBF01F01F020A463F484FF0A040C7
:100F900002F5E0724FF0000C40F822C0E868421CF5
:100FA00013D01F2887BF384A00F01F0C84464FF02B
:100FB000A0424FF0010E0EFA0CFE0CF5E07CC2F8D8
:100FC00008E54FF0030E42F82CE0C3F80805C3F81B
:100FD00010152423734308EB0302C2F804902A6916
:100FE00048F80320B9F1000F30D020682A7F4FF471
:100FF0008871FFF7CFFE20684FF49071FFF7CAFEAB
:1010000020684FF49271FFF7C5FE20684FF4A2717B
:10101000FFF7C0FE4FF4AC712068FFF7BBFE2368FA
:101020001A49C3F80413190B43F307335201002B79
:10103000D2B21CDB1648C51885F8002301225B09D3
:1010400001F01F0102FA01F140F823102368082281
:10105000C3F80025242303FB06830022C3E90622EC
:101060005A61012283F820203846BDE8F883094BF5
:1010700001F00F015A54E9E70827F5E71127F3E7D4
:1010800090000020C50D0000000300501003420036
:1010900000E100E014ED00E001F06043B3F1005F17
:1010A0002DE9F041064638D11E4B0779242505FB72
:1010B000073598466C69002C31D16A610068A960D7
:1010C0004FF49071FFF766FE4FF4AC713068FFF794
:1010D00061FE33686A69A968C3F84415C3F84825F6
:1010E00001229A606A68AAB9D3F82021D3F858413E
:1010F0001AB9002CF8D00F2407E0002CFBD10122F4
:10110000DA60D3F85821002AFBD0242303FB078799
:1011100000237B612046BDE8F0811024FAE711240A
:10112000F8E700BF900000200379044A242101FB66
:1011300003235869003818BF012070479000002031
:10114000F8B501F06043B3F1005F04460F465ED18D
:101150000379304D242101FB0351496821B1006816
:101160004FF40476C0F80863242000FB03539E6903
:1011700056B1D869002839D021B123684FF40472E0
:10118000C3F80423112030E09A61DF60DE6120683B
:101190004FF48871FFF7FEFD20684FF4A271FFF74E
:1011A000F9FD2368C3F83475C3F8382516BB01224E
:1011B0001A602179242202FB015252680ABBD3F83B
:1011C0001041D3F84421D3F82401144302D100285C
:1011D000F5D02246242303FB01550023984218BF73
:1011E00003209A42AB6118BF0F20F8BD1F61DA617E
:1011F0000126CCE7D3F8002242F02002C3F80022F7
:10120000D7E74FF40472C3F804230020EDE7102061
:10121000EBE700BF900000200378022B02D140686A
:10122000FFF718B9012BFAD07047000030B51A4DFE
:101230008BB00120FFF7EFF80FCD04AC0FC495E899
:101240000300164B164A00934FF4807384E80300A2
:10125000CDE902230193134A0723694604A8FFF747
:10126000C9F908B1FFF7F6F80F48104C00F072F911
:101270006846FFF717FA0028FAD19DF800102046BB
:1012800000F068F99DF80030322B01D0512BEFD1DE
:10129000074800F05FF9FEE79C1C0000B400002046
:1012A000B401002019120000741C00008E1C000004
:1012B000911C00000A4B1B685A1C05BF094B0A4AC7
:1012C0000A4A10680ABF1B781068C0F30310082B85
:1012D00004D103288CBF00200120704700207047F4
:1012E00030010010E00F00F0E80F00F034010010B2
:1012F000064B1B68082B06D1054B1B68032B02D835
:10130000044AD05C70470020704700BF30010010D5
:1013100034010010B41C000008B5FFF7CBFF40B14A
:101320004FF080430022C3F80C21C3F81021C3F80A
:101330003825FFF7BFFF002846D04FF080525E4BA4
:10134000D2F80414C3F82015D2F80814C3F82415F1
:10135000D2F80C14C3F82815D2F81014C3F82C15C1
:10136000D2F81414C3F83015D2F81814C3F8341591
:10137000D2F81C14C3F84015D2F82014C3F8441551
:10138000D2F82414C3F84815D2F82814C3F84C1521
:10139000D2F82C14C3F85015D2F83014C3F85415F1
:1013A000D2F83414C3F86015D2F83814C3F86415B1
:1013B000D2F83C14C3F86815D2F84014C3F86C1581
:1013C000D2F84424C3F87025FFF792FF10B13B4BCD
:1013D0003B4A1A60FFF78CFF18B13A4BFB22C3F867
:1013E0001825FFF785FF48B13749384B0A681B6855
:1013F00022F00F0203F00F0313430B60FFF778FF97
:1014000018B1334B4FF400721A60FFF753FF48B125
:101410004FF08043D3F80024D20744BF6FF001029D
:10142000C3F800242B4AD2F8883043F47003C2F882
:101430008830BFF34F8FBFF36F8F4FF01023D3F877
:101440000022002A03DBD3F80432002B2FDA224BD0
:101450000122C3F80425D3F80024002AFBD04FF062
:1014600010221221C2F80012D3F80024002AFBD067
:101470004FF010231222C3F80422174B1A46D3F858
:1014800000140029FBD00021C3F80415D2F8003461
:10149000002BFBD0BFF34F8F0E49104BCA6802F4EC
:1014A000E0621343CB60BFF34F8F00BFFDE70C4BEF
:1014B0000C4A1A6008BD00BF00C000408C560040B6
:1014C0004881030000F00040E40E00405802001084
:1014D0004096024000ED00E000E001400400FA0503
:1014E000140000200090D00338B504460846A268D6
:1014F00042B1236861685D1C8D4208BF00208B42A9
:1015000008D2D054E3682BB121686268914201D2BD
:101510002146984723680133236038BD70B54C1EBF
:1015200009D41646C5B229463046FFF7DDFF013C17
:10153000B4F1FF3FF7D170BD10F0100F08D108B51E
:1015400010F4007F14BF30202020FFF7E7FF08BD14
:10155000704700000FB410B586B008AB53F8044BC9
:101560000593002303936FF000430293084B049309
:1015700000F051F8059A214601A800F04FF8044602
:1015800000F04AF8204606B0BDE8104004B07047AD
:101590004D070000037853B159B10144034613F8D5
:1015A000012F12B18B42FAD10B46181A704703462D
:1015B000FBE70346F9E700F1010110F0030F11D03A
:1015C00010F8012B002A23D010F0030F0AD010F8D6
:1015D000012B002A1CD010F0030F03D010F8012BB0
:1015E000002A15D02DE970004FF001324FF0803302
:1015F00050F8044BA4EB020525EA04051D4000D178
:10160000F6E7A0F1040070BC10F8012B002AFBD112
:10161000A0EB010070477047704700002DE9F04FC4
:1016200089B007460392002303600C4614F8011B9F
:10163000002900F0FA82DFF814B5E9E2002507E09E
:101640005E2868D145F4805501E045F040051C4610
:10165000234613F8010B3028F2D81F2837D9A0F100
:101660002002102A33D801A151F822F04B160000B5
:10167000CF160000CF160000B1160000CF160000F4
:10168000CF160000CF160000B7160000CF160000DE
:10169000CF160000CF160000BD160000CF160000C8
:1016A000C3160000CF160000CF160000C9160000B8
:1016B00045F08005CBE745F40045C8E745F0200537
:1016C000C5E745F01005C2E745F40075BFE72A28D5
:1016D00021D1039A111D0391D2F800A0BAF1000F95
:1016E000BCBFCAF1000A45F010051878A31C2AEA0D
:1016F000EA7A2E2826D00021742847D07A2845D0AF
:101700006C2800F0A8804C2800F0AB80682800F01E
:10171000B8801C463DE0A0F13002D2B2092A88BF51
:101720004FF0000AE3D84FF0000A0AEB8A0A30387B
:1017300000EB4A0A13F8010BA0F13002D2B2092AD9
:10174000F3D9D4E718782A280AD1039A111D0391F6
:101750001168587802330029CEDB45F48075CBE759
:101760000133A0F13002D2B2092A88BF0021F4D897
:10177000002101EB8101303800EB410113F8010B2E
:10178000A0F13002D2B2092AF3D9E4E71C4614F8DA
:10179000010B002800F05582A0F12503DBB2532B8A
:1017A00062D8A0F12503532B5ED8DFE813F0760052
:1017B0005D005D005D005D005D005D005D005D0041
:1017C0005D005D005D005D005D005D005D005D0031
:1017D0005D005D005D005D005D005D005D005D0021
:1017E0005D005D005D005D005D005D005D005D0011
:1017F0005D005D005D005D005D005D005D005D0001
:101800005D005D005D005D005D005D005D005D00F0
:101810005D005D00EB005D005D005D005D005D0052
:101820005D005D005D005D005D007B0020015D00EE
:101830005D005D005D0020015D005D005D005D00FC
:1018400095000E01D1005D005D00A6005D0019014C
:101850005D005D00ED001C4614F8010B45F001052C
:1018600097E745F001051C46B44B1E68002E00F0BA
:10187000CC8103AB0193009153462A463946B047C9
:10188000C3E11878682803D05C1C45F0040580E7A4
:1018900045F008059C1C58787BE725213846FFF762
:1018A00023FEB2E1039B1A1D03921E780AF1FF3A50
:1018B0003A4651462846FFF73FFE31463846FFF785
:1018C00013FEA94619F0100F00F09F813A465146C9
:1018D0002020FFF723FE98E115F0080F06D03A68A4
:1018E000039B191D03911B681A708EE1039B1A1D3F
:1018F00003921B683A681A6087E1039B1A1D0392E2
:10190000D3F800808E4BB8F1000F08BF98464646CA
:1019100025F4007915F4807F15D04046FFF73AFE94
:101920000546AAEB050A3A4651464846FFF704FE2B
:10193000002DC7D0454416F8011B3846FFF7D4FDEB
:10194000B542F8D1BEE74046FFF735FE0546E8E769
:10195000039B1A1D03921B6815F0800F0CBF002615
:10196000232645F4807508211A46002B00F02981B2
:1019700005AB4FF0000805F4005CA64660468C46B7
:101980000146D1E045F4005515F0800F1BD043F21D
:10199000780643F25803782818BF1E4615F4807F56
:1019A00001D025F4007515F4804F32D0039B1A1D29
:1019B00003921B6815F0040F1FD01BB2002B20DA16
:1019C0005B422D262DE00026E8E715F0800F0CBFC6
:1019D0000026302615F4807FE5D025F40075E2E777
:1019E00015F4807F07D025F400750026DBE745F469
:1019F00080450026D7E70026D5E715F0080FDDD093
:101A0000DBB215F0200F60D115F0400F18BF202673
:101A100007E0039B1A1D03921B6815F0040F4FD0BB
:101A20009BB215F4807F14BF25F40075012158384E
:101A3000202800F2AE8001A252F820F069190000BF
:101A4000931B0000931B0000931B0000931B0000DE
:101A5000931B0000931B0000931B0000931B0000CE
:101A6000931B0000931B0000931B0000F71A00005B
:101A7000931B0000931B0000931B0000931B0000AE
:101A8000F71A0000931B0000931B0000931B00003B
:101A9000931B0000931B0000CF1A0000691900007F
:101AA000931B0000931B0000931B0000931B00007E
:101AB000F71A0000931B0000931B00006919000037
:101AC00015F0080FADD0DBB2ABE72B26A9E71A461D
:101AD0004FF00008002B5ED005A84FF0000803F07F
:101AE0000703303300F8013B08F10108D208134620
:101AF000002AF4D14FE018464FF00008002B4AD0DE
:101B00004FF0000805F4004E4FF02C0973468E4646
:101B100019462FE002F00F000A4C205C03F8010B7D
:101B200008F10108120906D00029F3D002F00F00D5
:101B3000054C205CF2E7744661462CE0B4020020BC
:101B4000D81C0000B81C0000C81C0000CDCCCCCCB8
:101B500008AB03EB080CABFB0032D20802EB8203AC
:101B6000A0EB430330330CF80C3C08F101080928C2
:101B70000DD910460029EBD008F00303032BE7D161
:101B800008AB434403F80C9C08F10108E0E77146F8
:101B900001E04FF00008A1EB080121EAE179AAEB8E
:101BA000090AAAEB080AFF2E0ED9AAF1020AC6F307
:101BB00007213846FFF798FCF1B23846FFF794FC4E
:101BC00004E04FF00008E6E7002E3DD13A465146CA
:101BD0002846FFF7B1FC3A4649463020FFF79EFC05
:101BE000B8F1000F0EDD0DF1140908F1FF38C844FB
:101BF00098F8001046463846FFF776FCC14508F1D4
:101C0000FF38F5D115F0100F09D114F8011B61B19F
:101C100025293FF413AD3846FFF766FCF5E73A4651
:101C200051462020FFF77AFCEFE7BB682BB13A68FA
:101C300079688A423CBF00219954386809B0BDE8F0
:101C4000F08F4FF0FF30F9E70AF1FF3AB4E700BF39
:101C50000D0E0F10FFFFFFFFFFFFFFFFFFFFFFFF56
:101C6000FFFFFFFF00000000000000000000D601A1
:101C7000060100000D0A55415254206578616D70CF
:101C80006C6520737461727465642E0D0A0025639F
:101C900000200D0A45786974210D0A000800000033
:101CA0000600000005000000070000000000000022
:101CB00000E0D701010000003031323334353637CF
:101CC00038396162636465663031323334353637B2
:0F1CD0003839414243444546286E756C6C2900F3
:101CE0000000000000200040000000000020004034
:081CF000000000000090D00389
:040000030000037581
:00000001FF
