:020000040800F2
:10000000001B0020D5000008356200084D3E0008A6
:1000100000000000000000000000000000000000E0
:100020000000000000000000000000006B850008D8
:1000300000000000000000002366000849A6000838
:10004000E7000008E700000829730008E70000083F
:10005000E700000855120008651200087512000834
:10006000E7000008E7000008E70000084511000865
:10007000E7000008E7000008E7000008E7000008C4
:10008000E7000008E7000008E700000800000000A3
:10009000E7000008E7000008E7000008E7000008A4
:1000A000E7000008E7000008E7000008E700000894
:1000B000B3AF0008E700000800000000E7000008F8
:1000C0000348854600F07EFC0048004735C2000822
:1000D000001B00200448804704480047FEE7FEE775
:1000E000FEE7FEE7FEE7FEE7E9A70008C10000081B
:1000F00030B50B46014600202022012409E00D46C0
:10010000D5409D4205D31D469540491B2546954047
:1001100040191546521E002DF1DC30BD70B500248B
:100120002546002801DA01244042002901DA012590
:100130004942FFF7DDFFAC4200D04042002C00D026
:10014000494270BDF0B51FB40646002082B0054696
:100150004024019100901BE0019922460F46304651
:1001600000F0FAFA049A059B801A994110D31046C0
:100170001946224600F0E0FA361A8F4101972246CE
:1001800001200021009F00F0D7FA38184D4100905F
:100190002046641E0028DFDC019B00982946324679
:1001A00007B0F0BD03460B439B0703D009E008C925
:1001B000121F08C0042AFAD203E00B780370401C17
:1001C000491C521EF9D27047D2B201E00270401CA5
:1001D000491EFBD270470022F6E710B513460A46C7
:1001E00004461946FFF7F0FF204610BD421C017877
:1001F000401C0029FBD1801A70470321001D401EBE
:10020000037812021A43491EF9D510467047F8B513
:1002100002464A40D40F42004B0052085B089A4203
:1002200002D20246084611464A0023D0C30D4A00B6
:10023000DDB2120EAD1A202D35DA49020126490A27
:10024000F6058A19002C00D0524220214F1B11467E
:10025000B9402A411018C20D9A4221D0002C17D063
:10026000012D08DCDA05801AD20F8019D207DBB223
:1002700000F09EFAF8BDDA05801A012340001B0643
:10028000C01880185A428018CA0F1043490007E06E
:100290004908C2071143DA05801A801940088018FE
:1002A00000F07EFAF8BD61000122511A001BF7E749
:1002B0000122D2075140AAE70122D2075040A6E707
:1002C000F0B507460846584087B0C00F0490480074
:1002D0000E46590040084908BC1A884105D23846E4
:1002E00031461E4617460B4602465800400810434A
:1002F0004CD0300D039040055900400D490D05903C
:10030000401A0290402872DA18030121000B0905F7
:100310000843019004980092002805D001995242A8
:100320000020884100920190029840210A1A019908
:10033000009800F001FA05460C466B4607CB00F02A
:100340001CFAC0197141039A0E0D0023D7175640AD
:100350001A467A40164344D0049A002A2DD0029AB5
:10036000012A039A15DC1205C01A914101263605AF
:10037000001C7141D20F059ED20700930192029694
:100380002A46234600F05AFA07B0F0BD38463146F7
:10039000FAE71605224A0F46B218C01AB7410121E2
:1003A0000905001C4F4100187F411146181879417A
:1003B000E20F10436D19644113E0E2076D08154325
:1003C0006408C2071443039A01261205C01A91411A
:1003D0003605001C7141CE07400830434908C0185B
:1003E00051412A46234600F01CFACDE7FFE7049866
:1003F00001224000C117121A00238B410498314694
:10040000C417381AA141EEE730B40124E407634071
:1004100030BC55E730B40124E407614030BC4FE7FD
:100420000000E0FFF0B51FB488B00B9909980024D4
:1004300048400999C00F490049080991C0070B9924
:100440000090490049080B9109990898A64608436D
:100450001CD00B990A98084318D009980124400031
:10046000420D4800410D099824050003000B20436C
:1004700009900B980003000B20430B9050181C4967
:100480004018002201901446104605E00020014665
:100490000DB0F0BD032801DA034600E003239C46BB
:1004A000C11A0AAE0AE05F0008ADED5B4F00F75BD2
:1004B0007D430027AA187C41491C5B1E6145F2DD83
:1004C000410004AB5A522104120C0A43240C401C74
:1004D0000828DFDB01980290009970460191009096
:1004E000059B049A0799069800F0A8F9D0E7000048
:1004F0000DFCFFFFF0B50C465C4085B0E40FE4074F
:1005000003944C00002664085900944649080246AA
:100510000296224321D062460A431ED06200570D44
:100520004A000E032303550D012402462C492405DD
:10053000781B1B0B360B4018234326436146009063
:100540001C46501AB44103D30098401C009002E0AE
:10055000921800985B41002803DA0020014605B09C
:10056000F0BD0020012109050746864611E06446DA
:100570001D46141BB54106D36546521BB341744654
:1005800007430C43A646CD07400849082843921864
:100590005B4105460D43EAD11046184313D060462F
:1005A000194650407140084306D06046101AB341C6
:1005B00006D20122002306E000220123DB0702E02D
:1005C0000122D2435310009874460105381C614142
:1005D000029C039D0019694100F023F9BFE7000068
:1005E000FD03000070B54B005B0803430BD04B00CC
:1005F0005C0D002633466542B341D417AD1AA341C2
:1006000002DB0020014670BD12053018514170BD5B
:1006100010B500229623114600F0CAF810BD000064
:100620000EB5C217C10F5040CA0740180021054B34
:100630000293019200910A460B4600F0FFF803B0C6
:1006400000BD0000330400000EB5054902910021F1
:1006500000910A460B46019100F0F0F803B000BD8E
:100660003304000070B5CD0F4A0009030123090BC4
:100670001B0519430B4BED070024520D9A4201DA7A
:10068000002070BD074B34339A4203DC9A1A00F005
:1006900063F802E00449511888402C43F1D04042ED
:1006A00070BD0000FF030000CDFBFFFF4A000903FF
:1006B0000123090B1B051943094B10B5520D9A4232
:1006C00001DA002010BD064B34339A4203DC9A1A3B
:1006D00000F042F810BD03495118884010BD0000D9
:1006E000FF030000CDFBFFFFC20FD2074000400810
:1006F0000BD0C10D0723DB01C91840020905400AD0
:100700001143C2084007114370470020014670475B
:1007100010B5002904DB0124E40740428C41214646
:10072000002B04DB1C460123DB075242A341994204
:1007300000D1904210BD000010B5202A04DB014614
:10074000203A9140002010BD914020239C1A03467E
:10075000E3401943904010BD10B5202A04DB084641
:10076000203AD040002110BD0B46D340D040202479
:10077000A21A91400843194610BD10B5202A06DB85
:10078000CB170846203A1041C1170B4306E00B4631
:100790001341D0402024A21A91400843194610BDAD
:1007A000002904DA401C490001D14008400070478C
:1007B00070B40024050C05D11024000402D10029D6
:1007C00021D01124050E01D100020834050F01D1FA
:1007D0000001241D850F01D18000A41C002801DB2D
:1007E0004000641C002908D020252E1B0D46F54032
:1007F000A14000D001212943084301061B1B000A28
:10080000DB1D02D5002070BC7047DB05181880186E
:100810000029F8DA401C4900F5D170BC40084000BE
:10082000704710B5002B08DA0024401C6141921873
:100830005B411A4301D14008400010BDF0B51FB420
:1008400082B005460C0003D008460AF057FC02E0CF
:100850000AF054FC20300246009021462846FFF75B
:100860006BFF049B059A04460F4618431143084347
:1008700014D0184610431BD0009840210A1A18467D
:100880000599FFF769FF05460E46009A05990498F9
:10089000FFF752FF084305D0012004E02046394607
:1008A00007B0F0BD0020C11705430E432C4337436A
:1008B00000990E986305401A7905E40A00220C435A
:1008C000FD0A0A3002D500200146E9E701051019AA
:1008D00069410C9C0D9D00196941FFF7A2FFDFE7FC
:1008E000F8B50546480040080C46284304D060008F
:1008F000184A400D904201DD2846F8BD15493539AA
:10090000884210DC88420BDB290D200308432903B1
:10091000014305D0E00F1049C00741180020F8BD81
:1009200000200146F8BD161A4020821B28462146A9
:10093000FFF702FF07460091284621463246FFF79F
:100940000BFF3A46009BFFF76CFF3246FFF7F4FEC1
:10095000F8BD0000330400000000F03F4A00090326
:100960000123090B1B0519430A4B10B5520D9A427E
:1009700002DA0020014610BD064B34339A4203DCF4
:100980009A1AFFF7E9FE10BD034BD218FFF7D4FE09
:1009900010BD0000FF030000CDFBFFFF10B50029D4
:1009A00004DB0124E40740428C412146002B04DB98
:1009B0001C460123DB075242A3418B4200D18242F5
:1009C00010BD0000064C0125064E05E0E36807CC8B
:1009D0002B430C3C98471034B442F7D3FFF774FB19
:1009E00000CF000820CF000870B58C180578401C97
:1009F0006B075B0F01D10378401C2A1106D10278E6
:100A0000401C03E006780E70401C491C5B1EF9D1A7
:100A10002B0705D40023521E0DD40B70491CFAE796
:100A20000378401CCB1A921C03E01D780D70491C02
:100A30005B1C521EF9D5A142D8D3002070BD70B501
:100A4000044600688168490720D581681026490757
:100A5000002905DA8168890702D481683143816001
:100A600001F0D8F905460DE001F0D4F9401B0A2841
:100A700008D9606D30436065A06D01210843A06511
:100A8000084670BD206880684007EDD4002070BD26
:100A900038B50446064805490068FFF729FB60435E
:100AA00000E0401E00900028FBD138BD40420F00FE
:100AB0004C000020F8B50446006881688907890F5A
:100AC000012925D10168C90722D08168052211407A
:100AD0001025012601290FD181680222114381606E
:100AE00021680320086001F095F907460CE001F049
:100AF00091F9C01B0A2807D9606D28436065A06D75
:100B00003043A0650120F8BD20688068C007EED1A1
:100B10000020F8BDF8B50446006881688907890F90
:100B2000012902D10168C90722D18168114A102622
:100B30001140012500290ED18168294381600120DF
:100B4000FFF7A6FF01F066F907460CE001F062F935
:100B5000C01B0A2807D9606D30436065A06D28432B
:100B6000A0650120F8BD20680068C043C007EDD132
:100B70000020F8BD17000080F0B589B00C4607468C
:100B80001022002168460BF0E9FB69462246084620
:100B90000AF088FF68460078872601066846002923
:100BA0000FDA00214318425C5B785200DB091A43DC
:100BB0004254491C0F29F5DBC17B024649007140B4
:100BC0000DE000214318425C5B785200DB091A43B8
:100BD0004254491C0F29F5DBC17B02464900D17301
:100BE000E21DF9325169102912D0017809061BD58E
:100BF00000214518435C6D785B00ED092B4343549D
:100C0000491C0F29F5DBC17B03464900714019E0FF
:100C100000216218FF3201325378455C491C6B4059
:100C200053701029F5DB26E000214518435C6D78F0
:100C30005B00ED092B434354491C0F29F5DBC17BB5
:100C400003464900D973E11D55698023FA316B547D
:100C5000002500E05D5453695B1C5361102BF9D3F0
:100C600000216218FF3201325378455C491C6B4009
:100C700053701029F5DB002162181046FF32E03076
:100C80000132437C5278491C534043741029F3DBF2
:100C900021461022F13104A80BF048FB22463946C8
:100CA00004A80AF0FFFE1022002168460BF056FB54
:100CB00009B0F0BD10B5044610220021F1300BF050
:100CC0004DFBFF20002115300151F02220460BF092
:100CD00045FB10BD0B4610B50246102118460AF020
:100CE0000BFF10BDF0B50446FF308BB00F4601304E
:100CF0000890E11D4069FA310091103915460791BD
:100D0000002843D010210E1AAE4200D31646009997
:100D1000B2B2401839460BF009FB089808994069AF
:100D20008019486110283AD3B54238D000216218A2
:100D30001046FF32E0300132437C5278491C534068
:100D400043741029F3DB0799224608460AF0AAFEED
:100D5000BF19AD1B1AE000202118E0314A7C3B5C32
:100D6000401C5A404A741028F6DB102202A807994A
:100D70000BF0DCFA02A9224608460AF093FE102284
:100D800002A907980BF0D2FA103D1037102DE2D8C7
:100D9000AAB2394600980BF0C9FA089845610BB021
:100DA000F0BD000038B50F49887C4A7C904218D2CB
:100DB000401C8874C00714D022206946094C087072
:100DC0008034FF2160682D310A5C69468A70F92100
:100DD0000A5C69464A70007807F0A6F96168E0315C
:100DE000487638BD400B002010B50222144901237B
:100DF00086B000281ED0012804D002281AD003286B
:100E000007D117E0CA6A1A43CA62C96AC907C90F7B
:100E1000059141000B4A8000515A00910021029136
:100E200003210391084901930858694600F02AFFFD
:100E300006B010BDCC6A1443CC62C96A1140E7E722
:100E400000100240E4C900083C00002010B5054A2B
:100E50004100515A044A80001058002200F0D4FF8B
:100E600010BD0000E4C900083C00002010B5054A90
:100E70004100515A044A80001058012200F0C4FF7A
:100E800010BD0000E4C900083C0000207047FFB519
:100E9000102504464557112087B0205606900A9821
:100EA000A168016060790027012840D102216846CD
:100EB0000173A17C8173E07C03A907F035F946B288
:100EC000B54200DC3546B54203D10A9800210160E5
:100ED0002DE0A089A168814200D30127E289801812
:100EE000884224D8082069460873E07C03A907F0EB
:100EF0001BF940B20690E189A068FFF7F9F80129D3
:100F000015D12221684601734573A17C8173E07C71
:100F100003A907F009F945B2B54208D120790027A5
:100F2000012804D169460871E07C07F007F90898A8
:100F3000057009990698087038460BB0F0BD00009E
:100F4000FEB51C4CFF226168D532525C002501269B
:100F5000002A6A462CD01670FF223E32535C6A4645
:100F60009370FF31D0708131C86C09F06DFC114F66
:100F70000190803FB8696A460290557060784007DA
:100F800006D5002003F09EFC002801D0684646707C
:100F900060686946007806F0ADFEFF226168C332E2
:100FA000B869525AFF314243101A81318864FEBD3C
:100FB0001570D1E7C00B00200449896C002903D0CB
:100FC0008968002900D0084770470000400A0020C7
:100FD000FFB587B0109E1C460F0005460CD0002EB2
:100FE0000AD017480490FFF765FE05A9204600F0D7
:100FF00045FA040003D020E002200BB0F0BD0599B3
:101000000498491CFFF766FE002D04D010222946E3
:101010000498FFF767FE3946099A0498FFF762FEC5
:1010200068460499FFF7A8FD00A80130FFF7E5F82E
:10103000694609780002084330602046DDE7000079
:101040004C120020FFB5002085B0009005460646F2
:1010500001900024770007980121C05BA14008425D
:101060002FD028190C2203905043089A1258002AB6
:1010700027D0059A002A01D1890722D00899411862
:10108000082002910856021100070117069840B285
:1010900007F023F8002814D00298407A01010E9836
:1010A0000818C068002804D00198401CC0B2019004
:1010B00007E0009A0F99039888540098401CC0B22A
:1010C0000090641CE4B2102CC5D31035761CEDB230
:1010D000F6B2102DBDD3109901980870009809B090
:1010E000F0BD000030B587B014216846FFF773F8F3
:1010F000032001900020029003204003104C009038
:10110000E06A01210843E062E06A0840059005209A
:101110006946000700F0B6FDE06A40084000E06262
:10112000606B0125AD052843606300F087FC00F08B
:1011300095FC00F08BFC606BA843606307B030BD8A
:101140000010024010B50BF0D5FA10BD30B5446C5C
:101150001C252C400125A540046C65600468636073
:101160008368102B036803D099600068C26030BDAB
:101170009A600068C16030BDF0B585B01E46174664
:101180000546002913D0002F11D0002E0FD00020CB
:101190000090019002900390052D0AD0062D08D0F2
:1011A000072D06D0082D06D00B2005B0F0BD0A2073
:1011B000FBE7012000E002206A4610706C46032223
:1011C000601C0BF0B3F803223946201D0BF0AEF87B
:1011D00002223146E01D0BF0A9F80B482B4640686F
:1011E0000222044625786946284665782D02284360
:1011F000A578E4782D0428432406204308F020FE37
:101200000028D2D00F20D0E7EC0D002000280BD012
:10121000002909D0027B20301307002B06D0037869
:10122000002B03D000200EE003207047037A002B30
:1012300003D0120703D017207047012003E0007885
:10124000002803D003200870002070470220FAE72E
:101250007047704710B5012000F008FD022000F033
:1012600005FD10BD10B5042000F000FD082000F0C1
:10127000FDFC10BD10B5102000F0F8FC202000F09F
:10128000F5FC402000F0F2FC802000F0EFFCFF2095
:10129000013000F0EBFC0120400200F0E7FC0120EF
:1012A000800200F0E3FC0120C00200F0DFFC01201E
:1012B000000300F0DBFC0120400300F0D7FC01201C
:1012C000800300F0D3FC0120C00300F0CFFC10BD70
:1012D00001A009F0C3FBFEE74572726F725F4861BF
:1012E0006E646C65720A0D0010B50520FFF764FE90
:1012F00010BD10B50420FFF75FFE10BD10B506202D
:10130000FFF75AFE10BD10B50220FFF755FE10BDC5
:1013100010B50320FFF750FE10BD00000649800005
:1013200009580648091803D0C14203D0002070476D
:10133000012070470220704774CA0008702FFCFF1C
:1013400038B5174C15482060FF20DD30606020461E
:10135000143003F0B9FB2061002000900F4869466B
:1013600008384068007806F0D6FEA0600098E0607B
:1013700020461C3008F092FDA0612046243003F086
:101380004FF9206220462C3003F0DCF8A0622046A2
:10139000343003F03FFA2063204638BDC80B0020EC
:1013A000A40D002070B505461446084604E00178F7
:1013B000A94204D002F04CFDA042F8D1002070BD3B
:1013C0007FB50A9E089D099C002A0AD0002C08D0EF
:1013D000002E06D0030009F0A8FE051517191B07FB
:1013E00024000A2004B070BD6846807B012801D02B
:1013F00003200EE0002903D0032901D0012008E0DA
:10140000022006E0042004E0052002E0062000E0BF
:1014100007202070D289C0B23346294603F00CFB66
:10142000E0E70520DEE7000010B5094A0021CB0007
:10143000D458844207D89B189B68834203D9C800BC
:101440008018007910BD491CC9B21529EFD3FEE7F9
:10145000BCC8000810B5084B002294001C5D8442F3
:1014600004D19000C0180860002010BD521CD2B2F8
:10147000052AF2D30C2010BD1001002030B5002247
:101480000C4B1124640115015519ED182D192D7BF4
:10149000854208D1100110188B22C01892008018C4
:1014A0000860002030BD521CD2B2182AEBD30320B2
:1014B00030BD00003811002000B5002909D0144AC1
:1014C0000300526809F031FE0821070C1217191D9C
:1014D0001F210A2000BD106908601046103003E08B
:1014E0005069086010461430106308E09069086085
:1014F00010461830F8E7D06900E0106A0860002054
:1015000000BD506AFAE7906AF8E7052000BD0000C8
:10151000EC0D002038B50B496B464A681146FF3187
:1015200021310C7B9C7058700D201870C87F0128E9
:1015300001D10E2018701078194606F0F5FDC0B2E2
:1015400038BD0000C00B0020884201D1C8B201E0C4
:10155000401EC0B240B27047F8B50546044640355B
:10156000287C0026012808D0012028742068816882
:101570008907890F01290ED101E00220F8BD016819
:10158000C90708D0606D202108436065012600204E
:1015900028743046F8BD616DFF220132914302226A
:1015A00011436165C1688907890F0091C168890885
:1015B0008900C1602068816892071143816000F052
:1015C00029FC07460EE000F025FCC01B0A2809D9BB
:1015D000606D022188431021084360650020287453
:1015E0000120F8BD206880680028ECDB2068C16815
:1015F000009A1143C160606D80088000401C6065E6
:10160000C5E70000F8B506460D464036317C012995
:101610000DD00121317401688A68520709D5416DE6
:10162000202211434165002030740120F8BD0220C2
:10163000F8BD174B6A68D80547109A42154C8A6A5C
:101640002B6812D05B035B0B1A438A62296849033B
:1016500005D5A1680143A1600A20FFF719FA28689F
:10166000800312D5A06838430EE05B035B0B9A43FE
:101670008A622968490302D5A1688143A16028686C
:10168000800302D5A068B843A06000203074F8BD84
:10169000011000000027014070B5040043D0606DC8
:1016A0000221084360652046FFF7C9F90026054678
:1016B00000283AD0012D32D0206841681F4A1140DD
:1016C00041602168D04308602068816801221207C8
:1016D000914381602068C168194A1140C160206847
:1016E0000169184A1140016120684169C908C900AF
:1016F00041612068016A144A11400162206880300B
:10170000416BC909C901416320688030416BC90937
:10171000C9014163204600F001F9A66566654034C1
:101720002674284670BD012070BD2046FFF7C2F91F
:1017300005460128F3D001206065BDE760F7FFFF93
:1017400000023E8302FCFF3F00F000F00068006CE6
:101750007047000070B5040006D0606D2646002575
:101760004036002802D006E0012070BDA565357422
:10177000204600F0D4F8606DC00603D42168886864
:10178000400705D5606D1021084360653574EBE7AF
:10179000606DFF2201329043022210436065886829
:1017A0008207920F5B48012A02D10A68D2072BD127
:1017B000032362689B079A4205D05B429A4202D09B
:1017C0005B009A4209D10A69920092080A61216875
:1017D0000A6963681A430A610CE00A699200920878
:1017E0000A6181680F229204914381608168626876
:1017F000114381602168CA6818239A43CA6021682E
:10180000CA68A3681A43CA608168012252069143DC
:1018100081608168A28E52061143816020688168D0
:10182000C90004D481680122120711438160206835
:10183000C168394A1140C1602069E168022825D099
:1018400000200143204620300278037B52035B00D6
:101850001A431143226B1143A26992031143E269B7
:10186000D20311432268D3681943D160616A0A46E2
:10187000FF3AC23A05D0A26A11432268D3681943DD
:10188000D16042780121012A02D00BE00420D8E780
:101890000078002823D0606D202210436065A06D81
:1018A0000843A065E06B012820681FD00169C907C3
:1018B00003D0016949084900016120684169C908EC
:1018C000C900416120684169A26B11434161A5656E
:1018D000606D80088000401C6065002070BD20683D
:1018E000C26801231B041A43C260DBE70269FF23BD
:1018F0009B009A43026120680269236CA66C1A431C
:10190000636C33431A430261206802690A4302612F
:10191000D3E70000002701401902FEFF704770471F
:10192000F8B504464069254640350E4608280BD0D8
:101930002068C068C00709D0606D20210843606539
:10194000002028740120F8BD082700E00C2700F0D3
:1019500061FA009011E0701C0FD0002E05D000F04D
:1019600059FA0099401AB04207D9606D0421084322
:101970006065002028740320F8BD206800683842A4
:10198000E9D0606D01214902084360652068C168A3
:1019900009058A0F0C21002A1BD12022125D002A82
:1019A00017D10268120714D5826853070122002B51
:1019B00008DB43688B434360606D13029843104318
:1019C000606506E0606D202318436065A06D1043DC
:1019D000A065A069002801D1206801600020F8BD41
:1019E00070B50446216800208968490721D425463E
:1019F0004035297C01291CD001212974E169012984
:101A000004D02046FFF786F8002811D1616D0A4AFC
:101A10001140FF220132114361650021A165297443
:101A200022681C21116021688A6804231A438A6095
:101A300070BD022070BD0000FEF1FFFF024841684A
:101A40004908490041607047005801400248416818
:101A500004229143416070470058014002484168A8
:101A600002229143416070470058014070B5002444
:101A7000014620314A79022A03D00421C16301249E
:101A800018E0026813680E25AB4313600268136800
:101A90005B085B001360436C1C2213400122154657
:101AA0009D40036C5D604A7100220A71816B0029C0
:101AB00000D08847204670BDF0B4016C0D68016805
:101AC0000C68466C1C2304221E401746B7402F4268
:101AD0000ED067070CD50C68A40602D40C6894439A
:101AE0000C60416C19408A40016C4A60016B1AE03D
:101AF0000227B74002462F402032002F17D0A707F9
:101B000015D50C68A40605D40C680A25AC430C60F6
:101B100001215171446C02211C40036CA1405960A9
:101B200000211171C16A002918D0F0BC08470827AC
:101B3000B7402F4212D0240710D50C680E25AC43B5
:101B40000C60446C01211C400B46A340046C636094
:101B5000C163517100211171416BE4E7F0BC704722
:101B600070B504003CD01F48256814212818FEF7E2
:101B7000BFFA800060641C482064022120462030A7
:101B80000246417129681948E3680140A068666906
:101B90001843236933431843A3691843E36918437F
:101BA000236A1843084328600121A06889038842FA
:101BB00010D00D488030836A656C1C210D400F26C3
:101BC000AE40B3438362656C63680D40816AAB408D
:101BD0000B4383620020E06301215171107170BDDD
:101BE000012070BDF8FFFDBF000002400F80FFFF25
:101BF000F8B504468C46203001790025012909D02A
:101C00000126067141790027012905D007710225B7
:101C10002846F8BD0220F8BD02214171E763206823
:101C2000016849084900016061462046FFF78EFAC5
:101C3000206B00282068016801D00E2205E00422F4
:101C400091430160206801680A2211430160206805
:101C5000016831430160DBE701B5009801F02EFE19
:101C600008BD10B501F0EEFC10BD000010B5044930
:101C70004A69024202D04861FFF7F3FF10BD00003D
:101C800000040140F8B500230124A7E027469F4047
:101C90003A4070D04D68022D01D0122D14D1DD08CC
:101CA000AD002D1800952D6A5E07AC46F50E0F2687
:101CB000AE46AE406546B543AC460E697546AE408D
:101CC00065462E43009D2E624D68012D05D0022DE4
:101CD00003D0112D01D0122D16D185680326AC46F4
:101CE0005D00AE46AE406546B543AC46CE6875462F
:101CF000AE4065462E43866046680D79BE43ED06CC
:101D0000ED0F9D403543456006685F000325BD40EB
:101D1000AE46AE430D79B446AE07B60FBE4065463B
:101D20002E430660C6687546AE438D68BD40354398
:101D3000C5604D68ED0050D52B4D6E6B26436E632C
:101D40009E082A4DB6007519AC46AD689E07360F41
:101D50000F27B740BD4305273F07B84201D10027F1
:101D60001AE0234FB84201D1012715E0214FB842B4
:101D700002D1022710E030E01F4FB84201D1032703
:101D80000AE01E4FB84201D1042705E01C4FB842BB
:101D900001D1052700E00627B7402F436546AF6015
:101DA000184D2E684F689643FF0300D516432E60EA
:101DB0006E684F689643BF0300D516436E60AE68E9
:101DC0004F689643FF0200D51643AE60EE684F6839
:101DD0009643BF0200D51643EE605B1C0A681546A9
:101DE000DD4000D052E7F8BD001002400000014085
:101DF0000004005000080050000C0050001000507B
:101E0000001C005000040140002A01D0816170478D
:101E10008162704701480068704700005000002050
:101E200002480168491C0160704700005000002012
:101E300010B5084800240168022211430160032004
:101E400000F00AF8002801D0012401E000F006F8B3
:101E5000204610BD002002400020704710B5094800
:101E6000816B02041143816300F030F800F026F822
:101E70000548016808221143016000F017F801F0DD
:101E80007FFC10BD0010024000200240002805DB4E
:101E9000C106C90E01208840014908607047000052
:101EA00000E100E010B509F04DF910BD02480168ED
:101EB000021511430160704700700040024801683C
:101EC00042151143016070470070004002480168EC
:101ED000102291430160704700700040094B1A685E
:101EE0009208920002431A600748026904239A4349
:101EF0000261012904D040BF20BF20BF00BF70474E
:101F000030BFFBE70070004000ED00E00A4B1A68AC
:101F10009208920002431A6008480369042213439E
:101F20000361012906D040BF20BF20BF0169914352
:101F30000161704730BFF9E70070004000ED00E03C
:101F4000F8B5044600785E4D800672D55C4E0027D9
:101F5000403EB06BC00004D4B06BA9050843B06329
:101F6000012758480168C90511D401688215114339
:101F70000160FFF74FFF009005E0FFF74BFF00996E
:101F8000401A642837D84F480068C005F5D5326834
:101F90000321090560680A400140914208D081038D
:101FA000890F032904D13168890301D50120F8BDC7
:101FB0002A69032109040A4022D0084090421FD018
:101FC000207880061CD528692A6988430121C90424
:101FD0000A432A612A698A432A612861C0050FD50C
:101FE000FFF718FF009008E0FFF714FF0099411A6F
:101FF0003548814201D90320F8BD28698005F3D511
:1020000061688803800F032805D132680005824388
:1020100001400A43326028690322616812041140BA
:1020200008432861002F04D0B06B012109078843C1
:10203000B0632078C00705D0E868A16880088000F8
:102040000843E8602078800705D5E8680C218843BC
:10205000E1680843E8602078400706D5E868032176
:102060008902884321690843E8602078000706D583
:10207000E86803210903884361690843E860208810
:10208000C00506D5E868032109048843A16908430F
:10209000E8602078400606D5E86801218906884373
:1020A000216A0843E8602078000606D5E868032125
:1020B00089048843E1690843E8600020F8BD000016
:1020C000401002400070004088130000F8B50E4632
:1020D00005007DD053480068C007C00FB0420AD247
:1020E0005048016849084900314301600068C00751
:1020F000C00FB04271D128784B4C800705D5E068FD
:10210000F0218843A9680843E0602878C00752D0CE
:102110006868022817D0032818D02168012818D031
:102120008905002959DAE168890889000143E160DD
:10213000FFF770FE69680746022912D003291CD0F8
:10214000012926D033E021688903EAE72168890163
:10215000E7E74907E5E7FFF75DFEC11B334881422A
:1021600023D8E0680007800F0228F4D123E0FFF7AE
:1021700051FEC11B2D48814217D8E0680007800F2F
:102180000328F4D117E0FFF745FEC11B2748814221
:102190000BD8E0680007800F0128F4D10BE0FFF7AF
:1021A00039FEC11B2148814201D90320F8BDE068F6
:1021B0000007800FF3D11B480168C907C90FB1425E
:1021C0000DD901684908490031430160006800E009
:1021D00003E0C007C00FB04201D00120F8BD28784D
:1021E000400706D5E068072109028843E9680843EB
:1021F000E0602878000707D5E0680721C902884316
:102200002969C9000843E06000F036F8E168084A2F
:102210000906090F515CC840064908600320FFF712
:102220001BFEF8BD00200240001002408813000091
:10223000ECC900084C000020044805490068C96842
:10224000044A4905490F515CC84070474C000020C2
:102250000010024005CA0008044805490068C96822
:10226000044A8904490F515CC84070474C00002063
:102270000010024005CA000810B5184AD1680C20A9
:10228000084004280BD0082810D00C2810D0506823
:102290000004410F0120C003491C884010BD106894
:1022A000C00601D50E4810BD0E4810BD0E4810BD29
:1022B00088020E4B000F185C0902D368890F491C75
:1022C000DB0301D5084A05E01268D20601D5044AAD
:1022D00000E0044A5043FDF70BFF10BD0010024020
:1022E00000093D000024F40000127A00FCC9000837
:1022F000FEB505007ED0F94CE7680C20E668074083
:102300000120000406402878C00747D0082F05D0D8
:102310000C2F0AD101200004864206D120688003D8
:102320003CD568680028E5D038E0012069680004E1
:10233000814203D121680143216011E0052301227C
:102340001B0492049942216802D111432160F1E7F4
:102350008143216021680140009120689043206002
:10236000686800280DD0FFF755FD009005E0FFF7E5
:1023700051FD0099401A64287ED820688003F6D564
:102380000CE0FFF747FD009005E0FFF743FD0099E3
:10239000401A6428F0D820688003F6D42878800793
:1023A0005CD5E868810604D5226820210A432260B2
:1023B00088430923042F0DD00C2F01D1002E09D002
:1023C00000283BD02168994301432160FFF722FD9B
:1023D000064627E02168490701D500288AD06168B0
:1023E0001F22120291432A6912021143616021687F
:1023F000994300E0C3E101432160FFF73DFFE1683D
:1024000009060A0FB649895CC840B649086003202E
:10241000FFF722FD002873D120E0FFF7FBFC801BB3
:102420000228A9D820684007F7D560681F21090253
:10243000884329690902084360600FE0206840086A
:1024400040002060FFF7E6FC064604E0FFF7E2FCF0
:10245000801B022890D820684007F7D42878C0064F
:1024600060D5002F0DD0E86900284AD02068FF21F0
:1024700001310843206000E0E8E0FFF7CBFC0646AE
:102480002CE02068800502D5E8690028A6D06068A5
:10249000072149038843696A084360606068298CA2
:1024A0000002000A090608436060686A410B0120C7
:1024B000C003491C8840E16809060A0F8849895C05
:1024C000C840884908600320FFF7C6FC002817D1E0
:1024D00028E0FFF79FFC801B0228A2D82068800517
:1024E000F7D56068072149038843696A084360603B
:1024F0006068298C0002000A09060843606011E048
:1025000023E12168FF20013081432160FFF782FC35
:10251000064604E0FFF77EFC801B02289AD820685C
:102520008005F7D42878704E000724D56869002804
:10253000306910D0012108433061FFF76BFC009037
:1025400005E0FFF767FC0099401A02287ED8306941
:102550008007F6D50FE0400840003061FFF75AFCD5
:10256000009005E0FFF756FC0099401A02286DD84C
:1025700030698007F6D42878400764D5002002909F
:10258000A06BC00006D4A06B012109070843A0631B
:102590000120029055480168C90511D401688215CF
:1025A00011430160FFF736FC009005E0FFF732FCB5
:1025B0000099401A642849D84C480068C005F5D5F0
:1025C000FF20AA680130824203D1316901433161A1
:1025D00011E001218902002A07D005231B029A423B
:1025E00003D132690A433261EFE7326982433261D3
:1025F000306988433061A86800280ED0FFF70AFCD4
:10260000009006E0FFF706FC0099411A3848814225
:102610001CD830698005F5D50DE0FFF7FBFB009075
:1026200006E0FFF7F7FB0099411A314881420DD8C7
:1026300030698005F5D40298002804D0A06B0121F0
:1026400009078843A0632878800600E07CE02ED547
:102650002848A9694314002916D0A26801210A4319
:10266000A260626B0A436263016A19430162FFF769
:10267000D1FB064604E0FFF7CDFB801B022863D8A0
:10268000A0688007F7D512E0A16849084900A16059
:10269000016A99430162FFF7BDFB064604E0FFF7BC
:1026A000B9FB801B02284FD8A0688007F7D4A86A1E
:1026B000002866D00C2F4DD001263606022820684F
:1026C00005D0B0432060FFF7A5FB05463EE0B043D0
:1026D0002060FFF79FFB074613E000000010024058
:1026E000ECC900084C00002040100240007000407F
:1026F0008813000000000140FFF78CFBC01B02287C
:1027000022D820688001F7D4296BE86AE268084380
:10271000696BFD231B049A4311430843E060206862
:1027200030432060FFF776FB054604E0FFF772FBBD
:10273000401B022808D820688001F7D521E0FFF768
:1027400069FB401B022801D90320FEBD20688001DF
:10275000F5D416E00128F8D0E06801210904EA6AFE
:10276000014091420BD10F2189042A6B0140914213
:1027700005D1032189050840696B884201D00120F9
:10278000FEBD0020FEBD00688900503008180068BA
:10279000704700688900503008180260704730B5F3
:1027A000014620310A78012A15D001220A7002233D
:1027B0004B700468CA23636204685323636203682E
:1027C0009C6820252C439C600068FF2343624A706C
:1027D0000020087030BD022030BD10B508F05AF856
:1027E00010BDF8B5054604462035287801281DD0CF
:1027F00001202870022068702268CA205062226876
:1028000053205062FF2001300026FF2781421CD157
:1028100021688A6882438A602068816801221203E5
:1028200091438160FFF7F6FA009009E00220F8BDBD
:10283000FFF7F0FA0099411A7D20C00081421BD8B1
:102840002068C068C007F3D020E0206881680122BA
:102850005202914381602068816812019143816036
:10286000FFF7D8FA00900DE0FFF7D4FA0099411A6B
:102870007D20C000814205D920684762032068702E
:102880002E70F8BD2068C0688007EDD520684762CB
:10289000012068702E700020F8BD10B500680B464E
:1028A0004068C021C94301400002000ECC04D8702A
:1028B000E40E5C708C06A40E0904490F9C7019701C
:1028C000002A0AD104F000FDD870587804F0FCFC0E
:1028D0005870987804F0F8FC9870002010BD000043
:1028E00030B50B460168896A596001680969490475
:1028F000490C9960006804680F482146014088022D
:102900004D04800E18706D0E49065D70490E997069
:102910006102490E40242140D970002A0AD104F0F6
:10292000D3FC1870587804F0CFFC5870987804F0F5
:10293000CBFC9870002030BD7F7F7F00F8B504008D
:1029400050D0254620356878002803D128702046CD
:1029500000F052F8022068702168CA20486221689D
:1029600053204862204604F0C3FCFF2604270028B9
:10297000206802D046626F7034E081681D4A1140C1
:102980008160216888686268A369104322691A43DC
:10299000104388602168E068086120680169228925
:1029A0001204114301612068C16880229143C16013
:1029B0002068C16C89088900C164E16960690143CC
:1029C0002068C26C1143C1642068806880060BD403
:1029D000204600F0E5F9002806D0206846626F70B6
:1029E000002028700120F8BD206846620120687030
:1029F0000020F8BDBFFF8FFF00B597B038216846B3
:102A0000FDF7E9FB24210EA8FDF7E5FB042000906B
:102A100000200A90FF20013002906846FFF768FC12
:102A2000002801D0FEF754FC20200E90C0020F9029
:102A30000EA8FFF785FA002801D0FEF749FC0848E8
:102A40000169012292041143016100221146022012
:102A5000FFF728FA0220FFF719FA17B000BD0000AF
:102A600040100240FEB506460446203630780B463C
:102A700001283ED0012030700220707018462030AE
:102A80000090206800278068002A34D0400600D4D7
:102A9000DF7019789D7809040D435978DA780902B6
:102AA000120411430D430099D869097809060D43B2
:102AB000054358699969054358680843009021689F
:102AC000CA204862216853204862FF205A6A0130B8
:102AD0008021824245D122689368834393602068B5
:102AE000C2680A40FF3A823AC260FFF793F9019048
:102AF00024E00220FEBD400600D4DF70187804F008
:102B0000EBFB0504587804F0E7FB000205439878D6
:102B100004F0E2FB0543D8780004054300980078F0
:102B200004F0DAFB00060543D869C1E7FFF772F944
:102B30000199411A7D20C00081422AD82068C068CE
:102B4000C007F3D02068C5612168009848642068F8
:102B50008168FF220132114381602068816812017F
:102B600030E02068826801235B029A43826020681B
:102B7000C2680A401D495118C160FFF74BF9019026
:102B80000EE0FFF747F90199411A7D20C00081420C
:102B900006D92168FF204862032070703770FEBD9F
:102BA0002068C0688007ECD520680562216800981D
:102BB0008864206881680122520211438160206884
:102BC00081681201114381600948026801214904AA
:102BD0000A43026082680A4382602168FF204862DB
:102BE0000120707037700020FEBD00007FFDFFFFE8
:102BF00000040140F8B505460446203528780B4608
:102C000001280FD00120287002206870002A0BD004
:102C1000D8789E7800040643587809780002490362
:102C2000084317E00220F8BD5878C10603D5EF210C
:102C300008400A305870D87804F04EFB06045878E3
:102C400004F04AFB00020643987804F045FB064373
:102C50001878400306432168CA204862216853203F
:102C60004862204604F044FB0027002811D1114897
:102C70000640206846602068C16880229143C16098
:102C80002068806880060CD4204600F089F800286F
:102C900007D02168FF204862042068702F7001204F
:102CA000F8BD2168FF204862012068702F70002065
:102CB000F8BD00003FFFFF00F8B506460446203689
:102CC00030780D46012822D001203070022070702B
:102CD000206800278068002A1BD0400600D4EF70CF
:102CE0002978A878090408436978EA780902120467
:102CF0001143084300902168CA204862216853208C
:102D00004862204604F0F4FA002837D116E0022089
:102D1000F8BD400600D4EF70287804F0DDFA030413
:102D2000687804F0D9FA00020343A87804F0D4FAD2
:102D30000343E878000403430093DCE71749009855
:102D4000084021680860206881680122920491434C
:102D500081602969E868084321688A6810438860AF
:102D60002068C16880229143C16020688068800625
:102D70000CD4204600F014F8002807D02168FF206A
:102D800048620420707037700120F8BD2168FF2070
:102D900048620120707037700020F8BD7F7F7F008F
:102DA00070B504460068C168A0229143C160FFF776
:102DB00031F87D260546F60006E0FFF72BF8401BAC
:102DC000B04201D9032070BD2068C0688006F4D5E8
:102DD000002070BD70B5040007D0002625464035A0
:102DE000A662687C002802D005E0012070BD2E7428
:102DF000204600F02FF80220687420680168402205
:102E000091430160A168606822690843E168114349
:102E10000843616901220843A16952021140084335
:102E2000E1690843216A0843A16A084321680860F0
:102E3000A0690421000C0840616A084321684860C9
:102E40002068C16992009143C16166650120687480
:102E5000002070BD7047FFB5044683B0012001908B
:102E60000020264640360090307C0C9F1D460128ED
:102E70000FD001203074FEF7CDFF0290707C6168A6
:102E800001280DD0CA1FFD3A08D1A168002905D13B
:102E900002E0022007B0F0BD042801D00220C3E008
:102EA0000498002828D00598002825D0002D23D08C
:102EB000707C042801D0052070740020606505999D
:102EC000A163E587A58704992163E586A58620642B
:102ED000606420680168490603D4016840221143F8
:102EE00001600121E068C9028842606848D1002879
:102EF00004D0012D02D03CE0012095E0206B216838
:102F00000088C860206B801C2063E08E401EE08635
:102F10002FE020688168890710D5E18E00290DD047
:102F2000019901290AD1216B0988C160206B801C9D
:102F30002063E08E401EE0860020019020688168BA
:102F4000C9070DD0E18F00290AD0C068A16B0880A5
:102F5000A06B801CA063E08F401EE08701200190E1
:102F6000FEF758FF01460298081AB84201D3781CB0
:102F700059D1E08E0028CCD1E08F0028C9D146E09D
:102F8000002801D0012D3CD1206B21680078087306
:102F9000206B401C2063E08E401EE08631E02068FC
:102FA0008168890710D5E18E00290DD0019901298A
:102FB0000AD1216B09780173206B401C2063E08EDD
:102FC000401EE0860020019020688168C9070DD06E
:102FD000E18F00290AD0C068A16B0870A06B401C6B
:102FE000A063E08F401EE08701200190FEF712FFF2
:102FF0000299401AB84202D3781C02D013E0002F85
:1030000011D0E08E0028CAD1E08F0028C7D1394600
:103010002046029A05F042FA002807D001200090CD
:103020002020606509E00320009006E0A0680028E9
:1030300003D12068C168806801900120707400206D
:103040003074009826E7704770470000F8B50268B2
:103050000446D0691168936805072D0F5BD0DD0722
:10306000ED0FFF2621360E402E4367D0C60706D04F
:10307000CE0504D501261662E26F3243E267870768
:1030800002220426002F06DADF0704D027683A62FE
:10309000E76F3743E767470706D5DB0704D02368A8
:1030A0001E62E36F1343E367020709D520220A403B
:1030B0002A4305D0236808221A62E36F1343E367AB
:1030C000E26F002A2FD0800606D5880604D5216E2F
:1030D000002901D020468847E06F216889684906A9
:1030E00001D4000724D5204607F0FBFD2068816845
:1030F000490619D58168402291438160E06E00281D
:1031000012D020498163E06EFEF7B0FC00280AD09F
:10311000E06E816B06E0850610D58D060ED5216E1A
:103120001CE020468847F8BD2046FFF78DFFF8BD1C
:103130002046FFF789FF0020E067F8BDC50208D5EB
:103140005B0206D50120000510622046FFF77BFFD9
:10315000F8BD030605D50B0603D5616E0029E0D145
:10316000F8BD4006FCD54806FAD513682046402134
:103170008B431360202161670021616600F088F9AC
:10318000F8BD00004DAC000810B5040003D0606F1E
:10319000002802D007E0012010BD00217020015559
:1031A000204600F027F8242060672068016849085D
:1031B00049000160204607F0ADFD0128ECD0606AAF
:1031C000002802D0204607F0ABFC206841680922A5
:1031D000D20291434160206881682A229143816034
:1031E00020680168012211430160204607F0FEFCBF
:1031F00010BD000038B505460068214988423ED11F
:103200002049CA6A01200243CA62CA6A0240009287
:10321000CA6A0243CA62CA6A024000928A6B4304C5
:103220001A438A630A6B02430A63086BC007C00F24
:10323000009009F0B1FA154C1348206000211020CD
:10324000E160A0606161A161E16180202162206193
:10325000042060602046FEF783FCAC66012200215A
:103260000B20A562FEF71EFE0B20FEF70FFE0122CB
:1032700000211C20FEF716FE1C20FEF707FE38BDBD
:10328000004400400010024080000240C8040020BA
:1032900000B587B014216846FCF79DFF0F48416BCD
:1032A0000122920311434163C16A01221143C162A9
:1032B000C06A694610400590032040020090022039
:1032C0000190002002900320039004200490052028
:1032D0000007FEF7D7FC07B000BD00000010024059
:1032E000FFB50446806F85B017460E46202875D17D
:1032F000002E0AD0002F08D0A168C001814207D15A
:103300002069002804D1F00702D0012009B0F0BDE7
:10331000204660300290007C01285FD00298012195
:1033200001740020E0672220A067FEF773FD2546A8
:10333000403504902F836F830121A0680903FF2289
:10334000884204D12369002B0CD1254A0AE07F234F
:10335000002809D001221207904213D12269002AC5
:1033600005D03F22AA8303E02769002FFAD0AB8360
:10337000AA8B0192884202D12069002804D03746E6
:10338000002602E00022EDE70027D0B20390688B10
:1033900000281DD008980090002220212046049B80
:1033A00007F0D6FD002801D00320AFE72068002FEA
:1033B000406A07D00399084038707F1C688B401E14
:1033C0006883E4E7019908403080B61CF6E705E021
:1033D0002020A06702990020087497E7022095E753
:1033E000FF010000F8B50446406F202847D10029AE
:1033F0000BD0002A09D00123A0681B03984206D1F4
:103400002069002803D1C80701D00120F8BD254656
:103410006035287C012832D00120287420464030B5
:10342000E164028242820026E66721206067A06E86
:10343000002819D01349C162A16E13480863A16E18
:1034400012484863A06E134686632768E16C3A46CB
:103450002832A06EFEF7CCFB002805D01020E067D4
:103460002E7420206067D0E72168402008622E7407
:10347000206881688022114381600020F8BD02200D
:10348000F8BD0000A9AC0008D9AC000861AC000888
:1034900001480068004700008C00002070470000D1
:1034A00010B50349002008700248FEF7F5F810BD7A
:1034B000900000209005002010B5134801780029E5
:1034C00020D1012202701248104901600021C1631D
:1034D000C161D307816143604263816007238363D5
:1034E000026102462032C1601170517004234361B1
:1034F000816208481173416B4215114341630448CE
:10350000FEF728F910BD00009000002000240140C3
:103510009005002000100240FEB5074600200090F4
:1035200005460190FFF7C8FF1D480078002834D0F9
:103530001C484168C9430907FBD41B4C606B6615E6
:103540003043606300211948FEF706F818480090E0
:103550001848019069461548FEF754F8A0140190E8
:10356000694600971148FEF74DF81048FEF738FA03
:103570000021C9430D48FEF7D3F90C48FEF7E6F8E1
:1035800085B20A4801688A6802231A438A60006883
:1035900003210160606BB04360632846FEBD0000FC
:1035A00090000020007000400010024090050020B4
:1035B000FFFF070001100000014600200A0A00D0AA
:1035C0000820084A114201D004221043064A114241
:1035D00001D002221043054A114201D001210843C3
:1035E00070470000F0F00000CCCC0000AAAA000058
:1035F00038B50B231B07C518114B0FD01C152D1BFD
:1036000018D02D1B19D0A542DD6A05D10824254309
:10361000DD62DB6A234007E08024F8E7DC6A0125ED
:103620002C43DC62DB6A2B40009311601146FEF7ED
:1036300029FB38BDDD6A0224E9E7DD6A0424E6E7F8
:103640000010024010B5FFF7B7FF81000348415852
:10365000002901D00020884710BD0000F0020020A2
:1036600070B51C4615460E460846FFF7A5FF0A49E9
:10367000002C0DD080000C50304602F035FD044681
:1036800000222946FEF70EFC2046FEF7FFFB70BD28
:10369000002280000A5070BDF002002010B5D2B2A6
:1036A000FEF7B2FB10BD000010B50648FFF734FF6F
:1036B000011E05D00448054A008B5043FCF718FD55
:1036C00080B210BD000002446000F81FB80B00007B
:1036D00003494A690869496A5040484070470000F8
:1036E0004000F81F70B51148FFF716FF104C01009D
:1036F0001AD0208B0F4A5043FCF7FAFC05460E48BF
:10370000FFF70AFF68430B49FCF7F2FC618B0522C7
:10371000401A12035043E28B511AFCF7FFFC0F21B1
:103720004902401880B270BD0025E8E7000002445D
:103730006000F81FB80B0000000004480F494B6AF6
:103740000A69D218120EC2714B6A0A69D218120C99
:1037500082710A8A8B8CD218120A42710A7C8B8C75
:10376000D21802714A69120EC2704A69120C827034
:103770008A8A120A4270097D017070474000F81F62
:10378000F0B587B014216846FCF725FD224CE06AAD
:1037900001210843E062E06A08400590E06A0225E2
:1037A0002843E062E06A28400590E06A042630433E
:1037B000E062E06A30400590E06A80273843E062CA
:1037C000E06A69463840059003200190002002908D
:1037D0001248009005200007FEF754FA10480090A8
:1037E00069461048FEF74EFA69460F48FEF74AFA56
:1037F00069460E48FEF746FAE06A40084000E0627B
:10380000E06AA843E062E06AB043E062E06AB8437D
:10381000E06207B0F0BD000000100240FF9F000012
:10382000FFFF00000004005000080050001C005082
:1038300010B5104C607800281AD1FFF73DFE0E48F5
:103840000068804700F02CFA00F0D6F807F0F6F890
:10385000FDF71CFB0020FDF7C7FA0120FDF7C4FAB5
:103860000220FDF7C1FA0320FDF7BEFA01206070C7
:1038700010BD0000900000206CC9000870B50C4617
:10388000054600210448FEF77EFF2860012102481A
:10389000FEF779FF206070BD3003002010B50C46A4
:1038A000024600210448FEF774FF22460121024827
:1038B000FEF76FFF10BD00003003002070B5410E11
:1038C000C0017D220023FCF73DFC054600F08CF88A
:1038D000044600E000BF00F087F8001BA842F9D3BF
:1038E00070BD10B586B00446694605A800F00CF816
:1038F000830A890580050B43800D00F0AFF9208015
:10390000184606B010BD0000F8B505460C4600226A
:103910002348FEF7E5FF234FB86A002286B2294606
:103920001F48FEF7BAFF002221461D48FEF7D8FFC8
:10393000B86A80B2B042EFD1E8781B4A01465043E2
:10394000C01C8308880729D0184869783D220E4694
:1039500051430A463C3A7100891EC840D10F800786
:103960008918800F4910081AC018A978401E081835
:103970000F493C2248436178E123514322781B01DF
:103980005A438918A27810180818810D83026068BC
:10399000084C0022201A18185141F8BD0648D4E7F7
:1039A0003003002000280040B5050000A0AA9900BF
:1039B00080510100FF030000505544000320704770
:1039C00001480068704700007C03002000B587B004
:1039D000694605A8FFF798FF0249096807B0401A31
:1039E00000BD00007C03002000B587B0694605A833
:1039F000FFF78AFF07B000BD10B5084C20780028FB
:103A00000AD100F04DF8FF2101310548FEF7E9FE2B
:103A100000F076F80120207010BD00005400002056
:103A20003003002010B50D4C0021042000F064FD8F
:103A300001200B494004486121688868C0040BD507
:103A4000C868C00508D5C86880221040FF38823891
:103A5000C8602046FEF7C1FE10BD00003003002004
:103A60000004014070B50446FFF7B0FF211A0B4D6A
:103A70000220285EC01C814201D9002100E0012102
:103A8000042000F039FD00F00FFD012802D10220D2
:103A9000285E241A204600F03FF870BD5400002034
:103AA00010B51449144886B0002412C01F210160CB
:103AB000846004611149446141600838FEF73EFFAB
:103AC0006946CC750120487588750875002205A9DE
:103AD0000948FFF78FF80094019404940022694686
:103AE00005480394FFF7E8F80348FEF758FE06B0D0
:103AF00010BD00000028004030030020FF0300003C
:103B000010B5044C2046211D1830FFF7FDFE206043
:103B100010BD00007C030020F0B587B004461422DD
:103B20003F4901A8FCF73EFB3D485038406E0090ED
:103B300000F07EF83B4802993B4A401AA105890DE6
:103B4000081887B2A10A68468078534202E08918B3
:103B5000401C80B29942FAD26A461579E1221201DC
:103B600002E0891A6D1CADB29142FAD26A465479CC
:103B700002E0641CA4B23C393C29FAD29279511873
:103B80008EB20121890203E07A1A761C97B2B6B28E
:103B90008F42F9D203E03C3E641CB6B2A4B23C2E84
:103BA000F9D203E03C3C6D1CA4B2ADB23C2CF9D27E
:103BB00003E0183D401CADB280B2182DF9D2694621
:103BC000C978890769464A7827D01849491E515C47
:103BD000814202D2FCF78CFA08461249CA1B1049EE
:103BE0002C394A60052252068A618E704C700A4652
:103BF0000D70203210706846C079C8700020C8610E
:103C0000FF2248610132C8604A62086102460846E4
:103C10002438FEF727FF07B0F0BD04490C31D5E783
:103C200080030020FF03000080AEFEFF0DCA0008E5
:103C300010B5FF2101310748FEF7D3FD05480168A3
:103C4000C86880221040FF388238C860024990025C
:103C5000486110BD3003002000040140810A7D222C
:103C60008005D200800D50435143800A08187047E8
:103C700010B5410EC0017D220023FCF763FA10BD90
:103C800001B582B00020C0430090012301AA02A91F
:103C90000248FFF7E0F8684680880EBD98030020D0
:103CA00010B51C481A4901601C4A1B4B00211268C0
:103CB00003E05208491C072901D29A42F9D84A0761
:103CC0008B07D20FDB0F52011B011A43C90700D02B
:103CD00008210A43C2610021816001614161FF2224
:103CE000C16005328162426001220162520282613A
:103CF00041620B48416B8214114341630548FFF751
:103D000069F8002801D0FDF7E3FA00F00BF810BDC8
:103D10000030014098030020809698004C0000205D
:103D20000010024030B585B014216846FCF753FA04
:103D30000220019000240320039002946A46082187
:103D400004940F48FFF754FC05252D076A464021CF
:103D50002846FFF74DFC6A4680212846FFF748FCBD
:103D600001200294C40301906A4621462846FFF7C9
:103D70003FFC012221462846FFF790FC05B030BDEC
:103D800000040050F8B52E4C074660680025E0306E
:103D9000007C0E46022802D02A48406B804700F083
:103DA000D9FB002806D0022000F0EBFB002000F039
:103DB000C6FB01256068E030007C012819D100F0C5
:103DC000CFFB00280AD0002000F0DEFB002000F02E
:103DD000D1FB00F0C3FB002804D12EE000F0BEFBB5
:103DE000002806D0002000F0CDFB002000F0BEFB34
:103DF00023E0002D21D1012013498002081821233E
:103E000022785B01C918007D002A02D0012807D062
:103E100007E0012800D14F77384600F09DFD0CE007
:103E20004E77304600F098FD6068E030007C022854
:103E300003D0607820210843607007F0DDF8F8BDFA
:103E4000C00B00206CC900084007002000BFFDE740
:103E5000044909690A461032824201D10846704776
:103E6000001D7047400F0020052805D0082803D00A
:103E70000A2801D0002070470120704710B507A123
:103E8000095C07A006F0EAFD0C480021017102213F
:103E90004171002100F03AFA10BD00004142430098
:103EA00073776974636820746F20636C6173732027
:103EB000256320646F6E650A0D000000600000201D
:103EC00010B50024FFF7F0FB0949884201D9FE2410
:103ED0000BE0E121C900884207D3401AFE21484384
:103EE0004B210901FCF704F9C4B2204610BD0000C3
:103EF000B80B000010B5002000F064F910BD000000
:103F000030B561A20CCA91B00E930D9260A30CCB98
:103F1000614D10930F92A960E86060A006F09EFDCD
:103F20000028FAD108A8C37E827E417E007E01ACC3
:103F30000FC408A8C07D009008A8837D427D017D44
:103F400058A006F08BFD0028ECD163A0696806F04C
:103F500085FD0028F9D1504C5034E37BA27B617B76
:103F6000207B0C9309AB07C3E37AA27A617A207AAB
:103F7000089305AB07C3E379A279617920790190B1
:103F800002A80EC0E0780090A378627821785648A5
:103F900006F064FD0028E0D13F4C6034E37BA27B57
:103FA000617B207B09900AA80EC0E37AA27A617A2D
:103FB000207A089305AB07C3E379A2796179207968
:103FC000019002A80EC0E0780090A3786278217872
:103FD000464806F043FD0028E0D1464844490160C8
:103FE00045494160454981604549C160E9681030F3
:103FF0000A6802604A684260096AC160014600229C
:10400000103801F0B7F83B4C0220203420700DA886
:104010006060204601F0D2FB032020700FA8606092
:10402000204601F0CBFB04202070A86800782071A6
:10403000204601F0C3FB1D202070A8688078207105
:10404000204601F0BBFB0820207013481030606050
:10405000204601F0B3FB092020700F48203060603B
:10406000204601F0ABFB002020702071204601F0BB
:10407000A5FB3020207014206060204601F09EFBDC
:1040800002F026F811B030BD001EA3BCA0977471D9
:1040900070B3D57ED0036429940000204142500AB9
:1040A0000D0000004465764575693D202530325885
:1040B0002D253032582D253032582D253032582DAF
:1040C000253032582D253032582D253032582D25A7
:1040D0003032580A0D0000004465764164643D208A
:1040E00020253038580A0D00D4CD000830CE000805
:1040F00051610008EC05002079610008E1610008C9
:1041000021620008F8B5264D264CA86800264078A4
:104110002870052020702046666001F04FFB0620C5
:10412000207068686060204601F048FB0C20207019
:10413000284630306060204601F040FB0D202070A2
:10414000284640306060204601F038FB0E20207089
:10415000284650306060204601F030FB0F20207070
:10416000284660306060204601F028FB0127277058
:104170002771204601F022FB6846C7708670032134
:104180004170067035202070204620380099416229
:10419000203001F013FBE86840698047F8BD00005B
:1041A000940000200C06002000B589B0012168466B
:1041B000017001F079FA68460079002800D00120EA
:1041C00009B000BDF0B589B0064600246846274610
:1041D000047001F069FA68460079B04227D03100D6
:1041E000144E154D04D001290ED002291FD10FE025
:1041F0006846077101F0E2FA002803D1F06881698E
:10420000002013E02C4612E00C4806F027FC0EE0DC
:10421000002800D02C46022069460871684601F04B
:10422000CDFA0028EED1F068816902208847204647
:1042300009B0F0BD94000020FFFFFFFF8CCE000806
:1042400010B5044641791CA006F008FC61792248AB
:10425000022920D0032910D063290DD12168897843
:10426000642927D00021817000291CD01BA006F0F2
:10427000F5FB0220FCF7FAFD10BD20790128FBD1E7
:1042800020680078002803D0012801D00228F3D14B
:10429000FFF798FF10BD21790129FBD1216809782A
:1042A000C907C90FDFE710A006F0D8FB0220FCF712
:1042B000CDFD10BD0121D6E75041434B455420525E
:1042C00045434549564544204F4E20504F525420B7
:1042D00025640A0D00000000580000204C454420D1
:1042E0004F4E0A0D000000004C4544204F46460A40
:1042F0000D00000010B50448002101710221417138
:10430000002100F003F810BD6000002030B585B03A
:104310000D46044607F0E4FC002802D0002005B05A
:1043200030BD207904A901F0DFFD01460020164AC6
:10433000002904D0694608700290888120E0002D91
:1043400016D001216846017061790171217981815E
:104350002068029008216846C173906841786846D9
:104360008173684601F0FAF80028D8D00120D6E71A
:104370006946087060790871207988812068029008
:10438000906840788873ECE79400002010B50B48E3
:104390000168002904D000F014F800F058F810BDAE
:1043A0004068002804D000F013F800F051F810BD68
:1043B00000F006F800F04AF810BD000028010020C7
:1043C000704710B501210020FDF788FD10BD0000E9
:1043D00030B585B0EFF3108472B614216846FBF750
:1043E000FAFE03200190002005252D0702906A4661
:1043F00080212846FFF7FCF86A4640212846FFF74F
:10440000F7F86A4608210E48FFF7F2F801216A46DC
:10441000C9032846FFF7ECF80A484068804708F0CF
:1044200097F9FFF73DF8084801680422114301603D
:1044300084F3108801210846FDF768FD05B030BD02
:10444000000400506CC900080070004070477047BD
:1044500010B5EFF3108472B61148016801221143C0
:10446000016001684907FCD5016801221206114369
:10447000016001688901FCD5C16803221143C16054
:10448000C1680907890F0329FAD1FFF74BFC0548DA
:104490000068804708F080F984F3108810BD0000A0
:1044A000001002406CC90008EFF3108172B6074893
:1044B0000268002A01D0002005E04068002801D0F1
:1044C000012000E0022081F31088704728010020BD
:1044D00010B5EFF3108272B6064B00295C6803D06A
:1044E000012903D1044300E084435C6082F3108817
:1044F00010BD00002801002010B5EFF3108272B645
:10450000064B00291C6803D0012903D1044300E0B5
:1045100084431C6082F3108810BD00002801002035
:10452000884200DC0846704710B58478002C01D022
:10453000002010BDFCF7ABFC10BD00207047704799
:104540007047704700210160084670477047704708
:1045500000207047002070470020704700207047FF
:1045600000207047002070470220704770470020ED
:1045700070477047704770470120704770470020B0
:104580007047704770477047704770470220704708
:10459000F8B51546064600290DD0204C0020020132
:1045A0001319002208339F5C002F06D0401CC0B2B4
:1045B0000F28F4D111E00120F8BD521C92B2102A4C
:1045C000F1D300010419083407D0144802462243ED
:1045D00005D00268002A04D004E00220F8BD0520BE
:1045E000F8BD04604268002A00D0146000222260F6
:1045F00044602671AAB2601DA56007F097FE3046A0
:10460000FFF732FC207305486D1C8030816F49191B
:10461000816701F011FE0020F8BD00002C0E002083
:10462000FC210160004870472C0E0020002804D0B7
:104630000349896F01600020704701207047000026
:10464000AC0E002010B50446FC220021054807F0FE
:1046500085FE04490020086048600348046000208B
:1046600010BD00002C0E00202401002070B5002891
:104670000BD01C4A002511460143002907D01168C0
:1046800004460B46884205D10AE0012070BD032094
:1046900070BD3146002904D00E68A642F9D100E071
:1046A0000021834201D1036813605468844200D121
:1046B0005160002901D002680A600A490560803112
:1046C0008A6F8368D21A521E8A67002807D0102288
:1046D000002107F043FE01F0AFFD002070BD052072
:1046E00070BD00002C0E002010B5084802E0017BD0
:1046F000002906D000680028F9D101F09DFD0020B6
:1047000010BD0468FFF7B2FF2046F4E72C0E00202E
:1047100070B50948046809E020792568FFF7A4FB13
:10472000002802D02046FFF7A1FF2C46002CF3D131
:1047300001F082FD002070BD2C0E002010B5002875
:1047400006D00146FC22034807F0F0FD002010BD12
:10475000012010BD2C0E0020F8B51500064605D02E
:10476000002903D00E480021046814E00120F8BDA0
:10477000A068721A401C82420FD320796854491CE9
:104780002089CFB282B2E819611D07F0CFFD207AEF
:104790002468C019C1B2002CEAD10020F8BD000085
:1047A0002C0E0020002804D008490022096802705D
:1047B00005E0012070470A7B012A04D0096800291E
:1047C000F9D10020704701210170FAE72C0E00207A
:1047D00010B50C4C01462269107D052801D300203C
:1047E00010BDA0680B7803704B784370C978C17016
:1047F00000218170117D491C1175FFF729FBA06014
:10480000012010BD400F002001480069007D704765
:10481000400F00201621016000487047280F00203B
:1048200010B507490A69127D002A07D08A684968CD
:10483000FCF7B8FD002801D0407810BD012010BD64
:10484000400F0020F8B5134D064628690024077D67
:104850001CE06868017831704178717081780029B6
:1048600006D0286881683046884700F043F80BE09E
:10487000027869460A7042784A70C078C87000F0C1
:1048800039F86846FFF7A4FF641CE4B2BC42E0D3E9
:10489000F8BD0000400F002070B5094C0D462060A7
:1048A0002046183800212061017560601422FF2124
:1048B000A06007F053FD216901204875E56070BDD7
:1048C000400F002010B504498A684968FCF76AFD6A
:1048D000002800D0012010BD400F002004480069CE
:1048E000007D052801D3012070470020704700009B
:1048F000400F002010B5064C2169087D002806D025
:10490000401E08756068FFF7A3FA6060012010BDC3
:10491000400F002010B5002805D00146162202489D
:1049200007F004FD012010BD280F002010B504463B
:1049300008480B460169097D002909D08268416851
:104940001846FCF72FFD002802D044700121817029
:1049500010BD0000400F002070B50A4C05462169CB
:1049600060684D75097D00290AD001264570C1781F
:10497000002900D18670FFF76BFAA1688142F5D15A
:1049800070BD0000400F00207FB5092802D00B2029
:1049900004B070BD002100910191029103910B4977
:1049A00002464C687F2325786946284665782D02A3
:1049B0002843A578E4782D0428432406204305F0F5
:1049C0003FFA0028E4D00F20E2E70000EC0D0020C1
:1049D0007FB5184900284C6802D0012804D006E0B1
:1049E000A17800290CD002E0A178012908D000218B
:1049F0000091019102910391A178012903D005E072
:104A00000B2004B070BD20216A4611702578024643
:104A10002846657809232D022843A578E4782D04DB
:104A2000284324066946204305F00AFA0028E8D006
:104A30000F20E6E7EC0D0020F8B500241D461646D1
:104A40000F460094002B0ED06946FCF735FD002878
:104A50000AD10098411C08D081B2711A00290BDDDF
:104A60004018286002E00A20F8BD2E600E48406819
:104A7000807800280BD014E0002905D0000C000439
:104A8000801901210904EBE728600720F8BD2A6896
:104A900000992046511AA041C91BA04101DB082002
:104AA000F8BD0020F8BD0000EC0D0020002806D065
:104AB00004494968C968491C0160002070470A2000
:104AC00070470000EC0D0020342101600048704761
:104AD000F80D0020F7B5C4B01400074606D045987D
:104AE000002803D00026FF2F03D005E00A2047B09E
:104AF000F0BD02200C26009020790021821901A827
:104B000007F02CFC01A8831920791D46401E81B2B4
:104B10002068009A401C05F053F9002841D1207903
:104B20002946401E82B22068401C07F0FFFB204649
:104B300001F03DF9002801D01020D8E7207C404D3D
:104B4000C00921D06968012088700320009069465F
:104B500001A80F7101300822459907F0F2FB68683F
:104B6000694602794A738088761F000A88736079E3
:104B7000C8732079626A801981B201A8009B05F090
:104B8000CDFA00280DD10EE06968002088702079E8
:104B90000223001F81B2626A206805F0BFFA002874
:104BA0000FD00F20A3E7E179A07909020143207A11
:104BB0000004084369688A6882423ED28860A86817
:104BC00080470120FFF704FF002890D10920FFF75C
:104BD000DBFE00288BD122466B6809321646A11DE8
:104BE00008201B1DFCF7C8FA002880D16B683246EC
:104BF000A11D07201B1DFCF7BFFA00289DD16B6883
:104C00003246A11D05201B1DFCF7B6FA002894D1E1
:104C10006B683246A11D06201B1DFCF7ADFA00286B
:104C20008BD1002129806868C160491E81610161C2
:104C30004161A8688047002059E7032057E700003A
:104C4000EC0D002010B50C4B1C460C3C636000289A
:104C500010D0A06034220021184607F07FFB606866
:104C60000121C170817041700021017003F0E0FAF0
:104C7000002010BD0148ECE7F80D0020511200089B
:104C80007CB5040014D000200190022601A805F094
:104C9000B1F9124D019869688880A86880476868F2
:104CA0008088E082204601F0DDF9002814D101E07F
:104CB0000A207CBD20461830009033461322002085
:104CC000216805F0B3F8002801D00F207CBD2046F4
:104CD00001F0C8F90028F9D011207CBDEC0D0020AE
:104CE00010B5002806D001463422034807F01EFB09
:104CF000002010BD0A2010BDF80D0020F0B50822DC
:104D00008DB01C460546002B39D02B4E7068C1680B
:104D1000A94202D906200DB0F0BD2046203003780C
:104D2000002B00D107220023A94208D2019500934D
:104D3000017AA368606A01F029FC0028EBD1706851
:104D4000C560B0688047204601F026F9002831D1BF
:104D500020792768001F86B207200490002084462F
:104D60000346284625462C35A168002F07D0002D84
:104D700005D0FF220132964203D90E20CBE70A204C
:104D8000C9E708AA02920091019062463046049950
:104D900001F048FC00953246394608A8049B05F00E
:104DA00045F8002801D00F20B5E7204601F0F4F8BF
:104DB0000028B0D01120AEE7EC0D002010B504465D
:104DC00005F05EF900280DD1012C01D0002C0BD18B
:104DD0002046FFF7FDFD002804D10920FFF7D4FD90
:104DE000002801D00F2010BD002010BD02494968E5
:104DF0000860002070470000EC0D002000280DD056
:104E0000074949680A461C32C261121D4264121DDC
:104E1000C266803028314161002070470A20704707
:104E2000EC0D0020FFB585B00E9C1D460E460746D2
:104E3000002C08D00021009107986946FCF73CFB44
:104E4000002808D102E00A2009B0F0BD0098854290
:104E500003D8401C01D00620F6E7204600F052FFA0
:104E6000002801D01020EFE704A93846FCF7F2FA39
:104E70000028E9D1049847788278A068B04201D030
:104E80000220E1E7207B8006C30F15484068807848
:104E9000002800D10023E06A0121019602950091CB
:104EA00003902079001F81B2206806F0B1F8002835
:104EB000CAD1204620300178002900D107270121DE
:104EC00001950091017A33463A46606A01F05EFB33
:104ED0000028B9D12946079806F070F80020B3E7FA
:104EE000EC0D002030B5164C164D607887B00107E8
:104EF000002907DAF72108406070686CC168204615
:104F00001C3888476078C0060CD5062168460170B9
:104F100000214170686CC168684688476078EF215D
:104F2000084060706078810707D5FD2108406070F7
:104F3000686C416802486438884707B030BD00009B
:104F4000C00B0020400A002070B5EFF3108072B64D
:104F50001C4900220C6880F310880A60002C30D0B5
:104F6000E00601D502F04AF9200701D501F0D0FE94
:104F700060071AD5144D6868E030007C022802D022
:104F80001248406B804706F037F80F49022060391D
:104F90004877FFF7E1FC0C488038017D012900D1FA
:104FA000C1746878202108436870A00703D50621E2
:104FB0000520FEF7E7FEE00703D004210320FEF7FB
:104FC000E1FE70BD08010020C00B00206CC9000884
:104FD000FEB5354E7278D00742D00920C001334665
:104FE000341A603B20180125197FAD02406864190E
:104FF000002904D0032902D0012910D03AE0FF2172
:105000001931257C095C8D421FD2910732D5E030E1
:10501000007C002819D0587B002816D02AE0E17CBB
:1050200001291DD1204DA37C677C403D2978BB42DE
:1050300017D2920701D5012913D00022FF23D333C1
:105040001B5C002B0FD0002A14D0184805F0C4FCBC
:10505000164820226838016C9143016405F04EFA2D
:10506000FEBD0122EAE7002A02D000290BD017E09A
:10507000FBF798FE7078DF21084070700020E07424
:1050800001F032FAFEBD01216A46117108498968B2
:1050900000910078694603F051F8002020752870CF
:1050A000A07C6870D1E70000C00B0020A80A002097
:1050B000A40D002070B511484078400711D500209C
:1050C000FFF700FC02250E4C00280BD00020FFF754
:1050D000A7FB002802D1E11DF9310874206CA84318
:1050E000206470BD0420FFF7EDFB0028F6D10520F9
:1050F000FFF7E8FB0028F1D170BD0000C00B0020D5
:10510000400A002038B519481949457868460570A5
:10511000086C002828D1154CEA0702D06808400026
:1051200060706078420702D5FB2210406070012059
:10513000A070E80704D0486C01680C4844388847E0
:1051400068070BD509483038FFF77CFBFFF75CFB9D
:10515000002803D06078042108436070FFF70EFA3E
:105160006078DF210840607038BD0000C00B00206F
:10517000400A0020F0B591B00F46050016464AD00F
:10518000002F48D02868002845D06868002842D001
:10519000A86800283FD0E86800283CD0104602F0FC
:1051A000D4FF00283AD0D3492846FFF775FBFF22E9
:1051B000DD320021D04807F0D1F89122D200002141
:1051C000CE4807F0CBF8CC4A01211446083C1046E3
:1051D0008838626081744174167062680020E03221
:1051E00010746268FF322132D0776A46D1759075AB
:1051F00003215175107560680599FF30C130016158
:105200000F201076606806A9007802F08DFF002854
:1052100006D0012105E0032011B0F0BD0920FBE715
:1052200000216068FF30213041770A21684601760D
:10523000606806A9007802F077FF616808710621AE
:1052400068460176606806A9007802F06DFF616823
:105250004871102168460176606806A9007802F05E
:1052600063FF61680861112168460176606806A9DC
:10527000007802F059FF61684861122168460176A2
:10528000606806A9007802F04FFF61688861132109
:1052900068460176606806A9007802F045FF6168FB
:1052A000C861142168460176606806A9007802F09A
:1052B0003BFF61680862172168460176606806A9AD
:1052C000007802F031FF616820314871182168468A
:1052D0000176606806A9007802F026FF616888629E
:1052E00061680863192168460176606806A900783C
:1052F00002F01AFF61682031087361682031087577
:105300001E2168460176606806A9007802F00CFF4D
:105310006168203108761F2168460176606806A919
:10532000007802F001FF616820314876202168464C
:105330000176606806A9007802F0F6FE6168C8632D
:10534000212168460176606806A9007802F0ECFE2B
:10535000616808640B2168460176606806A90078D8
:1053600002F0E2FE644E0C21C83EB086684601762B
:10537000606806A9007802F0D7FEF0866168012017
:105380002031087161681420886061680620087304
:10539000606881688030C1676068017BFF300130E0
:1053A000017060680169FF300130416060684169E7
:1053B000FF300130816060688169FF300130C16079
:1053C0006068C169FF30013001616068016AFF30C7
:1053D0000130416160682421095CFF3001300176B1
:1053E00002F03AFF61680120E0314874C03EB764C2
:1053F000756400256570306460684149FF30813014
:1054000045646068FF30813085643046683005F05F
:105410002AFA30463B49803005F025FA30463A49B1
:10542000983005F020FA30463849F83005F01BFA7C
:1054300005F004FA6168FF318131C8643448F064D2
:10544000344870653448F065344830653448B06598
:10545000344E3548B16888476846057302956068E0
:1054600002A9007802F06AFE304804F01FFD00280F
:1054700011D12F48FFF7E6FB00280CD12D48FFF78C
:10548000E1F8002801D01320C6E660685030FFF72D
:10549000B5FC002801D01120BEE6F069804707F076
:1054A00023F96068316EE030407C8847706B80473C
:1054B0000095019578680090F86801900E481E4AA2
:1054C00024380790483808903430099031300A90D9
:1054D00060680C9001464C310B91AC3150300D910D
:1054E0000E90694607A8FFF732F80120A07000204F
:1054F00092E60000FD120008C80B002040070020C3
:10550000E964000861640008A164000849620008B9
:105510008D630008956200080D63000805640008AB
:10552000316300086CC900088C0A002011130008C0
:1055300007130008F3120008E91200080548006C80
:10554000002803D104488078012801D00120704749
:1055500000207047400A0020C00B0020F0B5044630
:105560008DB002200C900020054607900B90002C77
:105570007ED0FFF7E3FF002802D001200DB0F0BD80
:1055800000206946087501461422454806F0E6FEEB
:10559000434901201C390A910F464877203FB874CF
:1055A0002078002804D001280BD003282ED11EE03B
:1055B00001200B9078746946087DC006C00E40300B
:1055C0000BE001200B90E07B082800D308207874C2
:1055D0006946087DC006C00E8030087520790790A6
:1055E000A0680490A0890E25039065570EE0012065
:1055F0000B9078746946087DE02108436946087578
:105600006068049020890A25039065570220694646
:10561000234E08764436FF2170682D310A5C6946B6
:105620008A76007806A902F07FFD40B2A84200DB2E
:1056300005460B98002824D07068F221095C0029E7
:1056400012D169460D72FF212D310A5C69468A72BA
:105650000078052202A902F0DFFD002816D0684676
:10566000017A7068E030417605A8039B049A00E057
:105670000CE0079904F0CEFD0C90002808D0002023
:1056800038750020FBF798FC0C9877E7032075E746
:105690000A98217801777078012108437070F0E74B
:1056A0007C0B002002207047F8B500250446002836
:1056B00027D04148277841683B000A46E032164629
:1056C000C81D4036F93005F030FD351E2025282C48
:1056D0002E3071717171717171717171717171713E
:1056E0007171717171717171323436383C41444954
:1056F0004751535557595B5D5F636165686A6F6CCD
:1057000071000320F8BD107C02E0FF31C131087D3B
:1057100020714FE004F0BAFB01E004F0BBFB6060D5
:1057200048E0907CF4E7886CF9E7C86CF7E7507CB8
:10573000EEE7F07FECE71D2011E0FF311D3103C9DA
:1057400001E0886AC96AA160606033E0B16870688E
:10575000F9E7086B496BF6E71B2000E01A206A4660
:1057600010700878694602F0DFFCD8E7007ECFE7CA
:105770004068D4E78068D2E7C068D0E70069CEE728
:105780004069CCE74879C3E7507EC1E70879BFE7B5
:10579000107EBDE78031C86FC1E70078B8E7406B85
:1057A000BDE7FBF7CDFDBAE7086CB8E72046FEF78A
:1057B000DBFE05462846F8BDC00B0020F0B50025ED
:1057C00085B00446002806D0F148006C800704D557
:1057D000012005B0F0BD0320FBE7EE4E2278706893
:1057E00013000146FF31C1310491E0390F460091A9
:1057F0004037203105F099FC361C20262A303437FA
:105800003A3F494E53585D62676C71767B80858A5A
:105810008F959A9FA4A9AEB5F1B8CBF2EFEEEDEC5F
:10582000EBEAE9E8E7E6E5E4E3E2E1E0DFDEDDF12B
:10583000207904F087FE91E12079022870D0049944
:10584000087598E1606804F0F3FB02E0606804F01A
:1058500003FC002864D18EE10098217981748AE1EB
:105860006168816487E16168C16484E161680029DD
:10587000E4D0012003E061680029DFD00020FFF7B9
:105880009DFA0028DDD01120A3E761680029D5D05A
:105890000220F4E761680029D0D00320EFE76168B7
:1058A0000029CBD00420EAE761680029C6D0052092
:1058B000E5E761680029C1D00620E0E761680029BA
:1058C000BCD00720DBE761680029B7D00820D6E705
:1058D00061680029B2D07F20D1E761680029ADD08E
:1058E0008020CCE761680029A8D08120C7E76168E3
:1058F0000029A3D08220C2E7616800299ED08320BE
:10590000BDE76168002999D08420B8E76168002963
:1059100094D08520B3E7616800298FD08620AEE758
:10592000B4E06168002989D08720A8E76168002970
:1059300084D08820A3E76168002999D089209EE758
:105940006168002994D08A2099E7616800298FD086
:105950008B2094E70099207948748F49096E884715
:1059600009E12079F87706E1227A69460A717A7BA3
:105970004A710078072201A902F04EFC002886D067
:1059800070686168FF301D30A26806C0F3E0227ABB
:1059900069460A717A7B4A710078072201A902F0F0
:1059A0003BFC002872D07068A3686268C3628262A0
:1059B000E1E0D5E0CDE0C9E0C5E0BDE0B6E096E0CD
:1059C000A4E082E072E06EE06AE066E062E05EE041
:1059D00056E045E048E031E000E0D4E0227A694654
:1059E0000A717A7B4A710078072201A902F014FC3F
:1059F00000284BD070686168FF302530A26806C06F
:105A00007068F021095C022917D1FF30C130007D98
:105A1000002812D06048406B80475E48FC21A038C7
:105A200000907068FF240B58091D0A5C2934215628
:105A3000007802F05AFB00F08DFD9CE0227A694666
:105A40000A717A7B4A710078072201A902F0E4FB0F
:105A500000281BD07068A3686268436302638AE011
:105A600061680291012102E06168029100216A46A9
:105A70001173007802A902F044F900287AD07AE084
:105A80002079421E0E2A75D8087674E072E06068AC
:105A9000486070E0606888606DE06068C8606AE0D7
:105AA0006068086167E06068486164E021796A467F
:105AB00011710078062201A902F0AEFB002859D02E
:105AC000684671680079487155E0227969460A7123
:105AD0003A7B8A710078052201A902F09DFB00281B
