:020000040800F2
:1000000058040020AD010008F30D0008B30C0008EF
:10001000F10D0008ED0200082510000800000000A6
:10002000000000000000000000000000F70D0008C4
:10003000EF02000800000000F50D0008F90D0008AF
:10004000C7010008C7010008C7010008C701000870
:10005000C7010008C7010008C7010008C701000860
:10006000C7010008C7010008C7010008C701000850
:10007000C7010008C7010008C7010008C701000840
:10008000C7010008C7010008C70100080000000000
:10009000000000000000000000000000C701000890
:1000A000C7010008C7010008C7010008C701000810
:1000B000C7010008C7010008C7010008C701000800
:1000C000C7010008C7010008C7010008C7010008F0
:1000D000C7010008C7010008C701000800000000B0
:1000E000C7010008C7010008C701000800000000A0
:1000F000000000000000000000000000C701000830
:1001000000000000C7010008C7010008C70100087F
:1001100000000000000000000000000000000000DF
:10012000C7010008C7010008C7010008C70100088F
:10013000C7010008000000000000000000000000EF
:10014000000000000000000000000000C7010008DF
:10015000C7010008C7010008C7010008C70100085F
:10016000C7010008C70100080000000000000000EF
:10017000000000000000000000000000000000007F
:1001800000000000C701000800000000000000009F
:10019000C7010008C7010008DFF80CD000F094F890
:1001A00000480047FD140008580400200648804716
:1001B00006480047FEE7FEE7FEE7FEE7FEE7FEE74C
:1001C000FEE7FEE7FEE7FEE77D0E00089901000866
:1001D0002DE9F05F0546002092469B46884606467C
:1001E000814640241BE0284641464746224600F00F
:1001F0005BF853465A46C01A914110D3114618462F
:10020000224600F042F82D1A67EB01084F462246BD
:100210000120002100F039F817EB00094E41201EA3
:10022000A4F10104DFDC484631462A464346BDE8D6
:10023000F09F00000649074A0868504343F239021C
:10024000104408604008704701490860704700008A
:10025000100000206D4EC641D2B201E000F8012B23
:10026000491EFBD270470022F6E710B513460A4636
:1002700004461946FFF7F0FF204610BD421C10F857
:10028000011B0029FBD1801A7047202A04DB203A89
:1002900000FA02F1002070479140C2F1200320FAD9
:1002A00003F3194390407047202A04DB203A21FAD7
:1002B00002F00021704721FA02F3D040C2F120027F
:1002C0009140084319467047064C074D06E0E06828
:1002D00040F0010394E8070098471034AC42F6D38D
:1002E000FFF75EFF2C1500084C150008FEE770476D
:1002F0007047000070B5044600F0D8F80546601C51
:1003000002D004480078044400F0D0F8401BA0421A
:10031000FAD370BD000000202DE9F84F00224FF005
:10032000010803254FF00F0E0B6808FA02F4234072
:10033000A34271D14E68012E05D0022E03D0112E9A
:1003400001D0122E15D18668570005FA07FC26EA5F
:100350000C06D1F80CC00CFA07FC4CEA060CC0F8ED
:1003600008C04668A6430C79C4F300149440344393
:100370004460C668570005FA07FC8C6826EA0C063C
:10038000BC403443C4604C68022C01D0122C13D101
:10039000D40800EB8404A346D4F8209054074FEA15
:1003A000D46A0EFA0AF629EA06090E6906FA0AF66E
:1003B00046EA0906CBF8206004680E7924EA0C04AA
:1003C00006F00306BE40264306604C68E40056D59E
:1003D0002E4C266846F480462660246822F00306E8
:1003E00004F4804400942A4C3444A446D4F80848C9
:1003F0009607370F0EFA07F6B443264EB04201D1E6
:10040000002615E0244EB04201D1012610E0234E13
:10041000B04202D102260BE031E0214EB04201D1C0
:10042000032605E01F4EB04201D1042600E0072656
:10043000BE402643CCF808681B4E34684F689C4386
:10044000FF0300D51C433460174E361D34684F68D7
:100450009C43BF0300D51C433460134E08363468F8
:100460004F689C43FF0200D51C4334600E4E0C368F
:1004700034684F689C43BF0200D51C433460521C53
:10048000102AFFF451AFBDE8F88F00004438024055
:100490000030014000000240000402400008024019
:1004A000000C024000100240003C014001488068FE
:1004B0007047000000000020024881680278114463
:1004C00081607047000000200B4810B5016841F4BE
:1004D00000710160016841F480610160016841F4CC
:1004E00080710160032000F061F8002000F006F840
:1004F00000F024F8002010BD003C024070B50D4D06
:1005000004464FF47A712878B1FBF0F00A49096883
:10051000B1FBF0F000F0F6FA48B9102C07D2002237
:100520002146501E00F022F800206C6070BD0120B2
:1005300070BD0000000000200C0000200A4808B533
:10054000016841F480410160006800F4804000903F
:100550000548001F016841F080510160006800F00B
:100560008050009008BD000044380240F0B40E4BAB
:100570001B680C46C3F30223C3F10705042D00D901
:100580000425191D072901D2002300E0DB1E0126E6
:1005900006FA05F1491E214099409E40761E1640FC
:1005A0003143F0BC00F054BD0CED00E0064900F012
:1005B000070208684FF6FF03184040EA0220034A8A
:1005C00010430860704700000CED00E00000FA05E1
:1005D0002DE9F0470E46050065D0DFF81481D8F804
:1005E0000000F7B200F00F00B04207D288F80070A8
:1005F000D8F8000000F00F00B04254D128683D4CFC
:10060000810712D5400703D5206840F4E0502060F0
:100610002878000703D5206840F4604020602068F7
:10062000A96820F0F000084320602878C0072DD08A
:10063000304968680839012812D0022813D00328ED
:1006400011D00968890700292DDA216821F00301FA
:1006500001432160FFF72AFF814641F2883A0EE00C
:1006600009688903EFE709688901ECE7FFF71EFFD6
:10067000A0EB0901514502D90320BDE8F0872068AD
:10068000696800F00C00B0EB810FEFD1D8F80010D2
:10069000404601F00F01B14207D90770006800F031
:1006A0000F00B04201D00120E7E72878400705D5C8
:1006B0002068E96820F4E0500843206028780007AB
:1006C00006D52068296920F4604040EAC100206016
:1006D00000F038F82168084AC1F30311515CC840A2
:1006E0000649086006480068FFF708FF0020C4E7D5
:1006F000003C024008380240121500080C0000209F
:10070000040000200448054900680968044AC1F350
:100710008221515CC84070470C000020083802401C
:10072000221500080448054900680968044AC1F315
:100730004231515CC84070470C000020083802402C
:1007400022150008154810B5006810F00C02144876
:1007500013D01449042A0FD0082A0ED10F4C241F9D
:100760002268236802F03F025B0207D52068C0F3CD
:100770008810A0FB010106E0084610BD2168C1F306
:100780008811A1FB00010023FFF722FD2168C1F3BE
:100790000141491C4900B0FBF1F010BD083802408E
:1007A0000024F40040787D012DE9F84F040076D054
:1007B0002078DFF838A3CE4DC00749D0DAF8001012
:1007C0005046C1F38101012908D00068C0F38100BF
:1007D00002280AD1281D0068400206D52868800337
:1007E00036D560680028E2D032E06068B0F5803F1E
:1007F00010D0B0F5A02F286810D020F480302860E9
:10080000286820F4802028606068A0B1FFF74EFEC1
:1008100006460CE0286840F48030F4E740F480207D
:100820002860F7E7FFF742FE801B642873D828682A
:100830008003F7D50CE0FFF739FE064605E000BF60
:10084000FFF734FE801B6428F0D828688003F7D4B3
:100850002078DFF8A08280074FF000093ED5DAF853
:100860000010504611F00C0F09D00068C0F3810051
:1008700002280BD19D48001F0068400206D428685A
:10088000800715D5E068012809D111E0E068B8B10A
:100890000120C8F80000FFF709FE064605E020E148
:1008A000FFF704FE801B0228C0D828688007F7D510
:1008B0002868216920F0F80040EAC10028600DE0B6
:1008C000C8F80090FFF7F2FD064604E0FFF7EEFDE2
:1008D000801B02281FD828688007F7D420780007DB
:1008E00022D5824E844861696C3671B10121016064
:1008F000FFF7DCFD074604E0FFF7D8FDC01B022828
:1009000009D830688007F7D50EE0C0F80090FFF7EF
:10091000CDFD074605E082E0FFF7C8FDC01B0228B9
:100920007DD830688007F7D42078400768D5DFF895
:10093000BCB100270BF1380BDBF80000C0000BD472
:10094000DBF8001041F08051CBF80010DBF800001C
:10095000012700F080500090684E3068C00510D428
:10096000306840F480703060FFF7A0FD009005E033
:10097000FFF79CFD0099401A022850D83068C00546
:10098000F6D55A4EA068683601280FD00528306881
:1009900010D020F001003060306820F0040030609A
:1009A000A068B8B1FFF782FD00900FE0306840F01A
:1009B0000100F4E740F004003060F7E7FFF776FD50
:1009C0000099411A41F28830814266D83068800728
:1009D000F4D50EE0FFF76AFD009007E0FFF766FD33
:1009E0000099411A41F28830814256D83068800718
:1009F000F4D42FB1DBF8001021F08051CBF80010B7
:100A0000A069D0B3DAF800205146C2F38102022A6D
:100A10004AD00228484607D0C8F8600000E03CE011
:100A2000FFF744FD04463BE04746C8F86000FFF787
:100A30003DFD064605E000BFFFF738FD801B02289C
:100A40002BD828688001F7D4D4E907010843A16AAC
:100A50002B4A490802EB0141626A41EA82110843CC
:100A600094F82C1040EA01612048001F0160012029
:100A70003866FFF71BFD044605E034E0FFF716FD7E
:100A8000001B022809D828688001F7D52BE000BF99
:100A9000FFF70CFD001B022802D90320BDE8F88FE8
:100AA00028688001F4D41EE00128F7D00868E269C4
:100AB00000F48001914214D1226A00F03F0191427A
:100AC0000FD147F6C071626A0140914209D1A26A12
:100AD00000F44031914204D1E16A00F07060884234
:100AE00001D00120DAE70020D8E7000008380240F2
:100AF0000038024000004742800E4742007000402C
:100B00000000FFFF10B5401EB0F1807F01D301202F
:100B100010BD4FF0E02460610F21601700F098FADB
:100B20000020A06107202061002010BD70B50400E6
:100B300004D094F83900002510B106E0012070BD02
:100B400084F83850204600F023F8242084F8390037
:100B50002068C16821F40051C160204600F09CF972
:100B60002068016921F4904101612068416921F008
:100B70002A0141612068C16841F40051C160E56308
:100B8000202084F8390084F83A00002070BD00006D
:100B900010B586B0044614216846FFF764FB13497C
:100BA0002068884220D11248016841F40031016078
:100BB000006800F4003005900D481038016841F0DD
:100BC000010101600068694600F0010005900C20F9
:100BD0000090022001900120029003200390072042
:100BE00004900448FFF798FB06B010BD0044004095
:100BF00040380240000002402DE9F843044690F8D6
:100C000039001F4616460D46202850D1B5B1AEB169
:100C100094F8380001284AD0012084F838004FF0B9
:100C20000008C4F83C80212084F83900FFF73EFC1E
:100C3000A6848146E68484F8388026E00120BDE859
:100C4000F883E08C401EE084A0684B46B0F5805FDE
:100C50004FF000024FF080012046009703D000F0D3
:100C6000AFF9E8B90DE000F0ABF9C8B92888216800
:100C7000C0F308004860206908B16D1C05E0AD1C98
:100C800003E0216815F8010B4860E08C0028D8D1FA
:100C90004B46002240212046009700F091F908B110
:100CA0000320CCE7202084F839000020C7E7022089
:100CB000C5E7FEE7054808B5016841F0010101609C
:100CC000006800F00100009008BD000030380240CC
:100CD0000C4810B50A4901604FF4E1314160002130
:100CE00081600C22C160C0E904128161C161FFF71B
:100CF0001DFF002803D0BDE81040FFF7F9BA10BD72
:100D000000440040140000202DE9F04F00259DB064
:100D1000FF244FF0640B00BFFFF78CFA90FBF4F157
:100D200004FB110AFFF786FA90FBF4F104FB1109AA
:100D3000FFF780FA90FBF4F104FB1108FFF77AFA51
:100D400090FBF4F104FB1107FFF774FA90FBF4F148
:100D500004FB1106FFF76EFA90FBF4F104FB11029D
:100D60008DE88007334614A104A800F05DF9FFF771
:100D700061FA90FBFBF20BFB1200424218A104A89F
:100D800000F052F96D1C062DC6DB1848006801689A
:100D9000C9434906FBD404A8FFF770FA82B24FF4A6
:100DA0007A74234604A91148FFF726FF2046FFF76F
:100DB000A1FA1DB0BDE8F08F4D41433A307825309F
:100DC00032783A253032783A253032783A25303246
:100DD000783A253032783A25303278202C200000BD
:100DE000525353493A25640A0D00000014000020B4
:100DF000FEE7704770477047FFF75EBB30B593B0B2
:100E000030216846FFF72FFA14210CA8FFF72BFAC0
:100E100018480025016841F080510160006800F029
:100E2000805011901448016841F44041016000680D
:100E3000022400F4404011900120039010200490FF
:100E4000009406940820CDE907506420CDE90904F8
:100E500004200B906846FFF7A7FC0CA90F2081E83F
:100E60003100E002CDE90F0503210CA8FFF7B0FB2C
:100E700013B030BD403802400070004005480168A2
:100E800041F47001016003494FF00060803908604F
:100E90007047000088ED00E02DE9F041044600684D
:100EA0000169E26821F44051114301612169A068A0
:100EB000E26908436169114308432168CA6849F23D
:100EC0000C639A430243CA6020684169A26921F415
:100ED000407111434161E069192764253226B0F55C
:100EE000004F354A354920684FF0000806D0884247
:100EF00001D0904236D1FFF715FC35E0884201D091
:100F0000904202D1FFF70EFC01E0FFF7FBFB6168A6
:100F10004A18A0FB070148EB0803FFF759F90146FF
:100F2000B0FBF5F00201B1FBF5F06FF01803584388
:100F300001EB800006EBC000B0FBF5F000F0F8001C
:100F400002EB4002B1FBF5F0584301EB800006EBE9
:100F5000C000B0FBF5F000F0070021681044886085
:100F6000BDE8F081FFF7CEFB61688B0F8A00A0FB24
:100F70000701FFF72DF90146B0FBF5F06FF01802FD
:100F8000504301EB800006EB0010B0FBF5F000F0E1
:100F9000F002B1FBF5F002EB0012B1FBF5F06FF0DF
:100FA0001803584301EB800006EB0010B0FBF5F08E
:100FB00000F00F00D1E700000014014000100140D4
:100FC0002DE9F041984617460E460446069D1DE061
:100FD000681C1BD02DB1FFF769FAA0EB0800A842EE
:100FE00014D92068C16821F4D071C16020684169BA
:100FF00021F001014161202084F8390084F83A0091
:10100000002084F838000320BDE8F08120680068E3
:1010100036EA000004D00020B842D9D00020F3E71F
:101020000120F9E7FEE700000FB4084B10B504A952
:1010300002AA039800F02CF8044602A9002000F050
:1010400058FA204610BC5DF814FB0000F3140008A9
:101050000907090E002804DB00F1E02080F80014E5
:10106000704700F00F0000F1E02080F8141D704779
:1010700002E008C8121F08C1002AFAD17047704761
:10108000002001E001C1121F002AFBD170470000BF
:101090002DE9FF4F8DB00F460546002606E02528B6
:1010A0000BD0DDE90F1290476D1C761C28780028C4
:1010B000F5D111B03046BDE8F08F0024A246A1461C
:1010C0000122EC4900E0044315F8013F203B02FAFD
:1010D00003F00842F7D128782A2810D06FF02F02A9
:1010E0002878A0F13001092914D80AEB8A0102EB13
:1010F000410144F0020400EB010A6D1CF0E701CF4E
:101100005FEA000A03D544F40054CAF1000A44F02F
:1011100002046D1C28782E2817D115F8010F44F011
:1011200004042A280ED06FF02F022878A0F1300195
:1011300009290AD809EB890102EB410100EB0109F9
:101140006D1CF2E757F8049B6D1C28786C280FD0B3
:1011500006DC4C2817D068280DD06A2814D104E08A
:10116000742810D07A280FD10DE044F400140AE05E
:1011700044F4801401E044F440146978814202D1BF
:1011800004F580146D1C6D1C2A786E2A1FD00CDCAF
:10119000632A31D004DC002A8BD0582A11D1A3E075
:1011A000642A68D0692A0CD165E0732A2ED004DC49
:1011B0006F2A73D0702A04D19BE0752A6FD0782AE9
:1011C0006ED01046DDE90F129047761C50E1C4F353
:1011D0000250022806D0032809D0042801CF09D0E4
:1011E000066045E101CFF117C0E9006140E101CFA0
:1011F00006803DE106703BE117F8040B8DF8000016
:1012000000208DF80100EB46012003E057F804BBF5
:101210004FF0FF3061074FF0000102D40DE008F1FC
:101220000101884649450FDA8045F8DB1BF80810B4
:101230000029F4D108E008F1010188468142FADB77
:101240001BF808100029F6D1DDE90F23AAEB0800EE
:101250008146214600F036F9304400EB080604E0F0
:10126000DDE90F121BF8010B9047B8F10108F7D226
:1012700021464846F7E00A21C4F302534FF0000B21
:101280000891022B04D001CFC117032B09D00AE02B
:10129000FF1D27F00707F7E8020108E032E01FE032
:1012A00020E000B2C117042B01D140B2C117031EC8
:1012B00071F1000307DA4FF0000CD0EB0C006CEB7F
:1012C00001012D2302E0230504D52B238DF82430C2
:1012D000012303E0E30701D02023F7E7984658E015
:1012E0000A2110E010210EE010204FF0000B0890B2
:1012F0000CE010214FF0000B44F004044FF00809FB
:10130000089103E008214FF0000B0891C4F3025349
:10131000022B04D001CF0021032B06D006E0FF1DD5
:1013200027F00707F7E8020103E080B2042B00D1A1
:10133000C0B24FF0000823072BD5702A07D0DDF884
:1013400020C08CF0100C5CEA0B0C05D00EE04023A2
:101350008DF82430012308E050EA010306D0302341
:101360008DF824308DF8252002239846DDF820C022
:101370008CF0080C5CEA0B0C0BD150EA010301D194
:10138000630706D530238DF824304FF00108A9F10A
:101390000109582A04D038A20B9208AA0A920BE03D
:1013A0003AA2F9E75B46089AFEF712FF0B9B9B5C9B
:1013B0000A9A521E0A92137050EA0102F2D10A9858
:1013C000ADEB000000F1200B600702D524F480345F
:1013D00001E04FF00109D94502DDA9EB0B0000E067
:1013E000002000EB0B0141440890AAEB010AE00346
:1013F00006D4DDE90F232146504600F063F8064489
:101400004FF0000908E009A911F80900DDE90F1201
:10141000904709F10109761CC145F4DBE0030CD5C6
:10142000DDE90F232146504600F04CF8064404E065
:10143000DDE90F1230209047761C0899481E08906D
:101440000029F5DC08E00A980A990078491C0A91FD
:10145000DDE90F129047761CBBF10001ABF1010BE7
:10146000F1DC21465046DDE90F2300F019F806446F
:101470006D1C1BE609280100303132333435363714
:1014800038396162636465660000000030313233D0
:101490003435363738394142434445460000000070
:1014A0002DE9F041044600251E461746880404D461
:1014B00005E039462020B0476D1C641EF9D528464A
:1014C000BDE8F0812DE9F041044600251E46904616
:1014D000C80301D5302700E02027880404D505E0A3
:1014E00041463846B0476D1C641EF9D52846BDE814
:1014F000F0810A68531C0B6010707047FEF7E4FF20
:10150000FFF77CFCFFF7D6FBFFF7E2FBFFF7FCFBE6
:10151000FCE70000000000000000010203040607D1
:101520000809000000000102030400004C15000837
:101530000000002014000000701000086015000872
:101540001400002044040000801000080100000086
:1015500010000000000000000024F4000000000063
:040000050800019955
:00000001FF
