:020000022000DC
:1070000000000420757302005D7302005F730200CC
:1070100061730200637302006573020000000000E8
:107020000000000000000000000000006773020084
:1070300069730200000000006B7302006D730200B0
:1070400075B502006F73020049BB02006F73020046
:107050006F7302006F73020041BA0200FDDB020091
:107060006F7302006F7302006F7302006F73020090
:107070006F73020081BF02006F7302006F73020022
:107080006F7302005D7902006F7302006F7302007C
:107090006F7302006F730200C16403006F7302001C
:1070A0006F7302006F7302006F7302006F73020050
:1070B0006F7302006F730200000000000000000008
:1070C0006F7302006F7302006F7302006F73020030
:1070D0006F7302006F7302006F7302006F73020020
:1070E0006F7302006F730200197E0300000000003E
:1070F000000000006F730200000000006F730200C8
:10710000000000000000000000000000000000007F
:10711000000000000000000000000000000000006F
:10712000000000000000000000000000000000005F
:10713000000000000000000000000000000000004F
:10714000000000000000000000000000000000003F
:10715000000000000000000000000000000000002F
:10716000000000000000000000000000000000001F
:10717000000000000000000000000000000000000F
:1071800000000000000000000000000000000000FF
:1071900000000000000000000000000000000000EF
:1071A00000000000000000000000000000000000DF
:1071B00000000000000000000000000000000000CF
:1071C00000000000000000000000000000000000BF
:1071D00000000000000000000000000000000000AF
:1071E000000000000000000000000000000000009F
:1071F000000000000000000000000000000000008F
:10720000354936480A1A02D0072291438D4634493F
:1072100034480A1A06D00722914381F309880222D2
:1072200082F3148830483149314A00F044F831483B
:107230003149324A00F03FF831483249324A00F0D1
:107240003AF832483249334A00F035F83248334987
:10725000334A00F030F833483349344A00F02BF811
:1072600033483449344A00F026F83448344900227F
:1072700000F02CF833483449002200F027F8334856
:107280003349091A082902DB002202604160314AB1
:1072900090471F481F49884205D00268043003B454
:1072A000904703BCF7E700208646EC46002000210B
:1072B000294A9047FEE7884207D0521A05D0037842
:1072C00001300B700131013AF9D17047884202D088
:1072D00002700130FAE770470000042000E003204C
:1072E0000000042000000420FCCD03003C2B002003
:1072F000BC2B0020D0730200D0730200F084030086
:10730000FCCD03003C2B00203C2B0020BC8603005E
:10731000BC860300BC860300BC860300BC86030059
:10732000BC860300BC860300BC860300F9CD0300C5
:107330007CCE0300BC2B0020BC2B0020BC2B0020EB
:10734000D0570020D0570020D0570020D057002021
:10735000D07700209D73020075FB0200FEE7FEE778
:10736000FEE7FEE7FEE7FEE7FEE7FEE7FEE7FEE7F5
:1073700000F002B8FFF7FCBF0F484FF00701884349
:1073800085460E4880470E48016841F4700101604F
:10739000BFF34F8FBFF36F8FFFF732BF09480A4922
:1073A0000A4A884207D0521A05D0037801300B7080
:1073B0000131013AF9D1704700000420C9FE0200F2
:1073C00088ED00E0A8860300282B00203C2B00203D
:1073D00084B001900B468DF8033013468DF80230CF
:1073E00000230393019B032B3CD89DF80230012B13
:1073F0000BD19DF80330012B04D1019BDBB20E337E
:10740000DBB200E000238DF802309DF80330022B40
:107410000FD0022B23DC002B16D0012B1FD11449D7
:10742000019A13465B0013440B449DF802201A7026
:107430001AE00F49019A13465B0013440B440133D1
:107440009DF802201A700FE00949019A13465B006B
:1074500013440B4402339DF802201A7004E0072302
:10746000039301E007230393039B184604B070477E
:10747000BC2B002000B583B0012200210020FFF7C3
:10748000A7FF0190019B002B04D0019B072B01D08B
:10749000019B1CE0072202210120FFF799FF0190C8
:1074A000019B002B04D0019B072B01D0019B0EE018
:1074B000042202210020FFF78BFF0190019B002B8B
:1074C00004D0019B072B01D0019B00E0002318464C
:1074D00003B05DF804FB00B583B001220221002057
:1074E000FFF776FF0190019B002B04D0019B072B37
:1074F00001D0019B1CE0072202210120FFF768FF59
:107500000190019B002B04D0019B072B01D0019B14
:107510000EE00A2200210020FFF75AFF0190019B94
:10752000002B04D0019B072B01D0019B00E000231E
:10753000184603B05DF804FB00B585B001900091DA
:10754000019B1B88102B02D0112B18D02FE01A4B57
:107550001B68002B0DD1FFF78DFF0390039B002BC1
:1075600007D0164B1B68002B03D0144B1B680398E5
:107570009847114B1B6801330F4A136017E00E4BFD
:107580001B68013B0C4A13600B4B1B68002B0DD191
:10759000FFF7A1FF0390039B002B07D0074B1B684D
:1075A000002B03D0054B1B680398984700BF00BF12
:1075B00005B05DF804FB00BFCC2B0020C82B0020D9
:1075C00086B003900291019201238DF817309DF847
:1075D0001730204A039B13601E4A029B53601D4ACA
:1075E000019B9360039B44F20102934212D0039BE0
:1075F00044F20202934220D1019B164AD360154BFC
:10760000DB681B68134A9361124BDB685B68114AA5
:10761000D36112E0019B0F4A13610E4B1B699B68FB
:107620000C4A53610B4B1B691B680A4A9361094B57
:107630001B695B68074AD36100BF72B600BF00BF19
:107640009DF81730DBB2002BFAD162B600BF00BF45
:1076500006B07047D02B002000B583B00290009197
:10766000019244F2010071466A4600F003F803B04B
:1076700000BD00BF30B58BB007900691059272B681
:1076800000BF07F065FD00BF07F020FB0346002B9D
:10769000FAD1079B44F2020293422FD0079B44F297
:1076A0000202934269D8079B44F20102934237D009
:1076B000079B44F2010293425FD8079B012B05D040
:1076C000079B41F2010293420CD056E0394A3A4BF3
:1076D000D31ADB081B0443F001033849184607F0AE
:1076E00067FA57E0334A344BD31ADB081B0443F0E4
:1076F00001033349184607F05BFA4BE0059B0993F9
:107700002C4A2D4BD31ADB081B0443F00100099BC4
:107710005B681A46099B1B682A4907F068FA39E03A
:10772000059B0893234A244BD31ADB081B0443F020
:107730000104089B9D68089B9B68184603F0ACFAFF
:1077400003461846089B5B681946089B1B68069A07
:1077500002920193009103462A461B49204607F0F6
:1077600070FA144A144BD31ADB081B0443F00103CC
:107770001649184607F01CFA0CE00E4A0E4BD31AB5
:10778000DB081B0443F00103069A1149184607F071
:107790001DFA00BF0F4B1B6803F00103002B00D044
:1077A00000BE059A06990798FFF70AFF00BF0BB0C5
:1077B00030BD00BF6C850300348503003C870300A7
:1077C0005C870300808703009C870300C487030055
:1077D000D8870300F0ED00E082B0EFF31083009350
:1077E000009B019372B600BF019B184602B0704720
:1077F00062B600BF00BF704700B585B00190FFF7CB
:10780000EBFF0390164B9B68002B1BD1144B0122FE
:107810009A60144BD3F88020134B1340104A136026
:10782000104B114AC3F880200E4BD3F884300C4A19
:1078300053600C4B4FF0FF32C3F88420019B0022B1
:107840001A7002E0019B01221A70039B002B01D1E8
:10785000FFF7CEFF0023184605B05DF804FB00BF1C
:10786000F02B002000E100E0FC06FFBD00B585B074
:1078700003468DF80730104B9B68002B16D09DF8FF
:107880000730002B12D1FFF7A7FF03900B4A0A4BDA
:107890001B681360094A084B5B685360064B002263
:1078A0009A60039B002B01D1FFF7A2FF002318462B
:1078B00005B05DF804FB00BFF02B002000E100E004
:1078C00000B583B0019000F02BF80346012B03D0E4
:1078D0000549432001F0AAFB0198FFF78DFF00BF87
:1078E00003B05DF804FB00BF7488030000B583B0EB
:1078F00003468DF8073000F013F80346012B03D040
:107900000649512001F092FB9DF807301846FFF719
:10791000ADFF00BF03B05DF804FB00BF7488030037
:1079200084B0EFF305830193019BC3F30803039332
:10793000039B002B0DD1EFF314830093009B029364
:10794000029B03F00103002B0CBF01230023DBB2D9
:1079500000E00123184604B07047000008B5044B4E
:107960001B68044A12681046984700BF08BD00BF54
:10797000FC2B0020002C002082B00190019B03F022
:107980000303002B0CBF01230023DBB2184602B017
:107990007047000000B585B00190002303930EE00E
:1079A0000B4A039B52F82330002B05D0084A039B57
:1079B00052F8233001989847039B01330393039BAC
:1079C000032BEDD900BF00BF05B05DF804FB00BF7D
:1079D000142C002082B001900091019B1B78013B88
:1079E000052B61D801A252F823F000BF057A0200EE
:1079F0000D7A0200337A0200657A0200857A02006D
:107A0000A17A0200009B00221A704EE0009B012226
:107A10001A70019B1A89009B9A81019B9A88009B8E
:107A2000DA81019BDA68009B9A60009B00221A743D
:107A30003BE0009B02221A70019B1A89009B9A81ED
:107A4000019B9A88009BDA81019BDA68009B9A600F
:107A5000019B9B7D062B0CBF01230023DAB2009B08
:107A60001A7422E0009B03221A70019BDA88009BA3
:107A70009A81019B1A89009BDA81019BDA68009B3D
:107A80009A6012E0009B04221A70019BDA88009B26
:107A90009A81009B0022DA81009B00229A6004E018
:107AA000009B05221A7000E000BF00BF02B07047C3
:107AB00084B001900091019B0393039A009B9A422A
:107AC00006D2039B1B68B3F1FF3F01D0012300E006
:107AD000002303F00103DBB2184604B0704782B004
:107AE0000190019B5B8803339B00019A1344184665
:107AF00002B0704700B583B0019000910198FFF784
:107B0000EEFF0246009B934201D2022311E0019B4B
:107B10009B884FF6FF72934208D0019B1B88002B75
:107B200004D0019B9B68B3F1FF3F01D1012300E02A
:107B30000023184603B05DF804FB000000B583B0D5
:107B40000190019B002B13D00D4BDB681A46019B63
:107B500093420DD30A4B1B691A46019B934207D8E7
:107B60000198FFF709FF0346002B01D0012300E035
:107B7000002303F00103DBB2184603B05DF804FBF9
:107B8000282B002082B003460A46ADF80630134683
:107B9000ADF80430BDF80620134913469B0013448A
:107BA0009B000B4408331A88BDF804301344ADF829
:107BB0000430BDF806200C4913469B0013449B007B
:107BC0000B440A331A88BDF804301344ADF804306E
:107BD000BDF80430B3F5806F94BF01230023DBB2FE
:107BE000184602B0704700BF382C002084B00190C6
:107BF000009148F2096303930023ADF80A3027E0AF
:107C0000BDF80A20164913469B0013449B000B4401
:107C100004331B68009A9A4215D9BDF80A2010490E
:107C200013469B0013449B000B4404331B6803F56D
:107C30008053009A9A4206D200230393019BBDF819
:107C40000A201A8008E0BDF80A300133ADF80A3086
:107C5000BDF80A30012BD3D9039B184604B07047F6
:107C6000382C002082B001900091009B9B7D022B5C
:107C700009D9019B1A89009BDB8813449BB203330B
:107C80009AB2019B1A81019B5A89009BDB88D31A07
:107C90009BB2033B9AB2019B5A8100BF02B070476E
:107CA00000B583B0074B1B681946002300930823D7
:107CB000054A064802F01EF90346184603B05DF86F
:107CC00004FB00BF602C00205C890300282B0020EF
:107CD00000B585B003900399002300930823044A5C
:107CE000044802F007F90346184605B05DF804FBA6
:107CF00064890300282B002000B585B0034600915D
:107D0000ADF8063000238DF80F30BDF80630033390
:107D1000ADF80A30BDF80A3040F2FE32934202D983
:107D200048F208634BE00023ADF80C303BE0BDF8AF
:107D30000C20254913469B0013449B000B441B78E1
:107D4000002B2BD1BDF80A20BDF80C301146184687
:107D5000FFF718FF0346002B20D001238DF80F30CA
:107D6000009BBDF80C201A80BDF80C201649134664
:107D70009B0013449B000B440A331988BDF80C2068
:107D8000BDF80A300B4498B20F4913469B001344C8
:107D90009B000B440A3302461A8008E0BDF80C3001
:107DA0000133ADF80C30BDF80C30012BBFD99DF874
:107DB0000F30002B01D0002301E048F20663184683
:107DC00005B05DF804FB00BF382C002082B00346EC
:107DD0000A46ADF806301346ADF80430BDF804206D
:107DE0000D4913469B0013449B000B440A331A8829
:107DF000BDF80630D31A9BB2BDF80420033B98B2FD
:107E0000054913469B0013449B000B440A3302466A
:107E10001A8000BF02B07047382C002008B501213D
:107E2000024801F043FB0346184608BD242C0020FD
:107E300000B585B003460091ADF80630BDF80620C8
:107E4000244913469B0013449B000B4404331B68D6
:107E500003F580530293009B1B680393039B002B45
:107E600004D00398FFF73BFE039026E0BDF8062000
:107E7000184913469B0013449B000B4404331B68B2
:107E80000833039319E002990398FFF733FE034682
:107E9000022B10D0022B10DC002B02D0012B05D0BE
:107EA0000BE0009B039A1A6001230EE00398FFF792
:107EB00016FE039001E0002307E002990398FFF704
:107EC000F7FD0346002BDED10023184605B05DF810
:107ED00004FB00BF382C002000B585B00190009154
:107EE000019B5B681846FFF729FE0346002B19D05B
:107EF000019B1A89244B1B899A4213D1019B1A6852
:107F0000019B5B689B689A420CD1019B5B68194698
:107F10000098FFF76BFE0346002B0CBF01230023E4
:107F2000DBB22CE0009B00221A8023E000230293A6
:107F300010E0029B0393039B9A68019B1B689A4283
:107F400008D1029A019B5A600F4B1A89019B1A8132
:107F5000012314E0009B1B8802AA11461846FFF774
:107F600067FF0346002BE4D1009B1B8801339AB2C4
:107F7000009B1A80009B1B88012BD7D90023184631
:107F800005B05DF804FB00BF682C002000B587B089
:107F90000390029101920093324B1B78DBB283F085
:107FA0000103DBB2002B02D048F2016355E0019BD4
:107FB000002B02D0009B002B49D148F204634CE017
:107FC000009B9B881946284A0B469B000B449B004C
:107FD00013441B78002B33D124E0009B1B680593CE
:107FE000039B002B06D0059B9A88039B1B889A4213
:107FF00000D017E0029B002B06D0059B1A88029B3D
:108000001B889A4200D00DE0059B9A68019B1A607C
:10801000009B1A68019B5A60144B1A89019B1A81B4
:1080200000231AE0009B9B88009A11461846FFF730
:10803000FFFE0346002BD0D1009B00221A6000E017
:1080400000BF009B9B8801339AB2009B9A80009BE3
:108050009B88012BB4D948F20963184607B05DF834
:1080600004FB00BF082C0020382C0020682C0020C6
:1080700000B585B00190084B0199184601F061F8F0
:1080800003901C22002103980EF0CDFD039B18469F
:1080900005B05DF804FB00BF282C002000B583B0BC
:1080A0000190044B0199184601F064F800BF03B039
:1080B0005DF804FB282C002000B583B00190054B2F
:1080C0000199184601F06AF80346184603B05DF8B6
:1080D00004FB00BF282C002000B583B00190044BA6
:1080E0000199184601F073F800BF03B05DF804FB76
:1080F000282C002008B50A4B1B68002B04D1094925
:108100004FF4247000F092FF0121054801F0E6F9D8
:108110000346002B14BF01230023DBB2184608BD21
:10812000102C0020F088030000B587B00390029166
:10813000039B02229A750299039B1A1D0023009348
:108140000423074801F0D6FE0590059B002B01D1C2
:10815000002301E048F20D63184607B05DF804FB08
:10816000282B002000B587B003900291039B1B6968
:10817000002B01D0032200E00122039B9A75029B91
:1081800008331946039B03F10C02002300930423D8
:10819000074801F0AFFE0590059B002B01D100239D
:1081A00001E048F20D63184607B05DF804FB00BF1C
:1081B000282B002000B587B003900291039B1B7809
:1081C000032B01D1052200E00622039B9A75029B36
:1081D00004331946039B03F1080200230093042390
:1081E000074801F087FE0590059B002B01D1002375
:1081F00001E048F20D63184607B05DF804FB00BFCC
:10820000282B002000B587B003900B46ADF80A304C
:1082100003990023009304230D4A0E4801F06AFEDF
:108220000590059B002B02D048F20D630BE0BDF8D2
:108230000A20094913469B0013449B000B4410334A
:1082400001221A700023184607B05DF804FB00BF36
:108250006C890300282B0020382C002000B589B041
:10826000019002AB00221A605A609A60019BDB68A1
:1082700002930DF1160202AB11461846FFF72CFED1
:108280000346002B12D0039B0693069B9A88019B02
:10829000DA80069B1A88019B1A81039BBDF8162081
:1082A00011461846FFF7AEFF079002E048F2096357
:1082B0000793079B184609B05DF804FB00B587B02B
:1082C0000190019B981D02AA0D4B0021FFF75EFE55
:1082D0000590059B002B08D1039B094A9288114603
:1082E0001846FFF78FFF059004E00822002104489C
:1082F0000EF099FC059B184607B05DF804FB00BF23
:10830000782C002000B587B003900291039B0122D6
:108310009A75029B0C331846039B1A69039BDB88F2
:108320009B00002100910146074801F0E3FD059004
:10833000059B002B01D1002301E048F20D63184694
:1083400007B05DF804FB00BF282B002082B0184B5B
:108350001B8901339AB2164B1A81154B00225A80A1
:10836000134B00221A730023ADF8063018E0BDF855
:108370000620104913469B0013449B000B441A78B7
:10838000BDF80630002A0CBF01220022D1B2084AF3
:1083900013440A469A72BDF806300133ADF8063030
:1083A000BDF80630012BE2D900BF00BF02B0704714
:1083B000682C0020382C002084B0019000238DF818
:1083C0000F300023ADF80C3031E0BDF80C301C4A02
:1083D00013449B7A002B25D0BDF80C30184A134467
:1083E00000229A72BDF80C20164913469B001344D4
:1083F0009B000B440C331B68002B13D1BDF80C20E1
:10840000104913469B0013449B000B4410331B7808
:10841000002B07D0019BBDF80C201A8001238DF89A
:108420000F3008E0BDF80C300133ADF80C30BDF86A
:108430000C30012BC9D99DF80F30184604B0704795
:10844000682C0020382C002008B5084B05221A7033
:10845000074B02229A80064B1B6819460023012213
:10846000044801F029FE0346184608BD682C002088
:10847000602C0020282B002000B583B0164B5B88B1
:10848000ADF80230BDF80220144913469B00134496
:108490009B000B440C331B68002B14D10E4B0422A1
:1084A0001A70BDF802200D4913469B0013449B002F
:1084B0000B4404331B68194600230122084801F0CD
:1084C000FBFD019002E0FFF7BFFF0190019B184602
:1084D00003B05DF804FB00BF682C0020382C00209E
:1084E000282B002000B587B0104B5B680593104B1C
:1084F0001A680F4B9B889B0013440493059B5B8871
:108500000333ADF80E30094B03221A700499074B60
:108510005A68BDF80E309B0000200090054801F01D
:10852000E9FC0346184607B05DF804FB682C002000
:10853000602C0020282B002000B583B00A4B5B88FC
:108540000A491846FFF774FC0346002B03D0FFF7D7
:10855000C9FF019002E0FFF78FFF0190019B1846D1
:1085600003B05DF804FB00BF682C00206C2C0020D9
:1085700008B50A4B06221A70084B5B881946084A50
:108580000B469B000B449B00134404331B681846A6
:10859000FFF79EFB0346184608BD00BF682C00206D
:1085A000382C002008B5054B07221A70034B002217
:1085B0005A60FFF775FB0346184608BD682C00207B
:1085C00008B50D48FFF7F8FE034683F00103DBB260
:1085D000002B0BD0094B00221A70084B00225A8046
:1085E000064B00225A6041F61D5302E0FFF7A4FF3C
:1085F0000346184608BD00BF6A2C0020682C0020E6
:1086000082B0094B5B680193019B5B880333ADF833
:108610000230064B9A88BDF8023013449AB2034BDD
:108620009A8000BF02B07047682C0020602C0020A8
:1086300082B01E4B1B6801931D4B5B8819461D4A77
:108640000B469B000B449B00134404331B68174AE2
:108650001360174B5B881946164A0B469B000B4468
:108660009B0013440433019A1A60114B5B8819462E
:108670000E4B98880F4A0B469B000B449B001344FB
:10868000083302461A80094B02229A80084B5B8805
:108690001946084A0B469B000B449B0013441033B9
:1086A00000221A7000BF02B0704700BF602C00208B
:1086B000682C0020382C002008B51A4B1B78072B9B
:1086C0002CD801A252F823F0E98602001D8702008F
:1086D0001D870200F5860200018702000D87020057
:1086E0000D87020015870200FFF730FE0D4B0122B7
:1086F0001A7014E0FFF784FF0A4B02221A700EE092
:10870000FFF796FF074B06221A7008E0054B072279
:108710001A7004E0034B01221A7000E000BF00BF92
:1087200008BD00BF682C002000B587B00190009103
:1087300048F20E630593019B002B05D0634B00228A
:108740005A604FF40643BCE0009B1B79032B00F2F8
:10875000AB8001A252F823F06987020077870200FC
:108760000588020025880200009B01221A71FFF78C
:1087700097FA05909BE000238DF813300023ADF8A5
:1087800010302BE0BDF81020514913469B001344D4
:108790009B000B441B78022B1BD1BDF810204C49C9
:1087A00013469B0013449B000B4400221A700123C4
:1087B0008DF81330BDF81020454913469B00134433
:1087C0009B000B4404331B681846FFF781FA0590A1
:1087D00008E0BDF810300133ADF81030BDF81030AE
:1087E000012BCFD99DF8133083F00103DBB2002BAE
:1087F0005CD0364B01221A70344B00225A6041F68D
:108800001D535EE0009B00221A71324B02229A80B7
:10881000304B1B681946002301222F4801F04CFC05
:10882000059044E0009B00221A712A4B1B681846F1
:10883000FFF74EFA0590294B5B88ADF80E30254BBB
:108840001B680293BDF80E20214913469B00134478
:108850009B000B4404331B681E4A1360BDF80E20B6
:108860001B4913469B0013449B000B440433029A9C
:108870001A60BDF80E20174B9888154913469B00C7
:1088800013449B000B44083302461A80114B02220A
:108890009A80BDF80E200E4913469B0013449B009E
:1088A0000B4400221A7002E000BF00E000BF059BED
:1088B000002B05D0054B00225A6048F20D6300E002
:1088C0000023184607B05DF804FB00BF082C002009
:1088D000382C0020602C0020282B0020682C002041
:1088E00000B587B001900091009B9B8A1A46134601
:1088F0009B0013449B003B4A13440493019B002BB1
:1089000006D000990498FFF7ADF94FF4064364E0F0
:10891000049B5A68049B1B899B0013440393009B90
:108920009B7D062B4DD801A252F823F071890200DD
:10893000958902007D890200898902004989020027
:10894000A1890200BB890200274B00225A60009BCC
:108950009B69254A136025492348FFF7BDFA034662
:1089600083F00103DBB2002B02D048F2096334E04C
:1089700003990098FFF7D8FB059026E0039900982B
:10898000FFF7F0FB059020E003990098FFF7BAFC91
:1089900005901AE003990098FFF70CFC059014E08D
:1089A000009B06229A75104B5B68104A128811468C
:1089B0001846FFF727FC059007E041F61D53059385
:1089C00003E048F20E63059300BF059B002B03D024
:1089D00000990498FFF746F9059B184607B05DF823
:1089E00004FB00BF382C0020802C00208C2C0020A1
:1089F00000B585B001900091019B002B02D04FF48F
:108A0000064329E0009B1B79022B1BD0022B1DDCA7
:108A1000002B02D0012B08D018E0009B02221A7113
:108A20000098FFF71BFC039015E00098FFF746FC49
:108A30000390039B48F2096293420BD141F61D5308
:108A4000039307E041F61D53039304E048F20E63DD
:108A5000039300E000BF039B184605B05DF804FBDC
:108A600000B585B00190019B002B02D04FF4064366
:108A70003DE0214B1B7B002B03D01F4B00221A73C0
:108A800001E0FFF719FE1C4B1B78013B062B29D890
:108A900001A252F823F000BFB58A0200BD8A02008D
:108AA000C58A0200CD8A0200E58A0200D58A02004A
:108AB000DD8A0200FFF784FD039017E0FFF73CFD1D
:108AC000039013E0FFF70EFD03900FE0FFF7D4FCD7
:108AD00003900BE0FFF74CFD039007E0FFF762FD0A
:108AE000039003E048F20E63039300BF039B184614
:108AF00005B05DF804FB00BF682C002000B589B00C
:108B00000190404B1B68002B05D13F48FFF7D4FA7A
:108B100003463C4A13603B4B1B68002B04D13B4986
:108B200040F29E5000F082FA364B1B681B78013BE6
:108B3000052B2CD801A252F823F000BF558B020060
:108B4000658B0200658B0200758B0200758B02003D
:108B5000858B02002B4B1B6819460198FFF7E4FD3B
:108B6000019018E0274B1B6819460198FFF7B8FEE3
:108B7000019010E0234B1B6819460198FFF738FF5E
:108B8000019008E00198FFF76BFF019003E048F2C5
:108B90000E63019300BF019B002B2BD003AB00227F
:108BA0001A605A609A60DA601A61019B41F61D52A0
:108BB000934201D0019B00E000230493114B1B68FA
:108BC00003AA11461846FEF705FF03AB1846FEF749
:108BD000E1FE0C4B00221A60002301930A48FFF7C4
:108BE0007BFAFFF787FA034683F00103DBB2002B21
:108BF00002D186E700BF00E000BF00BF09B05DF80A
:108C000004FB00BF902C0020942C0020F08803006F
:108C100008B50121054800F031FC0346002B02D1C4
:108C20000020FFF76BFF00BF08BD00BF102C002025
:108C300000B583B00190019B5B681846FFF75EFFAB
:108C400000BF03B05DF804FB00B58BB00390029148
:108C500001928DF803300023ADF824300023ADF8E5
:108C60002630534B1B78DBB283F00103DBB2002BC1
:108C700002D048F2016397E0029B002B02D148F238
:108C8000046391E0029B1B884FF6FF72934203D06E
:108C9000029B5B88002B02D148F2036384E0029BB5
:108CA0005B681846FEF768FE034683F00103DBB2FB
:108CB000002B02D048F2026376E0019B002B11D119
:108CC000029B9B68ADF826300DF11A02BDF82630E4
:108CD00011461846FFF710F80890089B002B09D0A2
:108CE000089B61E0019B1B88ADF81A30019B5B88F3
:108CF000ADF8263005AB1846FFF7BAF90790079B89
:108D0000002B0AD1BDF81A20BDF8263011461846AE
:108D1000FFF75CF848F2076346E0079B9DF80320E5
:108D20001A70079B00229A75BDF81A20079B9A8239
:108D3000029B5A68079B1A61FFF770F80246079B6F
:108D4000DA60029B1A88079B1A81029B5A88079B4C
:108D50009A80079BBDF82620DA809DF80330032B0C
:108D600006D1079B04229A75039B1A68079B9A6198
:108D7000079BBDF824205A8105AB1846FFF78EF9F2
:108D8000039B002B0DD0039B00225A60079BDA68DF
:108D9000039B1A60039B00229A72064B1A89039B5D
:108DA0001A81FFF735FF002318460BB05DF804FB6E
:108DB000082C0020682C002000B585B0019000919F
:108DC000019B002B02D0009B002B02D148F20463D0
:108DD0002AE00DF10A0319460198FFF77DF80346D2
:108DE000002B1FD0019B5B680393BDF80A301A4625
:108DF00013469B0013449B0008330D4A134404336D
:108E00000121184600F052FB009B039A1A60019B57
:108E10005B6803F10C02009B5A60019B01229A726D
:108E2000002301E048F20963184605B05DF804FB31
:108E3000382C002000B585B00190019B002B02D199
:108E400048F204633BE00DF10A0319460198FFF76D
:108E500043F80346002B2ED0BDF80A3019461A4AB3
:108E60000B469B000B449B0013440C331B68002BE8
:108E70001DD0019B9B7A002B19D0BDF80A301A46F1
:108E8000114913469B0013449B000B440C331B6891
:108E9000591E0D4813469B0013449B0003440C339A
:108EA0001960019B00229A720023039306E048F2A6
:108EB0000563039302E048F209630393039B18469A
:108EC00005B05DF804FB00BF382C002000B583B06E
:108ED000019000910223002200990198FFF7B4FE4F
:108EE0000346184603B05DF804FB00B583B001905B
:108EF0000091019B002B02D148F2046306E003239A
:108F0000002200990198FFF79FFE0346184603B020
:108F10005DF804FB00B585B00346ADF806301A4B8A
:108F20001B78DBB283F00103DBB2002B02D048F2E6
:108F3000016324E0BDF806304FF6FF72934202D180
:108F400048F203631BE002AB1846FFF791F8039069
:108F5000039B002B02D148F2076310E0039B05221C
:108F60001A70039B01221A71039BBDF80620DA8058
:108F700002AB1846FFF792F8FFF74AFE00231846A7
:108F800005B05DF804FB00BF082C002000B585B0DB
:108F9000029201930346ADF80E300B46ADF80C304B
:108FA00003A90DF10E00019B029AFEF7EFFF0346A5
:108FB000184605B05DF804FB00B585B00346029184
:108FC0000192ADF80E300DF10E01019B029A0020C6
:108FD000FEF7DCFF0346184605B05DF804FB00B55C
:108FE00085B0034602910192ADF80E300DF10E00EE
:108FF000019B029A0021FEF7C9FF0346184605B0FF
:109000005DF804FB82B001900091019B002B02D01F
:10901000009B002B02D148F2046304E0019B1A6814
:10902000009B1A600023184602B0704700B585B057
:1090300003460091ADF80630BDF806300293009B60
:10904000039302AB1A46002144F20200FEF712FB22
:1090500000BF05B05DF804FB86B001900091019B54
:1090600053E8011F8AB2D88902449889824228BFF6
:10907000121A1889824202BFBFF32F8F002307E024
:10908000C2EA010243E801200028E9D14FF00103C0
:109090008DF80F30059002910492029A009B1A609D
:1090A0009DF80F30DBB2184606B0704784B00190CF
:1090B000019951E8013FC3EA034341E80132002A24
:1090C000F7D10392029300BF04B0704786B00190BD
:1090D0000091019B53E8021F1FFAA1F2D888824237
:1090E00002BFBFF32F8F00230DE0D8890244988977
:1090F000824228BF121AC1EA024243E80220002835
:10910000E8D14FF001038DF80F30059002910492E1
:10911000029A009B1A609DF80F30DBB2184606B029
:10912000704784B00190019951E8023FC3EA23439C
:1091300041E80232002AF7D10392029300BF04B043
:10914000704700B585B001900091009B19460198C9
:10915000FFF782FF0346002B07D0019B1B68009A94
:10916000128813440393039B00E00023184605B0C4
:109170005DF804FB00B583B001900091009B1A8854
:10918000009B5B889A4204D10198FFF78FFF01236F
:1091900000E00023184603B05DF804FB00B585B07D
:1091A00001900091009B19460198FFF78FFF03463D
:1091B000002B07D0019B1B68009A5288134403932D
:1091C000039B00E00023184605B05DF804FB00B5E2
:1091D00083B001900091009B1A88009B5B889A42A3
:1091E00004D10198FFF79DFF012300E000231846FA
:1091F00003B05DF804FB00B585B001900091009BC1
:109200005B099B00019A1A44009B03F01F03012194
:1092100001FA03F31946104600F0E8F8039000BF86
:1092200005B05DF804FB00B583B001900091009B90
:109230005B099B00019A1A44009B03F01F03012164
:1092400001FA03F31946104600F0B8F80246009BF5
:1092500003F01F0322FA03F303F00103002B14BFF2
:1092600001230023DBB2184603B05DF804FB00B510
:1092700085B001900091009B5B099B00019A1A4404
:10928000009B03F01F03012101FA03F3DB4319469E
:10929000104600F0DBF8039000BF05B05DF804FB5A
:1092A00082B001900091009B5B099B00019A1344DE
:1092B0001A68009B03F01F0322FA03F303F0010373
:1092C000002B14BF01230023DBB2184602B0704705
:1092D00000B58DB00190009100230B934BE00B9BE8
:1092E0009B00019A13441B68DB430793079B93FA87
:1092F000A3F30693069B0893089B002B01D1202320
:1093000003E0089BB3FA83F3DBB20A932BE00B9BD9
:109310005B010A9A13440993099A009B9A4226D248
:1093200009990198FFF77FFF034683F00103DBB241
:10933000002B01D0099B26E00B9B9B00019A134454
:109340001B68DB430493049B93FAA3F30393039BEF
:109350000593059B002B01D1202303E0059BB3FA65
:1093600083F3DBB20A930A9B1F2BD0D900E000BF26
:109370000B9B01330B93009B013B5B0901330B9A61
:109380009A42ACD3009B18460DB05DF804FB10B4B4
:1093900087B001900091019B009A53E8004F10465E
:1093A00043E8000191F0000FF7D105940490039178
:1093B000059B184607B05DF8044B704710B487B0A2
:1093C00001900091019B009A53E8004F44EA02008B
:1093D00043E8000191F0000FF6D105940490039149
:1093E000059B184607B05DF8044B704710B487B072
:1093F00001900091019B009A53E8004F44EA02005B
:1094000043E8000191F0000FF6D105940490039118
:10941000049B184607B05DF8044B704710B487B042
:1094200001900091019B009A53E8004F04EA02006A
:1094300043E8000191F0000FF6D1059404900391E8
:10944000059B184607B05DF8044B704710B487B011
:1094500001900091019B009A53E8004F04EA02003A
:1094600043E8000191F0000FF6D1059404900391B8
:10947000049B184607B05DF8044B704710B487B0E2
:1094800001900091019B009A53E8004F04EB020009
:1094900043E8000191F0000FF6D105940490039188
:1094A000059B184607B05DF8044B704710B487B0B1
:1094B00001900091019B009A53E8004F04EB0200D9
:1094C00043E8000191F0000FF6D105940490039158
:1094D000049B184607B05DF8044B704710B487B082
:1094E00001900091019B009A53E8004FA4EB020009
:1094F00043E8000191F0000FF6D105940490039128
:10950000049B184607B05DF8044B704700B583B064
:10951000019001210198FFF769FF0346184603B047
:109520005DF804FB00B583B0019000210198FFF7BE
:1095300075FF0346184603B05DF804FB00B583B021
:1095400001900B468DF80330019B002B03D1084995
:10955000E820FFF76BFD019BDA689DF80330019965
:10956000098A01FB03F31344184603B05DF804FBBA
:109570007C89030000B583B001900091019B002B12
:1095800003D10849F520FFF751FD009B019AD268ED
:109590009B1A019A128AB3FBF2F3DBB2184603B0AE
:1095A0005DF804FB7C89030000B585B00190019B48
:1095B000002B01D10E234CE0019B1B68002B03D133
:1095C0002649FF20FFF732FD019B5B68002B04D189
:1095D00022494FF48070FFF729FD019B9B68002B07
:1095E00004D11E4940F20110FFF720FD019BDB680A
:1095F000002B04D119494FF48170FFF717FD019B2F
:109600001B8A002B04D1154940F20310FFF70EFD11
:10961000019B9A68019B5B68D31A8DF80F30019B00
:109620001B68019A52681A6007E0019B1A68136868
:10963000591C11609DF80F201A709DF80F305A1EAA
:109640008DF80F20002BF0D1019B1B6800221A71AE
:109650000023184605B05DF804FB00BF7C890300B9
:1096600000B585B00190019B002B04D11F494FF438
:109670009270FFF7DBFC0023039300238DF80A3080
:109680000DF10A031846FEF71BF9019B1B681A68C7
:10969000019B5B689A421FD9019B1B681A68013ABB
:1096A0001A601B681B7819460198FFF747FF039063
:1096B000019B9A68019B1B681B68D31A8DF80B30BD
:1096C000019B1B681B799DF80B209A4204D9019BD2
:1096D0001B689DF80B201A719DF80A301846FEF79A
:1096E00005F9039B184605B05DF804FB7C8903006F
:1096F00010B584B001900091019B002B04D1154955
:1097000040F24710FFF792FC009B002B04D1114957
:109710004FF4A470FFF78AFC009B039300238DF89D
:109720000B300DF10B031846FEF7CAF8019B1B68BE
:109730001C68621C1A6003990198FFF71BFF03461F
:1097400023709DF80B301846FEF7D0F800BF04B028
:1097500010BD00BF7C89030000B583B00190019B60
:10976000002B03D10C493120FFF760FC019B9B6863
:10977000002B0CD0019B5B69019A1069019A11685A
:10978000019A92689847019B00229A6000E000BF0E
:1097900003B05DF804FB00BFF08903000EB400B510
:1097A00084B00190019B002B03D118494220FFF7A0
:1097B0003DFC019B5B69002B03D114494320FFF75B
:1097C00035FC019B1B68002B03D110494420FFF797
:1097D0002DFC019B5B68002B03D10C494520FFF752
:1097E00025FC059B002B0AD00023039306AB0393B3
:1097F00003AB1A460599019800F0B8F900E000BFE4
:1098000004B05DF804EB03B0704700BFF0890300BB
:1098100000B583B001900B468DF803309DF80330FE
:109820000A2B03D10D210198FFF7F2FF019B1A6863
:10983000019B9B68581C0199886013449DF8032084
:109840001A70019B9A68019B5B689A4202D3019847
:10985000FFF782FF00BF03B05DF804FB00B587B0DF
:10986000039002910192009300230593009B03F063
:109870000103002B24D00BE0029B01330293059BD4
:10988000013305939DF8133019460398FFF7C0FF85
:10989000029B1B788DF813309DF81330002BEBD111
:1098A00006E0019B013B019320210398FFF7B0FFE5
:1098B000019A059B9A422ED9019B002BF1D12AE0F7
:1098C000029B002B0BD002980DF0E0F9059006E00A
:1098D000019B013B019320210398FFF799FF019A17
:1098E000059B9A420FD9019B002BF1D10BE0029B03
:1098F00001330293059B013305939DF813301946FC
:109900000398FFF785FF029B1B788DF813309DF8B5
:109910001330002BEBD100BF07B05DF804FB000053
:1099200000B589B00390029101920093029B0793C6
:109930000123069307E0079A019BB2FBF3F3079319
:10994000069B01330693079A019B9A42F3D2009A31
:10995000069B9A4201D9009B06930B9B03F00103DF
:10996000002B22D10A9B002B1FD00B9B03F002037C
:10997000002B06D0009B002B03D130238DF817302D
:1099800002E020238DF8173008E00A9B013B0A9380
:109990009DF8173019460398FFF73AFF0A9B002BF2
:1099A00003D0069A0A9B9A42EFD301230793009BA8
:1099B000012B03D9009B013B009309E0029A079B0E
:1099C000B2FBF3F30493049A019B9A4200D205E0A0
:1099D000079B019A02FB03F30793E8E7029A079BB0
:1099E000B2FBF3F30493049B079A02FB03F3029A7E
:1099F000D31A0293154A049B13441B781946039803
:109A0000FFF706FF079A019BB2FBF3F30793079B4F
:109A1000002BE3D10B9B03F00103002B11D00A9B19
:109A2000002B0ED006E00A9B013B0A9320210398ED
:109A3000FFF7EEFE0A9B002B03D0069A0A9B9A4280
:109A4000F1D300BF09B05DF804FB00BFD08A03006A
:109A500000B589B00590049103920293049B002BFA
:109A6000B8BF5B4206930123079307E0039B069A66
:109A700092FBF3F30693079B01330793039B069A2C
:109A80009A42F3DA029A079B9A4201D9029B079302
:109A90000A9B002B0AD0049B002B04DB0B9B03F0DA
:109AA0000403002B02D00A9B013B0A930B9B03F09B
:109AB0000203002B02D0029B002B16D00B9B03F05D
:109AC0000103002B11D10A9B002B0ED006E00A9B4C
:109AD000013B0A9320210598FFF79AFE0A9B002B71
:109AE00003D0079A0A9B9A42F1D3049B002B07DA12
:109AF000049B5B4204932D210598FFF789FE08E043
:109B00000B9B03F00403002B03D02B210598FFF7D8
:109B10007FFE0B9B03F00203002B19D00B9B03F07D
:109B20000103002B14D1029B002B11D10A9B002BA7
:109B30000ED006E00A9B013B0A9330210598FFF7FF
:109B400067FE0A9B002B03D0079A0A9B9A42F1D327
:109B500004990B9B01930A9B0093029B039A05981F
:109B6000FFF7DEFE00BF09B05DF804FB00B58FB063
:109B7000059004910392059B002B04D1B64940F255
:109B80005220FFF753FA059B5B69002B04D1B249C1
:109B90004FF41570FFF74AFA059B1B68002B04D1A0
:109BA000AD4940F25520FFF741FA059B5B68002B59
:109BB00004D1A94940F25620FFF738FA049B002B44
:109BC00000F09381049B1B788DF83730049B0133A0
:109BD00004939DF83730002B00F07E819DF83730DC
:109BE000252B40F06D8100230A9301230C93049BE5
:109BF0001B788DF837309DF83730302B0DD0302B57
:109C00001BDC2B2B11D02D2B17D10A9B43F001030A
:109C10000A93049B0133049312E00A9B43F002036E
:109C20000A93049B013304930AE00A9B43F0040364
:109C30000A93049B0133049302E000230C9300BFBA
:109C40000C9B002BD3D1002309939DF837302A2B8E
:109C50000CD1039B1B68191D039A11601B68099A9C
:109C600013440993049B013304931AE0049B1B786B
:109C70008DF837309DF837302F2B12D99DF83730BB
:109C8000392B0ED8049B01330493099A13469B0089
:109C900013445B001A469DF837301344303B099358
:109CA000D3E700230B93049B1B788DF837309DF886
:109CB00037302E2B1DD1049B01330493049B1B785A
:109CC0008DF837309DF837302F2B12D99DF837306B
:109CD000392B0ED8049B013304930B9A13469B0037
:109CE00013445B001A469DF837301344303B0B9306
:109CF000E4E7049B1B788DF837309DF837306C2BE8
:109D000003D09DF83730682B07D1049B01330493AF
:109D1000049B1B788DF83730EFE79DF83730252B03
:109D200000F0C480252BC0F2C680782B00F3C380DE
:109D3000582BC0F2C080583B202B00F2BC8001A2FF
:109D400052F823F0339E0200B79E0200B79E020035
:109D5000B79E0200B79E0200B79E0200B79E0200A7
:109D6000B79E0200B79E0200B79E0200B79E020097
:109D7000C99D0200EB9D0200B79E0200B79E020043
:109D8000B79E0200B79E0200EB9D0200B79E020044
:109D9000B79E0200B79E0200B79E0200B79E020067
:109DA000B79E0200799E0200B79E0200B79E020095
:109DB0005D9E0200B79E02000F9E0200B79E020049
:109DC000B79E0200339E0200039B1B68191D039A75
:109DD00011601B680C930C9B8DF81F309DF81F3091
:109DE00019460598FFF714FD66E0039B1B68191DD3
:109DF000039A11601B680C930A9B0193099B0093C3
:109E00000B9B0A220C990598FFF722FE54E0039B56
:109E10001B68191D039A11601B680C930C990A9B0F
:109E20000193099B00930B9B0A220598FFF778FD8D
:109E300042E0039B1B68191D039A11601B680C9379
:109E40000C990A9B0193099B00930B9B1022059888
:109E5000FFF766FD30E000BF5C8A0300039B1B68D0
:109E6000191D039A11601B6808930A9B099A0899A7
:109E70000598FFF7F3FC1FE0039B1B68191D039A6D
:109E800011601B680C9330210598FFF7C1FC782105
:109E90000598FFF7BDFC0C9900230193082300935C
:109EA000082310220598FFF73BFD05E025210598C2
:109EB000FFF7AEFC00E000BF049B0133049305E014
:109EC0009DF8373019460598FFF7A2FC049B1B78D4
:109ED000002B7FF477AE00E000BF059B1B7B002BBF
:109EE00004D00598FFF738FC00E000BF0FB05DF824
:109EF00004FB00BF10B586B0059004910392029355
:109F0000059B002B10D1604A604BD31ADB081B0461
:109F100043F001005E4A5F490E2300930B465E4901
:109F200004F079FE0E23ABE0039B002B10D1564AC0
:109F3000564BD31ADB081B0443F00100574A55491E
:109F40000E2300930B46544904F065FE0E2397E060
:109F5000059B1B68002B10D14B4A4C4BD31ADB08D6
:109F60001B0443F001004E4A4A49082300930B4664
:109F7000494904F050FE082382E0029B002B10D1D7
:109F8000414A424BD31ADB081B0443F00100454A07
:109F90004049092300930B463F4904F03CFE092346
:109FA0006EE0059B5B685A68029BB3FBF2F102FB13
:109FB00001F29B1A002B10D0334A344BD31ADB0822
:109FC0001B0443F00100384A3249092300930B4631
:109FD000314904F020FE092352E0049800F01EF9F4
:109FE0000346002B10D1284A284BD31ADB081B0448
:109FF00043F001002D4A2749102300930B462649C0
:10A0000004F009FE10233BE0039B184600F006F91C
:10A010000346002B10D11C4A1C4BD31ADB081B042F
:10A0200043F00100224A1B49102300930B461A49B2
:10A0300004F0F1FD102323E0029A0499059800F042
:10A04000D3F80346002B10D10F4A104BD31ADB086C
:10A050001B0443F00100174A0E49102300930B46DE
:10A060000D4904F0D8FD10230AE0059B1B68DC684D
:10A07000089B0093029B039A04990598A047034606
:10A08000184606B010BD00BFCC8503003485030020
:10A09000F08A0300948C0300F88A0300848B030089
:10A0A0002C8B0300408B03008C8B0300B88B0300C8
:10A0B000D08B0300F48B030010B586B0059004919B
:10A0C00003920293059B002B10D13E4A3E4BD31ABC
:10A0D000DB081B0443F001003C4A3D490E2300937A
:10A0E0000B463C4904F097FD0E2368E0059B1B6876
:10A0F000002B10D1334A344BD31ADB081B0443F036
:10A100000100354A3249082300930B46314904F0D7
:10A1100082FD082353E0039B002B10D1294A2A4BD0
:10A12000D31ADB081B0443F001002C4A28490923F9
:10A1300000930B46274904F06EFD09233FE0049984
:10A14000059800F078F80346002B10D11D4A1E4BED
:10A15000D31ADB081B0443F00100214A1C491023D9
:10A1600000930B461B4904F056FD102327E0059B86
:10A170005B681B68039A02FB03F31A46049905986F
:10A1800000F032F80346002B10D10E4A0E4BD31AC2
:10A19000DB081B0443F00100124A0D491023009311
:10A1A0000B460C4904F037FD102308E0059B1B68A3
:10A1B0001C69029B039A04990598A0470346184618
:10A1C00006B010BDCC85030034850300F08A03007F
:10A1D000A88C0300F88A03002C8B0300408B03003B
:10A1E0001C8C0300448C030084B003900291019204
:10A1F000039BDB68029A9A4209D3029A019B13449B
:10A200005A1E039B1B699A4201D8012300E00023D8
:10A2100003F00103DBB2184604B0704782B001902E
:10A22000019B03F00303002B0CBF01230023DBB2CF
:10A23000184602B0704782B001900091019B5B68A4
:10A240001B685A1E009B1340002B0CBF01230023E8
:10A25000DBB2184602B0704729DF704700BF1846CE
:10A2600028DF704700BF184600B589B00190009103
:10A27000019B1B689B68002B35D002AB00221A6043
:10A280005A609A60DA601A615A61009B0393019BDD
:10A290009B680793019B1B79002B02D0012B0DD0EB
:10A2A0001AE001238DF80830019B1B690493019B80
:10A2B000DB680593019B5B6906930DE002238DF833
:10A2C0000830019BDB684FF4805202FB03F30493D8
:10A2D000019B5B69069300BF019B1B689B6802AAF8
:10A2E0001046984700E000BF09B05DF804FB00B5D8
:10A2F00087B00190019B5A69019B9B69D31AB3F502
:10A30000805F28BF4FF4805305930422059BB3FB65
:10A31000F2F3012B38BF01230593019B1A69019BBE
:10A320009B6913440493019BDB681A46019B9B695C
:10A3300013440393059A03990498FFF78DFF03468E
:10A34000184607B05DF804FB00B583B00190019B8F
:10A35000DA68019B1B6913441846FFF781FF034627
:10A36000184603B05DF804FB08B5034B03491846D3
:10A37000FEF72DFF00BF08BD982C0020C02C002048
:10A3800008B5084B08491846FEF708FF0346074A78
:10A390001360064B1B68002B14BF01230023DBB2A4
:10A3A000184608BD982C0020C02C0020BC2C002092
:10A3B00000B583B02A4B1B7A002B0BD1FFF7E0FFCF
:10A3C000034683F00103DBB2002B03D0244B0022B1
:10A3D0005A6042E0224B02221A72224B1B681B7900
:10A3E000002B02D0012B07D00DE01E4B1B68184636
:10A3F000FFF77DFF019009E01A4B1B681846FFF735
:10A40000A3FF019002E00323019300BF019B002BF7
:10A4100003D0019B112B0CD00FE0114B1B7C83F060
:10A420000103DBB2002B17D00021022000F06EF8F0
:10A4300012E00B4B01221A720FE00A4B1B6803213A
:10A440001846FFF711FF064B00221A72044B002238
:10A450005A60FFF789FF00E000BF03B05DF804FB1E
:10A46000A82C0020BC2C002084B001901B4B0022A3
:10A47000DA60019B1B79002B02D0012B19D028E058
:10A48000019B5A69019B9B69D31AB3F5805F28BF72
:10A490004FF480530393019B9A69039B1A44019BD9
:10A4A0009A61019B9A69019B5B699A420ED10123D3
:10A4B00010E0019B1B695A1C019B1A61019B1A69E0
:10A4C000019B5B699A4203D1012303E000BF00E0D6
:10A4D00000BF0023184604B0704700BFA82C00201E
:10A4E00082B00190084BDB680133074AD360064B0A
:10A4F000DB68082B04D9044B0022DA60012300E05A
:10A500000023184602B07047A82C002000B585B083
:10A5100001900091019B022B02D0019B032B48D19B
:10A52000274B1B7A022B05D0022B35DC002B42D0A7
:10A53000012B31E000238DF80F30019B022B03D05B
:10A54000019B032B09D011E01E4B1B681846FFF737
:10A550008BFF03468DF80F3008E01A4B1B68184636
:10A56000FFF7BEFF03468DF80F3000BF9DF80F3098
:10A57000002B10D0124B00221A72124B1A68019B4A
:10A58000022B01D1002300E00D2319461046FFF7EE
:10A590006BFEFFF7E9FE00BF094B5B7C83F0010314
:10A5A000DBB2002B02D0FFF703FF05E00BF03EFF0C
:10A5B00002E000BF00E000BF05B05DF804FB00BF93
:10A5C000A82C0020BC2C002082B0034600918DF8FE
:10A5D0000730064B01225A74044B1B7A002B0CBF28
:10A5E00001230023DBB2184602B07047A82C0020DC
:10A5F00000B583B0034600918DF807309DF8073011
:10A60000012B03D09DF80730032B0DD1084B0022FE
:10A610005A749DF80730012B0CBF01230023DAB2D6
:10A62000034B1A74FFF7C4FE00BF03B05DF804FBD0
:10A63000A82C002000B583B001900198FEF7B4FF6C
:10A640000346184603B05DF804FB00B58BB00190DB
:10A650000091019B1B8A043B0793009A079B1344BC
:10A66000DA1C079BB2FBF3F38DF81B300198FEF761
:10A67000F7FF0590059B002B01D1002338E0059BD7
:10A6800000221A71059B01225A71079B9AB2059B01
:10A69000DA80059B09939DF81B30013B0493099BCD
:10A6A000019A1A60002308931DE00198FEF7D8FF75
:10A6B0000390039B002B0ED0059B5B790133DAB22C
:10A6C000059B5A71099B039A1A60039B019A1A60B1
:10A6D000039B099304E0059800F00EF8002307E0BF
:10A6E000089B01330893089A049B9A42DDD3059B8B
:10A6F00018460BB05DF804FB00B58BB00190019BD0
:10A700000793079B5B798DF81B30019B08939DF89D
:10A710001B30013B05930023099305E0089B1B6850
:10A720000893099B01330993099A059B9A42F5D333
:10A73000089B1B680493019B0893002309930BE07B
:10A74000089B1B68039308990498FEF7D1FF039BAD
:10A750000893099B013309939DF81B30099A9A428B
:10A76000EED300BF00BF0BB05DF804FB00B585B0B1
:10A770000190019B0393039B043301211846FEF7CC
:10A7800095FE00BF05B05DF804FB00B587B00190F1
:10A79000019B0593059B043301211846FEF79EFE9D
:10A7A0000346039303AB0493049B1B78002B02D155
:10A7B0000198FFF7A1FF00BF07B05DF804FB0000A0
:10A7C00000B591B00390029101920093039B002B7E
:10A7D00003D14349B620FEF729FC039B0993039B51
:10A7E0000F93099BDB881A46099B5B7903FB02F3F5
:10A7F000043B0893009A089B9A4203D33849C4202B
:10A80000FEF714FC099BDB880793009B1A1D079B2E
:10A81000B2FBF3F30E93009B0433079AB3FBF2F2FF
:10A82000079901FB02F29B1A0D93019B1A68009B8A
:10A830001344089A9A4203D2089A009BD31A01E063
:10A84000019B1B680C93019B0C9A1A6005E00F9BFF
:10A850001B680F930E9B013B0E930E9B002BF6D1B2
:10A8600000230B93079A0D9BD31A0A930A9A0C9B09
:10A87000934228BF13460A932AE0029A0B9B134483
:10A8800006930F9A0D9B1344043305939DF84830AB
:10A89000002B05D00A9A059906980CF09BF904E064
:10A8A0000A9A069905980CF095F900230D930F9BD1
:10A8B0001B680F930C9A0A9BD31A0C930B9A0A9B52
:10A8C00013440B93079A0C9B934228BF13460A9399
:10A8D0000C9B002BD1D100BF00BF11B05DF804FB71
:10A8E000BC8C030000B589B00590049103920293DB
:10A8F000039B079307AA00230093029B04990598E2
:10A90000FFF75EFF079B039A9A4203D00349F620A4
:10A91000FEF78CFB00BF09B05DF804FBBC8C0300A4
:10A9200000B589B00590049103920293039B0793AD
:10A9300007AA01230093029B04990598FFF740FFA3
:10A94000079B039A9A4204D004494FF48070FEF7A3
:10A950006DFB00BF09B05DF804FB00BFBC8C0300B9
:10A9600082B00190019B9B68024A127813441846FA
:10A9700002B07047BA8E030000B583B00190009119
:10A98000019B002B03D108498320FEF74FFB019B5D
:10A990009B68009A9A4202D2009B013300E0002398
:10A9A000184603B05DF804FB488E030000B585B07F
:10A9B0000190019B1B681B680393019B1B685B68EC
:10A9C0000293029A039B9A4203D3029A039BD31ADF
:10A9D00007E00198FFF7C4FF0246039BD21A029BCF
:10A9E0001344184605B05DF804FB000000B585B0BF
:10A9F0000190019B002B03D10D499820FEF716FB17
:10AA0000019B1B681B680393019B1B685B68029397
:10AA100002990198FFF7B0FF0246039B93420CBFD7
:10AA200001230023DBB2184605B05DF804FB00BF2C
:10AA3000488E030010B588B0019000910023079361
:10AA4000019B002B03D15649A320FEF7EFFA009B90
:10AA5000002B03D15249A420FEF7E8FA00238DF819
:10AA60000F300DF10F031846FCF72AFF0198FFF78E
:10AA7000BDFF03468DF81B309DF81B3083F00103AA
:10AA8000DBB2002B03D1019B1B7C002B7BD1019BF4
:10AA90001B685B680593019B1B685A68019B1C68D7
:10AAA00011460198FFF768FF034663609DF81B306D
:10AAB000002B0AD0019B1B681A68019B1C68114679
:10AAC0000198FFF759FF03462360019BDB68013BB8
:10AAD000072B38D801A252F823F000BFFDAA0200CC
:10AAE0000DAB020047AB02001FAB020047AB0200F8
:10AAF00047AB020047AB020031AB0200019B5A6832
:10AB0000059B1344009A12781A702DE0019B5A6835
:10AB1000059B5B001344009A12881A8024E0019B75
:10AB20005A68059B9B001344009A12681A601BE048
:10AB3000019B5A68059BDB00D118009BD3E90023D9
:10AB4000C1E9002310E0019B5B681946019BDB68AB
:10AB5000059A02FB03F30B441846019BDB681A4677
:10AB600000990CF037F800BF0198FFF71FFF049021
:10AB7000019B1B689B68049A9A4207D9019B1B683A
:10AB8000049A9A6002E00423079300E000BF9DF856
:10AB90000F301846FCF7AAFE079B184608B010BDF8
:10ABA000488E030082B00190019B9B6800229A604E
:10ABB000019B9B6800221A61019B9B6800225A61DD
:10ABC000019B9B680022DA60019B9B6800225A600F
:10ABD000019B9B6800221A6000BF02B07047000012
:10ABE00000B583B001900091019B002B03D1104967
:10ABF0005020FEF71BFA009B002B03D10C4951207B
:10AC0000FEF714FA019B009A1A60019B1B681A68F0
:10AC1000019B5A60019B5A68019B1B685B689A42C2
:10AC200002D1019B00225A6000BF03B05DF804FB13
:10AC3000BC8E030000B583B00190019B002B03D1B3
:10AC400014496320FEF7F2F9019B1B68002B03D126
:10AC500010496420FEF7EAF9019B5B68002B14D0D1
:10AC6000019B5B681A46019B1B689B6813441A464C
:10AC7000019B5A60019B5A68019B1B685B689A4262
:10AC800004D1019B00225A6000E000BF03B05DF8D0
:10AC900004FB00BFBC8E030000B585B00190019895
:10ACA00000F00EF80390039B002B01D0039B00E003
:10ACB000024B184605B05DF804FB00BFD08F0300BF
:10ACC00086B00190164B0593164B04931FE0049A2F
:10ACD000059BD31ADB10DA0F13445B10DB00059AD7
:10ACE00013440393039B1B680293029A019B9A42AD
:10ACF00002D9039B04930AE0029A019B9A4203D271
:10AD0000039B0833059302E0039B5B6804E0059A0C
:10AD1000049B9A42DBD30023184606B0704700BF5D
:10AD2000D0930300F894030082B003468DF80730F7
:10AD30009DF90730002B13DB9DF8073003F01F024D
:10AD400009499DF907305B09012000FA02F220331E
:10AD500041F82320BFF34F8F00BFBFF36F8F00BFB9
:10AD600000BF02B0704700BF00E100E0044BD3F821
:10AD70000034002B14BF01230023DBB218467047B8
:10AD80000000014008B50BF06DFB034683F00103A2
:10AD9000DBB2002B03D109497B20FEF747F9FFF70F
:10ADA000E5FF034683F00103DBB2002B04D000F083
:10ADB000C1FB034B00229A7000BF08BD0095030041
:10ADC000C42C002000B583B000230193184B1B78DE
:10ADD000002B02D0852301931CE0154B00229A60C2
:10ADE000134B00225A60124B00221A61104B0022B2
:10ADF000DA60104800F064FB01900BF033FB03466F
:10AE000083F00103DBB2002B01D000F07FFB084B85
:10AE100001221A70FFF7AAFF0346002B02D0044B51
:10AE200001229A70019B184603B05DF804FB00BF35
:10AE3000C42C00200DAF020084B00190019B1B6860
:10AE40000393039B002B03D0039B1A68019B1A609A
:10AE5000039B184604B0704700B583B0164B1B78AF
:10AE6000002B04D1154940F21710FEF7DFF8124B02
:10AE7000DB68002B04D111494FF48C70FEF7D6F833
:10AE800000238DF807300DF107031846FCF718FD75
:10AE9000094BDB68013B084AD360074BDB68002B9A
:10AEA00001D1FFF76FFF9DF807301846FCF71EFD34
:10AEB00000BF03B05DF804FBC42C00200095030024
:10AEC00000B585B003468DF807309DF80730002B9C
:10AED00002D10C4B039301E00B4B03930398FFF754
:10AEE000ABFF0290029B002B06D0029B5B689DF893
:10AEF000072010469847F1E700BF00BF05B05DF896
:10AF000004FB00BFCC2C0020D42C002000B583B063
:10AF100003468DF807309DF80730002B05D10A4B0A
:10AF200001225A700020FFF7CBFF9DF80730012B5C
:10AF300005D1054B01229A700120FFF7C1FF00BF28
:10AF400003B05DF804FB00BFC42C002000B583B043
:10AF500001900091019B002B05D1054B01225A70F5
:10AF60000020FFF7ADFF00BF03B05DF804FB00BF9A
:10AF7000C42C002000B585B0034600918DF8073041
:10AF80009DF80730032B29D0032B35DC002B02D092
:10AF9000012B04D030E00020FFF7C6FE2DE0002397
:10AFA0008DF80F300DF10F031846FCF789FC154B97
:10AFB0001B7883F00103DBB2002B01D0FFF702FF07
:10AFC000104BDB6801330F4AD3600E4B01229A709D
:10AFD0009DF80F301846FCF789FC0EE0094B1B78F2
:10AFE000002B04D1084940F25220FEF71FF800F070
:10AFF0008DFAFFF731FF00E000BF00BF05B05DF83C
:10B0000004FB00BFC42C00200095030000B585B0F0
:10B0100003468DF8073000238DF80F300DF10F0334
:10B020001846FCF74DFC0BF01DFA034683F00103B4
:10B03000DBB2002B0DD00DF1070319460948FFF7CD
:10B04000F9FC0848FFF7D2FC0346002B01D000F0C2
:10B0500065FF9DF80F301846FCF748FC00BF05B0AF
:10B060005DF804FB2085030000B585B00346009120
:10B070008DF807309DF80730002B02D0032B09D044
:10B080002AE0174B1B78012B25D100F047FF00F079
:10B090005BFF20E000238DF80B300DF10B03184609
:10B0A000FCF70EFC0E4B1B78012B0ED10D490E4800
:10B0B00000F0DCFE0390039B002B04D00B4940F210
:10B0C0000710FDF7B3FF00F00FFF9DF80B30184697
:10B0D000FCF70CFC00E000BF00BF05B05DF804FB0E
:10B0E000D82C00200DB00200D92C00207895030048
:10B0F00000B589B001900091009B0793019B1B78DC
:10B100008DF80C30019B5B680493019B9B68DBB25C
:10B110008DF81430019BDB680693074A079B52F8B1
:10B1200023300649079A51F8221003AA104698477F
:10B1300000BF09B05DF804FB2C2D0020342D002049
:10B1400000B589B001900091009B0793019B1B788B
:10B150008DF80C30019B5B680493019B9B68DBB20C
:10B160008DF81430019BDB680693074A079B52F861
:10B1700023300649079A51F8221003AA104698472F
:10B1800000BF09B05DF804FB2C2D0020342D0020F9
:10B1900030B58FB0039002910192039B1B780C9302
:10B1A0002C490C9B019A41F82320029B1A692A49D9
:10B1B0000C9B41F823200C9B012B07D1029B5B7F4A
:10B1C000002B03D125497620FDF730FF029B5B7FE2
:10B1D0001946234A0C9B13440A461A70029B04AC7E
:10B1E0001D460FCD0FC495E80F0084E80F000C9B9F
:10B1F000089300230D93039B1B781A46184B9B5C06
:10B20000002B0DD0039B181D019B002B01D0154A6C
:10B2100000E0002204AB194602F0DAF80D9014E0C9
:10B22000039B1B781A460E4B9B5C002B0DD1039B96
:10B2300003F10C00019B002B01D00B4A00E000221F
:10B2400004AB194601F03CFA0D900D9B18460FB067
:10B2500030BD00BF2C2D0020342D0020EC950300C4
:10B260003C2D0020F1B0020041B1020082B0034643
:10B270008DF807309DF90730002B0CDB9DF8073067
:10B2800003F01F0205499DF907305B09012000FA10
:10B2900002F241F8232000BF02B0704700E100E055
:10B2A00082B0034600918DF807309DF90730002BDE
:10B2B0000ADB009BDAB20C499DF907305201D2B289
:10B2C0000B4483F800230BE0009BDAB207499DF89A
:10B2D000073003F00F03043B5201D2B20B441A763D
:10B2E00000BF02B0704700BF00E100E000ED00E0E9
:10B2F00082B00190019B1B0B5BB2184602B07047F5
:10B3000000B583B003460A468DF8073013468DF822
:10B3100006309DF80630012B03D99DF80630032B2B
:10B320000BD99DF80630042B03D99DF80630072B66
:10B3300003D908496B20FDF779FE9DF806209DF999
:10B34000073011461846FFF7ABFF00BF03B05DF8AA
:10B3500004FB00BF6096030000B583B003468DF880
:10B3600007309DF907301846FFF780FF00BF03B094
:10B370005DF804FB82B003468DF807300F4A9DF953
:10B380000730002B00DA1F335B115BB252F8232029
:10B390009DF90730594203F01F0301F01F0158BF08
:10B3A0004B425BB222FA03F303F00103002B14BFFC
:10B3B00001230023DBB2184602B0704700E100E031
:10B3C00082B001904FF08042019BC2F8083300BF69
:10B3D00002B0704782B003468DF807309DF8073001
:10B3E00003F1804301221A6000BF02B0704784B0AD
:10B3F0000346ADF80630BDF8063003F18043002265
:10B400001A60BDF8063003F180431B680393039B69
:10B4100000BF04B0704782B00346ADF80630BDF8F7
:10B42000063003F180431B68002B14BF0123002367
:10B43000DBB2184602B0704782B001904FF08042F4
:10B44000019BC2F8183500BF02B070474FF080432F
:10B45000D3F818341B0C03F00103002B14BF012395
:10B460000023DBB21846704700B583B006238DF881
:10B4700007304FF08040FFF73BFF03461846FFF7C9
:10B4800079FF034683F00103DBB2002B13D04FF0AA
:10B490008040FFF72DFF03461A469DF807301946F6
:10B4A0001046FFF72DFF4FF08040FFF721FF0346C6
:10B4B0001846FFF751FF00BF03B05DF804FB000022
:10B4C00000B585B00190019B002B03D10D49A4204C
:10B4D000FDF7ACFD002303930B4B1B79002B02D02F
:10B4E0008523039308E0084A019B1360064B012261
:10B4F0001A71054B00225A71039B184605B05DF87E
:10B5000004FB00BF9C960300402D002008B5074BAC
:10B510001B79002B03D10649BD20FDF787FDFFF7FE
:10B52000A3FF0120FFF788FF00BF08BD402D0020CA
:10B530009C96030008B50D4B1B79002B03D10C49D9
:10B54000F720FDF773FD0220FFF73AFF4FF48270FA
:10B55000FFF74DFF0C20FFF73DFF00BFFFF776FF21
:10B560000346002BFAD100BF00BF08BD402D0020CC
:10B570009C96030008B54FF48070FFF74CFF03461C
:10B58000002B14D04FF48070FFF731FF0120FFF73C
:10B5900017FF114B5B7983F00103DBB2002B06D060
:10B5A0000D4B01225A710C4B1B68002098474FF439
:10B5B0008270FFF730FF0346002B0AD04FF48270F1
:10B5C000FFF715FF0220FFF7FBFE034B1B6801206E
:10B5D000984700BF08BD00BF402D002000B583B0D4
:10B5E0000346ADF80630BDF80630184600F026F8E0
:10B5F00003461B68012B0CBF01230023DBB2184656
:10B6000003B05DF804FB00B585B00346ADF8063025
:10B61000BDF80630184600F011F803461A4600231C
:10B620001360BDF80630184600F008F803461B68A2
:10B630000393039B00BF05B05DF804FB82B0034693
:10B64000ADF80630BDF8063003F1804303F5C04382
:10B65000184602B07047000082B00190034BD3F847
:10B660000423019B1340184602B07047006000405D
:10B6700082B00190054A019B03F5A27352F8233072
:10B680001B0A03F03F03184602B0704700600040F9
:10B6900082B00190064A019B03F5A27352F8233051
:10B6A0001B0C03F00303DBB2184602B0704700BF67
:10B6B0000060004000B583B00190019B1B681846F4
:10B6C00000F0AAF80346002B04D10B494FF4F670A2
:10B6D000FDF7ACFC019B1B681F2B02D84FF0A04369
:10B6E00006E0019B1B6803F01F02019B1A60034BDD
:10B6F000184603B05DF804FB4497030000030050B4
:10B7000000B585B001900B468DF8033001AB1846AB
:10B71000FFF7D0FF0390019A039B02F5E07253F804
:10B720002230019A23F44031039B02F5E07243F882
:10B730002210019A039B02F5E07253F822309DF823
:10B74000032012041146019A1943039B02F5E0728B
:10B7500043F8221000BF05B05DF804FB00B585B0CA
:10B76000019001AB1846FFF7A5FF0390019A039BD8
:10B7700002F5E07253F822301B0C03F00303DBB236
:10B78000184605B05DF804FB88B003900291019261
:10B79000164A05AB92E8030083E80300039B079376
:10B7A00019E0079B9B0008AA134453F80C3CD3F8FC
:10B7B0002025019B1A60079B9B0008AA134453F89D
:10B7C0000C3C019A1268C3F82025019B04330193B5
:10B7D000079B01330793039A029B1344079A9A42EB
:10B7E000DFD300BF00BF08B0704700BF74970300ED
:10B7F00000B585B0019001AB1846FFF75BFF0390E1
:10B80000019B012202FA03F31A46039BC3F8202589
:10B8100000BF05B05DF804FB84B00190019B5B099B
:10B82000029300230393029B002B03D0029B012B66
:10B8300004D007E04FF0FF33039303E04FF6FF73AC
:10B84000039300BF019B03F01F030193039A019B25
:10B8500022FA03F303F00103002B14BF012300239A
:10B86000DBB2184604B0704784B001900091009B91
:10B870000393019BDB080293019B03F007030193F1
:10B880000122019B02FA03F30399029A0A441278F7
:10B890001340184604B0704782B00190044A019BDF
:10B8A0001344303393F90030184602B0704700BF9C
:10B8B000482D002082B00190034A019B52F82330AA
:10B8C000184602B0704700BF482D002084B0019098
:10B8D000074A019B1344603393F900308DF80F3011
:10B8E0009DF80F3023F0C003184604B0704700BF26
:10B8F000482D002084B00190074A019B1344603317
:10B9000093F900308DF80F309DF80F309B09DBB2B2
:10B91000184604B0704700BF482D002000B585B020
:10B920000190019A02210020FFF72EFF00230393CC
:10B930000BE0039B9B00019A13441B68002B01D072
:10B94000012306E0039B01330393039B012BF0D9F2
:10B950000023184605B05DF804FB000000B587B071
:10B960000190002305935BE0344A059B1344603348
:10B9700093F90030B3F1FF3F4ED00598FFF7A6FFD3
:10B98000049001990498FFF76FFF0346002B44D001
:10B990000598FFF7AFFF03468DF80F300498FFF7C7
:10B9A000DDFE03468DF80E309DF80E30022B01D1DE
:10B9B000032300E002238DF80D309DF80D30194669
:10B9C0000498FFF79DFE0498FFF712FF0498FFF715
:10B9D00063FF03461846FFF76DFF0290029B002BA2
:10B9E0001BD09DF80F30032B0FD09DF80E30022B8B
:10B9F00003D19DF80F30012B07D09DF80E30032B9B
:10BA00000BD19DF80F30022B07D19DF80F20029B20
:10BA100011460498984700E000BF059B0133059349
:10BA2000059B032BA0D90198FFF778FF0346002B55
:10BA300097D100BF00BF07B05DF804FB482D002080
:10BA400000B58BB00023089301AB00221A605A6046
:10BA50004FF48073ADF81A30012309930023079344
:10BA600021E0BDF81A301846FFF7B8FD0346002B59
:10BA70000ED00998FFF7F0FD0346002B08D0BDF863
:10BA80001A301846FFF7BFFD089A099B1343089325
:10BA9000099B5B000993BDF81A300433ADF81A30E6
:10BAA000079B01330793079B072BDAD94FF4BE702E
:10BAB000FFF794FD0346002B0DD04FF4BE70FFF747
:10BAC000A2FD089B43F00043089301AB1A460221F4
:10BAD0000020FFF759FE089BDBB2002B29D0012381
:10BAE00009930023079321E0099A089B1340002B38
:10BAF00016D00798FFF7BCFD05900798FFF7C8FD23
:10BB000003468DF813300798FFF7D4FE0390039B8C
:10BB1000002B05D09DF81320039B114605989847EC
:10BB2000099B5B000993079B01330793079B072B36
:10BB3000DAD9089B002B03DA01AB1846FFF70EFF9A
:10BB400000BF0BB05DF804FB08B5064B1B68002B6B
:10BB500003D105495120FDF769FA024B1B6898474C
:10BB600000BF08BDB42D0020FC97030082B00190F7
:10BB7000019B044A934201D1034B00E00023184685
:10BB800002B0704700200040B42D002000B587B0FF
:10BB900001900091019B002B03D11C497720FDF7F8
:10BBA00045FA0198FFF7E2FF0590059B002B25D091
:10BBB00000238DF8133000238DF80B300DF10B03AB
:10BBC0001846FBF77DFE059B1B79002B03D0012354
:10BBD0008DF8133005E0059B009A1A60059B012241
:10BBE0001A719DF80B301846FBF780FE9DF8133054
:10BBF000002B03D011230393039B02E00023039344
:10BC0000039B184607B05DF804FB00BFFC970300D8
:10BC100000B585B00190019B002B03D10A499B2000
:10BC2000FDF704FA0198FFF7A1FF0390039B002B97
:10BC300005D0039B00221A60039B00221A7100BFEB
:10BC400005B05DF804FB00BFFC97030082B003461B
:10BC50008DF807309DF90730002B0CDB9DF807307D
:10BC600003F01F0205499DF907305B09012000FA26
:10BC700002F241F8232000BF02B0704700E100E06B
:10BC800082B003468DF807309DF90730002B13DB97
:10BC90009DF8073003F01F0209499DF907305B0941
:10BCA000012000FA02F2203341F82320BFF34F8F26
:10BCB00000BFBFF36F8F00BF00BF02B0704700BF6F
:10BCC00000E100E082B0034600918DF807309DF955
:10BCD0000730002B0ADB009BDAB20C499DF90730D4
:10BCE0005201D2B20B4483F800230BE0009BDAB27E
:10BCF00007499DF8073003F00F03043B5201D2B20D
:10BD00000B441A7600BF02B0704700BF00E100E0AC
:10BD100000ED00E000B583B003460A468DF8073019
:10BD200013468DF806309DF80630012B03D99DF897
:10BD30000630032B0BD99DF80630042B03D99DF850
:10BD40000630072B03D908496B20FDF76FF99DF8E2
:10BD500006209DF9073011461846FFF7B3FF00BFD4
:10BD600003B05DF804FB00BF7098030000B583B01A
:10BD700003468DF807309DF907301846FFF766FF38
:10BD800000BF03B05DF804FB00B583B003468DF837
:10BD900007309DF907301846FFF772FF00BF03B068
:10BDA0005DF804FB82B00190034A019BC2F80433A2
:10BDB00000BF02B0704700BF00D0004082B00190C9
:10BDC000034A019BC2F8083300BF02B0704700BFAE
:10BDD00000D0004082B003468DF807309DF8073050
:10BDE00003F1804303F5504301221A6000BF02B003
:10BDF000704784B00346ADF80630BDF8063003F155
:10BE0000804303F5504300221A60BDF8063003F169
:10BE1000804303F550431B680393039B00BF04B0AA
:10BE20007047000082B00190054BD3F80022019BBF
:10BE3000DB4303491340C1F8003200BF02B0704732
:10BE400000D00040024BD3F80835DBB218467047EB
:10BE500000D00040044BD3F80435034A43F00103FB
:10BE6000C2F8043500BF704700D0004000B583B071
:10BE700001900091019B002B03D118493E20FDF752
:10BE8000D5F8009B002B03D114493F20FDF7CEF8D5
:10BE9000134B1B78002B01D085231BE0114A009B1C
:10BEA0001360019B1B7803F00103DBB2002B01D070
:10BEB000FFF7D0FF0120FFF7B5FF019B5B78194624
:10BEC0000D20FFF727FF0D20FFF750FF044B012245
:10BED0001A700023184603B05DF804FBA89803000D
:10BEE000BC2D0020C02D002008B50A4B1B78012B6B
:10BEF00003D009495620FDF799F84FF48070FFF7F9
:10BF000078FF0120FFF74EFF0020FFF763FF00BF1F
:10BF100008BD00BFBC2D0020A898030008B5084B41
:10BF20001B78012B03D007495E20FDF77FF8012025
:10BF3000FFF744FF0420FFF74DFF00BF08BD00BF1F
:10BF4000BC2D0020A898030008B50B4B1B78012BD3
:10BF500003D00A496520FDF769F80120FFF72EFF9D
:10BF60000420FFF737FF0D20FFF70EFF024B0022E2
:10BF70001A7000BF08BD00BFBC2D0020A8980300A8
:10BF800000B583B04FF48070FFF733FFFFF75AFF1F
:10BF900003468DF80730054B1B689DF807201046B7
:10BFA000984700BF03B05DF804FB00BFC02D002020
:10BFB00082B003468DF807309DF90730002B0CDB6B
:10BFC0009DF8073003F01F0205499DF907305B0912
:10BFD000012000FA02F241F8232000BF02B07047AE
:10BFE00000E100E082B003468DF807309DF907308C
:10BFF000002B13DB9DF8073003F01F0209499DF960
:10C0000007305B09012000FA02F2203341F82320B7
:10C01000BFF34F8F00BFBFF36F8F00BF00BF02B0F1
:10C02000704700BF00E100E082B0034600918DF848
:10C0300007309DF90730002B0ADB009BDAB20C4970
:10C040009DF907305201D2B20B4483F800230BE074
:10C05000009BDAB207499DF8073003F00F03043B59
:10C060005201D2B20B441A7600BF02B0704700BF33
:10C0700000E100E000ED00E082B00190019B1B0BAD
:10C080005BB2184602B0704700B583B003460A465B
:10C090008DF8073013468DF806309DF80630012BD9
:10C0A00003D99DF80630032B0BD99DF80630042BDD
:10C0B00003D99DF80630072B03D908496B20FCF7FC
:10C0C000B5FF9DF806209DF9073011461846FFF789
:10C0D000ABFF00BF03B05DF804FB00BF189903007D
:10C0E00000B583B003468DF807309DF90730184638
:10C0F000FFF75EFF00BF03B05DF804FB00B583B03F
:10C1000003468DF807309DF907301846FFF76AFFA0
:10C1100000BF03B05DF804FB84B001900B46ADF89E
:10C120000230BDF80230019A134400221A60BDF8B3
:10C130000230019A13441B680393039B00BF04B0B1
:10C14000704782B001900B46ADF80230BDF8023066
:10C15000019A13441B68002B14BF01230023DBB298
:10C16000184602B0704782B001900091019B009A7E
:10C17000C3F8042300BF02B0704782B00190009161
:10C18000019BD3F80423009B1340002B14BF012311
:10C190000023DBB2184602B0704782B001900091D4
:10C1A000019B009AC3F8082300BF02B0704784B017
:10C1B0000190019BD3F880340393019B039AC3F849
:10C1C0008024039B184604B0704782B00190019B05
:10C1D0000422C3F8002500BF02B0704782B001906E
:10C1E000019B0022C3F8002500BF02B0704784B055
:10C1F000039002910192039B019AC3F81425039BBB
:10C20000029AC3F80C2500BF04B0704700B583B094
:10C2100001904FF0FF324FF0FF310198FFF7E7FF39
:10C2200000BF03B05DF804FB82B00190019BD3F81E
:10C230000C35184602B0704782B00190019BD3F8CC
:10C240001435184602B0704782B00190019BD3F8B4
:10C250000835184602B0704782B00190019BD3F8B0
:10C260001035184602B0704784B0039002910192D5
:10C27000039B029AC3F80825039B019AC3F8102573
:10C2800000BF04B0704700B583B001904FF0FF329B
:10C290004FF0FF310198FFF7E7FF00BF03B05DF8F3
:10C2A00004FB82B00190019BD3F81835DBB218462D
:10C2B00002B0704782B001900B468DF803309DF8B4
:10C2C0000320019BC3F81C2500BF02B0704782B059
:10C2D00001900B468DF803309DF80330019A13440A
:10C2E00001221A6000BF02B0704782B001900B4675
:10C2F0008DF8033013468DF802309DF803209DF829
:10C3000002301343DBB21A46019BC3F86C2500BF11
:10C3100002B0704782B001900091019B009AC3F86F
:10C32000242500BF02B0704700B583B00190019B87
:10C330001B68184600F0A4F80346002B04D10B49F3
:10C340004FF4F670FCF772FE019B1B681F2B02D89E
:10C350004FF0A04306E0019B1B6803F01F02019B06
:10C360001A60034B184603B05DF804FB4C990300B8
:10C370000003005000B585B00190084611461A46EA
:10C3800003468DF803300B468DF8023013468DF8C6
:10C39000013001AB1846FFF7C7FF03909DF803205B
:10C3A0009DF802305B001A439DF801309B001A4350
:10C3B0009DF818301B0242EA03019DF81C301B0453
:10C3C000019A1943039B02F5E07243F8221000BF63
:10C3D00005B05DF804FB00B585B003900023019320
:10C3E000002300930023012201210398FFF7C2FFDD
:10C3F00000BF05B05DF804FB00B585B003900B46A7
:10C400008DF80B309DF80B30002201920022009233
:10C41000002200210398FFF7ADFF00BF05B05DF8D3
:10C4200004FB00B585B00390002301930023009323
:10C430000023012200210398FFF79CFF00BF05B0F5
:10C440005DF804FB00B585B0019001AB1846FFF71D
:10C450006BFF0390019B012202FA03F31946039834
:10C4600000F004F800BF05B05DF804FB82B0019055
:10C470000091019B009AC3F8082500BF02B07047E5
:10C4800084B00190019B5B09029300230393029BFC
:10C49000002B03D0029B012B04D007E04FF0FF33A9
:10C4A000039303E04FF6FF73039300BF019B03F078
:10C4B0001F030193039A019B22FA03F303F0010384
:10C4C000002B14BF01230023DBB2184604B07047D1
:10C4D00000B583B001900091009B1B68B3F1FF3F52
:10C4E00009D0009B1B681846FFF7ACFF009B1B6838
:10C4F0001846FFF770FF009B5B68B3F1FF3F05D064
:10C50000009B5B6800211846FFF776FF019B1A68C5
:10C51000009B9B6919461046FFF7FCFE019B1868BB
:10C52000009B597D009B1B7D1A46FFF7DEFE019B99
:10C530001868009B1968009B5B681A46FFF757FE56
:10C54000009B1B7D012B22D1009B9B68B3F1FF3F19
:10C5500005D0009B9B6800211846FFF74DFF009B0C
:10C56000DB68B3F1FF3F09D0009BDB681846FFF79B
:10C5700069FF009BDB681846FFF72DFF019B1868D9
:10C58000009BD968009B9B681A46FFF76DFE00BFB1
:10C5900003B05DF804FB000000B583B001900B46CA
:10C5A0008DF80330019B1B684FF48E711846FFF71E
:10C5B000B3FD019B1B684FF4A2711846FFF7ACFD59
:10C5C000019B1B680E491846FFF7CDFD019B1B68B8
:10C5D0001846FFF751FD03461A469DF803301946E9
:10C5E0001046FFF751FD019B1B681846FFF744FDFD
:10C5F00003461846FFF774FD00BF03B05DF804FB67
:10C600008000020000B583B00190019B1B680849BF
:10C610001846FFF7C2FD019B1B681846FFF72CFD6B
:10C6200003461846FFF76AFD00BF03B05DF804FB40
:10C630008402020000B587B00190019B1B68184678
:10C64000FFF7F2FD0590019B1B681846FFF7F4FD0C
:10C650000490019B1B681846FFF7F6FD0390019BB1
:10C660001B681846FFF7F8FD0290019B1B681846EF
:10C67000FFF7CCFD019B1B681846FFF704FE059BE6
:10C68000B3F1FF3F02D00598FFF7CBFE049BB3F157
:10C69000FF3F02D00498FFF7C4FE029BB3F1FF3FB7
:10C6A00002D00298FFF7BDFE039BB3F1FF3F02D01B
:10C6B0000398FFF7B6FE00BF07B05DF804FB00006B
:10C6C00000B587B0039002910192029B002B03D129
:10C6D0002D49AA20FCF7AAFC039B1B791A462C23A0
:10C6E00003FB02F3294A1344049300230593049B9C
:10C6F00093F82A30002B03D008230593059B3EE0D6
:10C70000039B1A68039B1B791946214B53F8213070
:10C7100019461046FFF73AFA0346002B03D01123BF
:10C720000593059B2BE002990398FFF7D1FE049B2C
:10C73000019A5A60029B1A69049B1A60049B5B6809
:10C74000002B05D0029B1B7F19460398FFF724FF9F
:10C75000039B1B681846FFF738FD049B00229A6173
:10C76000049B0022DA61049B002283F82920049BA9
:10C7700000225A61049B012283F82A20059B184657
:10C7800007B05DF804FB00BF84990300C42D0020AE
:10C79000F499030000B585B00190019B1B791A46FE
:10C7A0002C2303FB02F3114A13440393019B1B68E0
:10C7B0001846FFF713FD039B5B68002B02D001981E
:10C7C000FFF720FF0198FFF735FF019B1B68184614
:10C7D000FFF71EFA039B002283F82A20039B002206
:10C7E0005A6000BF05B05DF804FB00BFC42D0020F7
:10C7F00000B585B0019000914FF48E710198FFF75C
:10C800008BFC009B9A68009B1B6A13441B788DF875
:10C810000F30009B1B6A5A1C009B1A629DF80F3058
:10C8200019460198FFF746FD00BF05B05DF804FB0F
:10C8300000B585B001900091009B5B69039316E001
:10C84000009B93F82830DBB2002B01D0002314E0CA
:10C850004FF48E710198FFF774FC034683F00103D7
:10C86000DBB2002BECD100990198FFF7C1FF009BD0
:10C870001B6A039A9A42EBD80123184605B05DF86B
:10C8800004FB000000B587B0039002910192039B66
:10C890001B791A462C2303FB02F33C4A13440493EE
:10C8A000049B93F82A30012B04D039494FF48C7043
:10C8B000FCF7BCFB029B002B04D1354940F2191058
:10C8C000FCF7B4FB019B002B04D131494FF48D7070
:10C8D000FCF7ACFB039800F05DF80346002B03D097
:10C8E00011230593059B4CE0049B019A5A61049B1C
:10C8F000029A9A60049B00221A62049B002283F829
:10C90000282000230593039B1B684FF48E71184663
:10C91000FFF702FC039B1B6808211846FFF7D7FCB2
:10C92000039B1B6804991846FFF762FF049B5B6832
:10C93000002B25D1039B1B6804991846FFF778FF4D
:10C94000034683F00103DBB2002B02D00F230593D3
:10C9500013E000BF039B1B684FF48E711846FFF76E
:10C96000F0FB034683F00103DBB2002BF2D1039B03
:10C970001B680C211846FFF7AAFC049B00225A6191
:10C98000059B184607B05DF804FB00BFC42D0020CE
:10C990008499030082B00190019B1B791946074AD4
:10C9A0002C2303FB01F3134414331B68002B14BF27
:10C9B00001230023DBB2184602B07047C42D0020CB
:10C9C00010B582B001900091009B9B69002B08D1AB
:10C9D0004FF484710198FFF79FFB0198FFF761FC0A
:10C9E00013E04FF484710198FFF796FB009BDA681F
:10C9F000009B5B6AD4180198FFF753FC0346237031
:10CA0000009B5B6A5A1C009B5A6202B010BD00B5C5
:10CA100089B003900291019201238DF81030029B9E
:10CA20000693019B0593039B5B68039A116804AA14
:10CA30001046984700BF09B05DF804FB00B587B009
:10CA40000190009100238DF80830009B0493019B16
:10CA50009B680393019B00225A61019B5B68019ACA
:10CA6000116802AA1046984700BF07B05DF804FBA2
:10CA700000B58BB0019000914FF400710198FFF761
:10CA80007CFB0346002B39D04FF492710198FFF7DD
:10CA900058FB0346002B31D04FF492710198FFF7F9
:10CAA0003BFB4FF401710198FFF777FB009B93F874
:10CAB000293083F00103DBB2002B03D0042101985D
:10CAC000FFF705FC02238DF80C300198FFF76FFB90
:10CAD00003460693009B9B690593009BDB680493C8
