:020000040000FA
:1000000070270020F9020000010300000303000034
:1000100005030000070300000903000000000000C2
:100020000000000000000000000000000B030000C2
:100030000D030000000000000F030000110300008A
:100040001303000013030000F10600005504000034
:100050001303000013030000A103000013030000BA
:100060001303000013030000130300001303000038
:100070001303000013030000130300001303000028
:1000800013030000450400001303000013030000E5
:100090001303000013030000130300001303000008
:1000A00013030000130300001303000013030000F8
:1000B0001303000013030000000000000000000014
:1000C00013030000130300001303000013030000D8
:1000D00013030000130300001303000013030000C8
:1000E00013030000130300001303000000000000CE
:1000F00000000000130300000000000013030000D4
:1001000000000000000000000000000000000000EF
:1001100000000000000000000000000000000000DF
:1001200000000000000000000000000000000000CF
:1001300000000000000000000000000000000000BF
:1001400000000000000000000000000000000000AF
:10015000000000000000000000000000000000009F
:10016000000000000000000000000000000000008F
:10017000000000000000000000000000000000007F
:10018000000000000000000000000000000000006F
:10019000000000000000000000000000000000005F
:1001A000000000000000000000000000000000004F
:1001B000000000000000000000000000000000003F
:1001C000000000000000000000000000000000002F
:1001D000000000000000000000000000000000001F
:1001E000000000000000000000000000000000000F
:1001F00000000000000000000000000000000000FF
:10020000DFF80CD000F0BAF800480047750C000089
:100210007027002030B4044654E8000F0D4644E82F
:100220000053002BF8D1156030BC704730B4044641
:1002300054E8000F40EA010544E80053002BF7D1D1
:10024000156030BC704730B4044654E8000F00EA33
:10025000010544E80053002BF7D1156030BC70470E
:1002600030B4044654E8000F80EA010544E8005326
:10027000002BF7D1156030BC704730B4044654E809
:10028000000F00EB010544E80053002BF7D1156087
:1002900030BC704730B4044654E8000FA0EB0105B1
:1002A00044E80053002BF7D1156030BC704770B4A0
:1002B00004464FF0000054E8006F0D68AE4207BFDF
:1002C00044E80023012044E800630E60002B1CBFBB
:1002D0000020F0E770BC704730B4044654E8000FCB
:1002E00088422CBF451A054644E80053002BF5D13F
:1002F000156030BC7047000006488047064800473C
:10030000FEE7FEE7FEE7FEE7FEE7FEE7FEE7FEE7C5
:10031000FEE7FEE7A9040000010200000048704764
:10032000B42B000040EA01039B0703D009E008C991
:10033000121F08C0042AFAD203E011F8013B00F8AA
:10034000013B521EF9D27047D2B201E000F8012BF6
:10035000491EFBD270470022F6E710B513460A4645
:1003600004461946FFF7F0FF204610BD421C10F866
:10037000011B0029FBD1801A70470000064C074D75
:1003800006E0E06840F0010394E807009847103465
:10039000AC42F6D3FFF738FF802C0000A02C000001
:1003A0002DE9FC410025DFF8948000954FF480761C
:1003B00001242F460195304601F06AF838B1D8F88B
:1003C0000403204203D0304601F058F82543361D7F
:1003D00064007F1CB6B2082FEDD34FF4BE742046E4
:1003E00001F056F848B1204601F048F845F00045C4
:1003F0006A460221002000F0A7FF15F0FF0F16D07B
:10040000012600242E420ED008EB8401D1F81005FD
:10041000D1F81015C0F30520094AC1F3014152F883
:10042000242002B190477600641C082CEAD3002DEA
:1004300002DA684601F050FFBDE8FC810060004030
:10044000D400002002490248091F096800680847D3
:1004500034000020F8B51248124E04464FF48C7157
:1004600001F0DDFB00281AD00025C4F81851D4F89B
:1004700018010090F07F3446FF2806D0A17F11B10B
:1004800000F07AFF01E000F0C7FF65772572D4E93C
:10049000002101B004F10800BDE8F0401047F8BDAC
:1004A0000030004040010020F0B54FF080527F4EF8
:1004B000D2F830017E4FD2F83411431C08D00546E3
:1004C0004FEA010400234FF0010C082D05D013E082
:1004D0003B783578C3F30314F4E72CB1012C03D037
:1004E000022C01D0032C07D14FF08044C4F80C310A
:1004F000C4F810316F4C2360441C04D005460C46F0
:10050000082D05D061E03C783578C4F30314F7E793
:100510002CB1012C03D0022C01D0032C55D1664CF8
:100520002468664D2C60644C241D24682D1D2C60AD
:10053000614C083424682D1D2C605F4C0C342468F9
:100540002D1D2C605C4C103424682D1D2C605A4CE1
:10055000143424682D1D2C60574C18342468574DD2
:1005600020352C60544C1C3424682D1D2C60524CBA
:10057000203424682D1D2C604F4C243424682D1DFC
:100580002C604D4C283424682D1D2C604A4C2C3492
:1005900024682D1D2C60484C30342468474D40356C
:1005A0002C60454C343424682D1D2C60424C38346A
:1005B00024682D1D2C60404C3C3424682D1D2C607B
:1005C0003D4C403424682D1D2C60082804D10C00BB
:1005D00002D13C4D3A4C2C60082804D10C0002D1C9
:1005E000394DFB242C60082808D10C0006D192F864
:1005F0005852364A146865F303041460082804D17D
:100600000A0002D1324C82012260421C03D13978A7
:100610003078C1F3031108280DD129B1012903D085
:10062000022901D0032906D12A480168C90702D04E
:100630006FF0010101602848016841F47001016018
:10064000BFF34F8FBFF36F8F4FF01021D1F800022F
:10065000002803DBD1F80402002823DA1F4AC2F87D
:1006600000C01F480468002CFCD01224C1F80042CE
:100670000568002DFCD0C1F8044201680029FCD0B7
:10068000136001680029FCD0BFF34F8F12487C38FB
:100690000168144A01F4E06111430160BFF34F8F18
:1006A00000BFFDE7114910480860F0BDE00F00F001
:1006B000E80F00F0380500400404001020C5004099
:1006C000488103008C56004018F50040E40E0040BD
:1006D000409602400004004088ED00E004E501403F
:1006E00000E401400400FA050090D003B0000020AF
:1006F00001480068004700002400002002E008C80C
:10070000121F08C1002AFAD170477047002001E08B
:1007100001C1121F002AFBD17047000072B601F020
:1007200093F900BF00F09AFF0028FBD1114812494D
:10073000401AC408012000EB044010A101F0FCF8AD
:1007400011480068C00700D000BE022000EB044042
:100750000EA101F0F1F8BFF34F8F0B48E4380168A8
:100760000E4A01F4E06111430160BFF34F8F00BFF7
:10077000FDE70000F02C0000B02C00004661746121
:100780006C206572726F7200F0ED00E05379737443
:10079000656D207265736574000000000400FA0541
:1007A0000EB500210091CDE901106A4644F2010026
:1007B000FFF7B4FF0EBD00F003B800F009B8000069
:1007C00072B602480168491C016070472C00002085
:1007D00003490868401E086000D162B670470000F7
:1007E0002C00002070B5054608680C46411C04D05A
:1007F00000F01CFE206800F07BFD6068411C02D008
:10080000002100F059FD2968A069C1F82405607D28
:10081000227D29681043C1F86C05D4E900122868CC
:10082000C0F81425C0F80C15207D012814D1A0684B
:10083000411C02D0002100F03FFDE068411C04D0C3
:1008400000F0F4FDE06800F053FDD4E902122868DE
:10085000C0F80825C0F8101570BD70B505460868C9
:100860000C46411C04D000F0EBFD206800F04AFD6E
:100870006068411C02D0002100F027FD2968A069B2
:10088000C1F82405607D217D2A680843C2F86C0503
:10089000D4E900122868C0F80C15C0F81425207D92
:1008A000012814D1A068411C02D0002100F00DFDE8
:1008B000E068411C04D000F0C3FDE06800F022FDB8
:1008C000D4E902122868C0F80825C0F8101570BDD8
:1008D0002DE9FC410646C0074FF000050ED0104F31
:1008E00000240122385D009500231146019500F097
:1008F0006DFC641C042CF4D300F032F8B0070DD565
:10090000074E0024361D0022305D0323009511465A
:10091000019500F05BFC641C042CF4D3BDE8FC8161
:10092000BC2A0000094908B5085C0090684600F040
:100930002DFDD0F80425009B0121994021EA0203F6
:10094000C0F808351140C0F80C1508BDBC2A0000DD
:100950000249085C012100F07DBD0000BC2A0000B6
:1009600010B500242046FFF7F3FF641C042CF9D3D4
:1009700010BD00002DE9F0470546861C91460F4644
:100980004FF0010A0020FFF716FF1B4C04F21C4831
:1009900060683860D4E90101184F401A3968081AB4
:1009A0000EE00121404600F02FFA00F011F9014657
:1009B000404600F029FAD4E90101401A3968081AC2
:1009C000401C8642EDD8B9F1000F03D0052065F335
:1009D000891002E0062065F39F5061683A68114073
:1009E00004EB8101C8606068304460600020FFF75C
:1009F000E4FE5046BDE8F0874C0300205C00002078
:100A000070B50D4604460A2902D10D21FFF7F8FF03
:100A1000A0682268411CA1601554D4E901018142FB
:100A200004D32046BDE8704000F0D7BA70BD000086
:100A3000044881684068814201D10120704700204C
:100A4000704700004C0300200249084490F9300030
:100A500070470000D400002010B50021024800F0CB
:100A6000DEF980F3100010BD680700202DE9FC5F5F
:100A70000E008346DDE90C47C6F100009846924619
:100A8000814600D40846012503E000BF90FBFAF040
:100A90006D1C5045FADAA84500D9454624B1002E10
:100AA00001DB780700D5641EB80702D5B8F1000F46
:100AB0000AD0F80708D13CB1A54205D220215846FA
:100AC000641EFFF79DFFF6E7002E02DA4E462D2149
:100AD00002E0780703D52B215846FFF791FF07F076
:100AE000030002280BD1B8F1000F08D13CB1A54298
:100AF00005D230215846641EFFF782FFF6E7CDE9A4
:100B00000047434652463146584601F065FFBDE86E
:100B1000FC9F000070B50D46044600684FF48871D4
:100B200001F098F84FF49071206801F093F84FF4B9
:100B30009271206801F08EF84FF4A271206801F0E4
:100B400089F84FF4AC71206801F084F820681249EC
:100B5000C0F804132068690740F30730090E002825
:100B600004DB00F1E02080F8001405E000F00F0045
:100B700000F1E02080F8141D206840F307300028C1
:100B800009DB00F01F02012191404009800000F1C3
:100B9000E020C0F8001170BD1003420002460020A2
:100BA0001268530713D502F00300012802D002286F
:100BB0000CD105E0C2F383100B68801C184404E0DC
:100BC0000223086803EB925210440860012070472A
:100BD0002DE9FF410026244800F013F92248001FA8
:100BE000074600F00EF9214C2149A06800900D68DD
:100BF00000E000986946284004EB80000C30FFF7C5
:100C0000CDFF0028F5D101AA009901EA050304EB04
:100C10008303491CDB6842F82030401C0091022805
:100C2000F2D3019800F0030001280BD0022810D164
:100C30000198032101EB90500099BDF80A6001EB87
:100C4000900005E00198BDF80A60C0F383100844E5
:100C50000090384600F0D2F808B10098A06004B0C7
:100C60003046BDE8F0810000640700204C030020FE
:100C70005C0000201FB50120FFF72AFE4FF48041E1
:100C8000002000F0B5FE08B1FFF78AFD00F0D8FCA7
:100C9000234B0FCB8DE80F001F208DF803001E2083
:100CA0008DF802001D208DF801001A208DF800003B
:100CB0001B4800231B4A6946143800F015F908B197
:100CC000FFF76EFD18481949401AC008032101EBCF
:100CD000004017A100F030FE1B4C4FF0000800BF91
:100CE000C4F80880A4F80C8084F80E8084F8008092
:100CF00000E020BF20780028FBD000BF00F0AEFC51
:100D00000028FBD1FFF70EFE054DC8261C3D4FF411
:100D10007A47691C38468847761EFAD1E0E700001A
:100D2000AC2A000045250000F02C0000B02C00008B
:100D3000535049206578616D706C652073746172E1
:100D40007465642E00000000000000202DE9F047CB
:100D5000C5881E1DB6FBF5F78946B6FBF5F10446BE
:100D600005FB176C407916686843DDF820A0F7187A
:100D7000001F874200D9C61A166001E02468491E88
:100D80000029FBD1A5EB0C078846B74216D818E01E
:100D900004EB0C00001D09EB0803BAF1000F3A4602
:100DA00002D00146184600E01946FFF7BBFA246856
:100DB000F61B4FF0000CB844B54201D9374600E0AD
:100DC0002F46002EE4D1BDE8F087000030B5024682
:100DD00051B100F021FE0021074C08E034F8213029
:100DE0001568AB4202D11160002030BD491C814220
:100DF000F4D3052030BD000000000000002100F009
:100E000009B8012100F010B808B56A46FFF735FAB5
:100E1000009808BD08B56A46FFF715FA08BD08B581
:100E20006A46FFF7F7F908BD08B56A46FFF7FEF90D
:100E3000009808BD08B56A46FFF72CFA009808BD6F
:100E400070B5044600252846FFF7B5FC21686268A6
:100E5000086890420ED9401E08600178238AE26833
:100E600001FB0325227A2168101AC0B20A79824256
:100E700000D208710020FFF7A0FC284670BD70B5B5
:100E800005460C460020FFF796FCE868298A201AE0
:100E9000B0FBF1F12A681068431C13600170BDE8D3
:100EA00070400020FFF789BC10B530B1017A42686C
:100EB0000368891AC9B21A6006E00E2010BD0368E3
:100EC0001A68541C1C601170491EC9B2F7D2006820
:100ED00000210171084610BDC20800F0070301207F
:100EE000895C9840084070472DE9FF411C46037813
:100EF000164D174E45F82320103545F82340F0CE07
:100F00008DE8F0000C788DF800404C788DF80140A9
:100F10008C788DF80240CC788DF803400C798DF8F0
:100F200005404C798DF806408C6802940C7B8DF856
:100F30000C40497B8DF80D1002B1064A6946001D30
:100F400000F0B8FE04B0BDE8F0810000B40000205D
:100F5000C42A0000BD250000F0B5054604781548F8
:100F600089B0164640F82420124A08690832A2F1D6
:100F70000C0742F82400487F385520226846FFF7C6
:100F8000D1F904942878385C48B10EB10A4A00E0DF
:100F900000226946281D01F081F809B0F0BD0EB1AC
:100FA000064A00E00022694605F10C0000F040FF0F
:100FB000F3E700001400002095280000DD26000063
:100FC0000FB408B50399002904D004AA00926A4618
:100FD00000F00FF801B05DF814FB10B5826804460C
:100FE000002A05D0D4E90403216898470020A060B6
:100FF00010BD2DE9FC4791460C00804676D014F8D0
:10100000011B39B125290ED04046FFF7F9FC2078A5
:101010000028F4D198F80C00002867D04046BDE8BD
:10102000FC47FFF7DABF0020012221782B291BD0D3
:101030002D2902D0302908D102E040F0010001E062
:1010400040F00200641C002AEFD100252A290ED0AE
:101050002178A1F130020A2A11D205EB850201EBB9
:101060004205641C303DF1E740F00400EAE7D9F89E
:1010700000100B1DC9F800300968641C0D4421786C
:1010800000232E290BD114F8011FA1F130020A2AE6
:1010900005D203EB830201EB4203303BF3E76C29FB
:1010A0000DD068290BD0692921D00BDC252918D057
:1010B000582931D063290ED0642915D117E014F8CE
:1010C000011FECE7702969D0732932D075291BD034
:1010D000782909D120E0D9F80000011DC9F80010D5
:1010E00001784046FFF78CFC641C90E76CE0D9F86F
:1010F00000100A1DC9F800200968CDE900500A2235
:101100004046FFF7B3FCEFE7D9F800100A1DC9F815
:10111000002009680A2206E0D9F800100A1DC9F863
:10112000002009681022CDE90050404601F054FC2F
:10113000DAE7D9F8001000270A1DC9F800200E6868
:10114000C00705D112E04046761C7F1CFFF758FC13
:1011500031780029F7D104E0202140466D1EFFF7C9
:101160004FFCBD42C0D9002DF6D1BDE74EB130468F
:10117000FFF7FCF8074604E0202140466D1EFFF70C
:101180003FFCBD4206D9002DF6D103E04046761C57
:10119000FFF736FC31780029F8D1A5E7D9F800002F
:1011A000011DC9F80010056830214046FFF728FCF2
:1011B00078214046FFF724FC08200021CDE90001FA
:1011C000034610222946B0E7BDE8FC872DE9FF4120
:1011D0001C46DDE90A7815460E46684600F0D6F84A
:1011E00046EA450141EA840141EA072242EA084110
:1011F000009A00EB8200C0F80017BDE8FF812DE9DE
:10120000FF411C46DDE90A7815460E46684600F0A7
:10121000D9F846EA450141EA840141EA072242EA57
:101220000841009A00EB8200C0F80017BDE8FF817A
:101230002DE9FF411C46DDE90A7815460E46684651
:1012400000F0CEF846EA450141EA840141EA07226E
:1012500042EA0841009A00EB8200C0F80017BDE89E
:10126000FF812DE9FF411C46DDE90A7815460E464F
:10127000684600F0C3F846EA450141EA840141EAC4
:10128000072242EA0841009A00EB8200C0F80017EA
:10129000BDE8FF811CB5002100910B4601220191A0
:1012A000FFF7C6FF1CBD1CB5002100910B460122B3
:1012B0000191FFF7D6FF1CBD1CB500220B46009222
:1012C00011460192FFF7B4FF1CBD1CB500220B466E
:1012D000009211460192FFF7C4FF1CBD1CB500210E
:1012E00000910B46012201911146FFF788FF1CBDBA
:1012F0001CB5002100910B46012201911146FFF718
:1013000097FF1CBD1CB5002100910B4601220191E5
:101310001146FFF7A6FF1CBD13B50C46684600F04A
:1013200043F8009900EB8101D1F8002722F4403204
:10133000C1F80027009900EB8100D0F8001741EABE
:101340000441C0F800171CBD3CB50A4CD4E9003478
:10135000CDE900346B46441808E000BF53F8201074
:10136000D1F8205520C2C1F82055401C8442F5D840
:101370003CBD0000D42A000001B5684600F022F808
:10138000009A01219140C0F80C1508BD0168202980
:1013900002D24FF0A040704701F01F0101600148E8
:1013A00070470000000300500168202902D24FF06E
:1013B000A040704701F01F01016001487047000024
:1013C000000300500168202902D24FF0A04070476E
:1013D00001F01F0101600148704700000003005048
:1013E0000168202902D24FF0A040704701F01F0190
:1013F0000160014870470000000300500168202987
:1014000002D24FF0A040704701F01F010160014877
:10141000704700000003005001B56846FFF7D2FF97
:10142000009A01219140C0F8081508BD01B5684631
:10143000FFF7D6FF009A01219140C0F8081508BDBA
:1014400001B56846FFF7DAFF009A01219140C0F824
:10145000081508BD38B501240090684631B1FFF782
:1014600095FF00998C40C0F8084538BDFFF78EFF06
:1014700000998C40C0F80C4538BD0000034908B500
:101480000844002101600068009008BD0060004031
:1014900002494058012800D00020704700600040F9
:1014A00030B5154A01460020D2F8104423460AE020
:1014B000DB681D79854205D1401C0A28F6DB4FF018
:1014C000FF3030BD1B68002BF2D1431CF9D0CB6834
:1014D0001871D2F8103443B1DB68CC681B68236004
:1014E000D2F81024D268116030BDC2F81014C96857
:1014F00000220A6030BD00004C030020F0B595B01A
:101500001C4615460F4608461A9E00F055FB18214A
:1015100009A8FEF720FF0E96CDE909540023082202
:1015200003A9384600F05DFB05980690BDF8100051
:10153000ADF81C00BDF81200ADF81E0000208DF8BB
:1015400021000398082600F00300012802D0022899
:1015500018D032E003983346850AC0F3C2008DF8F4
:10156000200003980FA9C0F38314A200384600F0AE
:1015700038FB09A8009006AB22460FA9284600F0C8
:1015800077FA1AE00398840DC0F3C2008DF82000AA
:10159000082C01D2254600E0082533462A460FA92B
:1015A000384600F01EFB2E44641B09AB06AA2946F0
:1015B0000FA800F0C5F9002CEAD1384600F002FB74
:1015C00015B0F0BD7047012001F0A6B8084810B56D
:1015D0000178084A515C19B1001D00F0F9FD02E0E4
:1015E0000C3000F0F3FCBDE81040002001F094B88E
:1015F000400000201000002008B5034A009240235C
:10160000024AFFF77BFF08BD05250000B40100205A
:101610000A4A012902EBC00007D0022907D003299A
:1016200007D0042907D0002070470220704704200B
:10163000704700797047407970470000B02C000077
:1016400010B5FFF7C0FF04210348FFF729FF024947
:101650000120C968487110BDA02C00002DE9F04799
:101660008CB0FFF7E5F918B100200CB0BDE8F087A9
:101670007D4C0020C4F81804BFF34F8F7B49A0684D
:1016800002900D684FF00008284004EB80000BE04A
:10169000D4F8180470B961680298814201D8A16039
:1016A000E2E7284004EB80000C3002A9FFF776FA4D
:1016B0000028EDD1002003AA029901EA050304EBFA
:1016C0008303491CDB6842F82030401C0291022849
:1016D000F2D3039800F00300022802D001284DD075
:1016E000A7E003985022810D8946B2EB905F00D8A5
:1016F00050210E4666F39F50039008315C4800F07D
:1017000012FA070078D000F057FA4346082203A9DE
:10171000384600F06EFA029908F1080A2940681A62
:101720008000001D864222D94F4D0C3530B1C2B227
:1017300004EB8101301A90460C3104E02946F2B2E4
:10174000002590462846C6B25346384600F051FA66
:101750000AEB080325B132462946384600F049FA1B
:10176000029909F1030001EB900002903BE004EBC9
:1017700081015346324638460C31EFE70398C0F3F7
:101780008310062800D30620039960F38911C1F362
:101790008310801C03918100354800F0C4F90700D4
:1017A00047D000F009FA4346082203A9384600F062
:1017B00020FA08F1080800260FE00298434600EAE4
:1017C0000501401C04EB81010290042238460C31D3
:1017D00000F00FFA08F10408761C0398C0F3831098
:1017E000B042EAD847B1D4F81054D4F8180478B10C
:1017F000384600F0E7F931E01BE0E868407901285D
:1018000004D12A682846394612689047E868056876
:10181000002DF2D1384600F0D5F90020FEF7CBFFBD
:10182000D4F8180408B90298A0600020FEF7C5FF9C
:1018300014E0D4F8104405E0216820468968884700
:10184000E0680468002CF7D10A480B49401AC00828
:10185000022101EB004009A100F06EF8FFF7E8F863
:1018600080F0010001E700004C0300205C00002034
:10187000F82C0000F02C0000B02C00004261636BDB
:10188000656E647320666C757368656400000000A3
:101890002DE9F84F8146264FD01C15468A46800810
:1018A000002269463E68FFF765F8DFF88880B0B32C
:1018B000009CA01C009039683040091A8F003F1D21
:1018C000BD4208EB800002D82A46514608E03A465D
:1018D00051460C30FEF726FD1648EA1B0AEB0701BD
:1018E0000C30FEF71FFD4FEA1947FFF7B5F847EA3E
:1018F0000042601C304008EB8000344008EB84015B
:10190000C260C8684FF6C07269F3C500904365F3C2
:101910009F5020F00300801C20F00400C86098F85D
:10192000000001E0FFF79AFE0028FBD1BDE8F88F28
:101930005C0000204C03002000231A4600F05ABE31
:101940002DE9F0470E4680461C469246082940D8AD
:1019500094F80C90002020731946104600F04AFDC0
:101960000025B54206D218F805201BA12046FFF736
:1019700027FB03E01AA12046FFF722FB6D1C082D70
:10198000EFD318A12046FFF71BFB0025B54212D26A
:1019900018F805707E2F08D8FEF7C0FC0068C05DFF
:1019A00010F03E0F01D03A4600E02E220EA1204654
:1019B000FFF706FB03E00DA12046FFF701FB6D1CBE
:1019C000082DE3D301222146504600F0F5FC84F8AF
:1019D0000C90BDE8F0870000202530327800000030
:1019E000202020007C000000256300002000000073
:1019F000064910B500200870054800F0E1F80028FD
:101A000003D1044800F0FDF8002010BD4C03002075
:101A1000F82C0000242B000002480349401AC0089B
:101A200070470000F82C0000B02C000013B5684689
:101A3000FFF7CCF908B100201CBD0248009950F80E
:101A400031001CBDB02C000070B508480125D0F84D
:101A50001044057007E0E068457121682046496838
:101A60008847E0680468002CF5D170BD4C03002065
:101A70002DE9FF4781460C9D00200C462F7B2873E3
:101A8000984616462946184600F0B4FC072E42D266
:101A9000DFE806F004090F161F2A360049462846DB
:101AA000FFF78EFA37E0494628462268FFF788FAA2
:101AB00031E0D4E9002349462846FFF781FA2AE0BD
:101AC000A0680090D4E9002349462846FFF778FA39
:101AD00021E0D4E90201CDE90001D4E9002349461F
:101AE0002846FFF76DFA16E004F1080007C88DE8F4
:101AF0000700D4E9002349462846FFF761FA0AE0C7
:101B000004F108000FC88DE80F00D4E9002349460E
:101B10002846FFF755FA00222946404600F04CFCC3
:101B20002F73BDE8FF872DE9F041058A80462D1F00
:101B30004819C01CB0FBF5F0C6B24046FFF780F96B
:101B4000041E19D00020207101206071E58000275B
:101B50002546761EC4F800800BE04046FFF770F97A
:101B600060B16179491C6171286005467F1CC0F82D
:101B70000080B742F1D32046BDE8F081204600F056
:101B800002F80020F8E72DE9F041457901466B1E87
:101B9000002201E00968521C9A42FBD30F680146FB
:101BA000002605E038460C68FFF769F92146761CE7
:101BB000AE42F7D3BDE8F0810121001DFFF724B943
:101BC000FFF772B910B504460121001DFFF732F985
:101BD00010F0FF0F04D12046BDE81040FFF7D3BF3F
:101BE00010BD1CB501920122009201AAFFF7AEF8C8
:101BF0001CBD1CB501920022009201AAFFF7A6F8B5
:101C00001CBD826800219160826811618268516107
:101C10008268D16082685160806801607047405876
:101C2000002800D0012070474058002800D0012033
:101C3000704708B5002242504058009008BDD0F8C7
:101C40000403084000D0012070474058002800D00D
:101C50000120704708B5002242504058009008BD4E
:101C60000121B1EB507F01D1012070470020704766
:101C700070B50D4600F00AFC04000FD00020FEF7FE
:101C80009AFD207920B10020FEF797FD112070BD4C
:101C90000120256020710020FEF78FFD002070BD1F
:101CA00010B500F0F3FB002802D0002101600171A3
:101CB00010BD00002DE9FC470C4615460179804611
:101CC000554A01EBC10002EB80069946307F10B106
:101CD0000820BDE8FC87514AD8F80000074652F8B2
:101CE0002110FFF7C5FF08B11120F2E7C6E900593E
:101CF000207B0128207802D8FFF73EFB01E0FFF7A8
:101D00008BFB4FF0000ACDF800A0CDF804A020789E
:101D1000534652460121FFF772FA60784FF0FF35C3
:101D2000FF2806D08146FFF727FB4846FFF7D6FA83
:101D300000E0A946A078FF2809D00022054601232B
:101D4000CDF800A01146CDF804A0FFF758FAA0780E
:101D500086F82000E078F077E078FF280BD0217932
:101D600011B1FFF709FB01E0FFF756FBE078FFF741
:101D7000B5FA2079B0772178C7F80815C7F80C951F
:101D8000C7F81055A068C7F82405217B607B00B117
:101D90000120012904D0022905D0032908D105E03A
:101DA00040F0020004E040F0040001E040F00600D2
:101DB000C7F85405A079C7F8C0050720C7F8000583
:101DC0003068012218B3D8F80000617940F3073079
:101DD00000284FEA411104DB00F1E02080F80014F4
:101DE00005E000F00F0000F1E02080F8141DD8F8A5
:101DF000000040F30730002809DB00F01F0102FA61
:101E000001F14009800000F1E020C0F800115046C7
:101E100086F81DA032775CE740010020DC2A000034
:101E20000149024800F0A0BC6401002000200040ED
:101E30002DE9F0410546007916460F4600EB4001BA
:101E40002D4A01EBC00102EB810494F82A1011B174
:101E50000820BDE8F081294951F820102868FFF7D3
:101E600007FF08B11120F4E739462846FEF7BAFC0F
:101E700066603869206030004FF001062FD03F7F48
:101E80004FF48E712868FFF7D4FE4FF4A2712868D2
:101E9000FFF7CFFE28681A49C0F8041328684FEAF4
:101EA000471140F30730002804DB00F1E02080F800
:101EB000001405E000F00F0000F1E02080F8141D90
:101EC000286840F30730002809DB00F01F0106FAFC
:101ED00001F14009800000F1E020C0F800112868FD
:101EE0000421C0F800150020A061E06184F82900F9
:101EF00044F8140FA675ACE764010020E02A000046
:101F0000800002002DE9F05F054600790B4600EBEA
:101F1000400101EBC000244901EB8004284600F099
:101F200045F810B11120BDE8F09F62614FF0000943
:101F3000C4F82090A36084F828904FF48E784E4621
:101F400041462868FFF775FE28684FF0010AC0F87F
:101F500008A02146286800F097FB606808BBD5F808
:101F600000B067690FE000BF94F8280008B10F26A1
:101F700015E041465846FFF757FE0028F4D02146A9
:101F8000584600F081FB206AB842F2D357464146DA
:101F90002868FFF749FE0028F9D02868C760C4F810
:101FA00014903046BFE7000064010020007900EB88
:101FB000400101EBC000044901EB800040690028AA
:101FC00000D0012070470000640100202DE9F04797
:101FD000044600794FF0000900EB400101EBC0001E
:101FE000284901EB80072068C0F800957868B0B1F7
:101FF00020682549C0F80813206840F307300028FE
:102000000DDB00F01F02012191404009800000F12A
:10201000E020C0F88011BFF34F8FBFF36F8F2068AF
:10202000D0F80C25D0F81485D0F80865D0F81055F4
:102030004FF0FF31C0F81415C0F80C152068C0F837
:102040000815C0F81015501C02D01046FFF722F9F1
:10205000B8F1FF3F02D04046FFF71CF9681C02D0E0
:102060002846FFF717F9701C02D03046FFF712F927
:102070002068FFF715FE87F82A90C7F80490BDE89E
:10208000F087000064010020840202000149024838
:1020900000F018BC90010020002000402DE9F04124
:1020A0000546164600790F46154A00EBC00102EBC3
:1020B000810494F8201011B10820BDE8F081114985
:1020C00051F820102868FFF7D3FD08B11120F4E77C
:1020D00039462846FEF7C1FB6660386920601EB1AC
:1020E000397F2846FEF716FD28680821C0F800153C
:1020F0000020A061E0616061012184F82010DCE72C
:1021000090010020E42A00002DE9F04704460E4625
:102110000079274900EBC00001EB800517463046E7
:10212000FFF79EFD30B1204600F044F820B11120A9
:10213000BDE8F0871020FBE76F61AE604FF4907749
:102140004FF0000839462068FFF784FD4FF4AC7665
:1021500031462068FFF77EFD2068AA686969C0F8EB
:102160004425C0F8481520684FF00109C0F80890D0
:102170006868D0B9BA4651462068FFF766FD074641
:1021800031462068FFF761FD0743F4D010B14FF0EE
:102190000F0808E02068C0F80C9031462068FFF76F
:1021A00054FD0028F9D0002068614046C0E70000D7
:1021B000900100200079054900EBC00001EB800090
:1021C0004069002800D001207047000090010020E5
:1021D0002DE9F047064600793D4900EBC00001EBD0
:1021E0008005346868680127A8B13A49C4F8081323
:1021F000306840F3073000280DDB00F01F0107FABC
:1022000001F14009800000F1E020C0F88011BFF327
:102210004F8FBFF36F8FD4F8000220F02000C4F876
:102220000002A8694FF4A27820B141462046FFF78A
:1022300011FD67604FF4AC7949462046FFF70AFD6F
:10224000E760474649462046FFF7FFFC0028F9D0E3
:10225000A86928B139462046FFF7F7FC0028F1D0DD
:102260004FF0000AC4F800A53068D0F80C25D0F86B
:102270001495D0F80885D0F810754FF0FF31C0F8EC
:102280000C15C0F814153068C0F80815C0F8101502
:10229000501C02D01046FFF706F8B9F1FF3F02D0FC
:1022A0004846FFF700F8781C02D03846FEF7FBFFDF
:1022B000B8F1FF3F02D04046FEF7F5FF2046FFF79A
:1022C000EFFC85F820A0C5F804A0BDE8F087000069
:1022D00090010020100342002DE9F84F314F0546D0
:1022E0004FF001090024381990F96010491C46D0BC
:1022F00090F86000294620F0C0063046FEF7ECFD5D
:1023000070B3204600F050F8824668460096FFF70A
:102310004BF8009900EB8100D0F80007C0F30148AA
:10232000B8F1020F1DD002213046FEF7F5FF6846D6
:102330000096FFF739F8009A09FA02F1C0F8201563
:102340003046FEF781FB57F820204AB15046BAF1DB
:10235000030F11D0B8F1020F05D0B8F1030F07D069
:102360000DE00321E0E75046BAF1010F04D006E08A
:102370005046BAF1020F02D1014630469047641C24
:10238000042CB0D32A4602210020FEF7DDFF0020F6
:1023900055F820100029A5D1401C0228F8D3BDE82B
:1023A000F88F0000D40000200249084490F8600033
:1023B00080097047D400002010B50C46017A052929
:1023C00008D0407A38B1084808A102682046FEF7D4
:1023D000F7FD00E01AB106A12046FEF7F1FD204608
:1023E000BDE81040FEF7F9BD8C0000202573000009
:1023F0000D0A000038B5C3880D46044633B114A059
:10240000009015A216A12846FEF7DAFD217A0529CB
:102410001CD0607A48B1A088FFF7FAF8164951F845
:10242000202016A12846FEF7CBFDA0880021FFF74B
:10243000FDFA03461049207A143951F8202001B0E2
:102440002846BDE830400EA1FEF7BABD38BD0000F9
:102450001B5B306D000000001B5B313B33316D00B6
:1024600025734C6F67732064726F707065642028E9
:1024700025642925730D0A008C00002025730000B7
:102480003C25733E2025733A200000000349884212
:1024900001D1034870470020704700000020004031
:1024A0002400002070B5054688690C4600284FF4CA
:1024B000847128460AD0FFF7BCFBD5F81805626A7C
:1024C000E1688854606A401C606270BDFFF7B1FB30
:1024D000D5F8180570BD1FB501238DF80030CDE982
:1024E0000121D0E90012684690471FBD1FB50123A6
:1024F0008DF80030CDE90121D0E9001268469047FF
:102500001FBD000070B50D4C0020D2B22070201D00
:102510000B4D0378EB5C1BB1001DFFF7F5FD02E0EE
:102520000C30FFF7EFFC08B1FEF73AF960780028AD
:1025300002D021780029FAD070BD00003C000020B4
:1025400010000020124910B50120087011481249EE
:10255000401AC108032000EB014004460FA1FFF719
:10256000EBF90B480830007800280FD0204610A166
:10257000FFF7E2F906480830FDF7F8FE82B2204680
:102580000349BDE810400831FFF782B910BD0000D3
:1025900000000020F02C0000B02C00005472616E8E
:1025A0007366657220636F6D706C657465642E0070
:1025B0002052656365697665643A000000B585B0B0
:1025C0000A4601788DF8001041680191017A8DF872
:1025D0000810C1680391007C8DF81000044850F881
:1025E0002210103850F822206846904705B000BDF0
:1025F000C40000202DE9F84F07462148914688463F
:1026000005681E46012269461846FEF7B3F9DFF851
:1026100074A060B3009800210446801C0AE000BF4B
:1026200000EA050259F821C00AEB8202401C491C4D
:10263000C2F80CC0B142F3D34FEA1749FEF70CFAC7
:10264000611C29400AEB810149EA00422C40CA6022
:102650000AEB8401C86867F3C50066F3891068F364
:102660009F2020F00300401C20F00400C8609AF86E
:10267000000001E0FEF7F2FF0028FBD1BDE8F88F73
:102680005C0000204C03002070B50C4605464FF45A
:102690008E71FFF7CEFA216AA068415C206A401C67
:1026A0002062C5F81C1570BD1FB500228DF80020F2
:1026B0000291816801914261D0E900126846904719
:1026C0001FBD1FB500228DF8002002918168019185
:1026D0004261D0E90012684690471FBD1FB50A4607
:1026E00001788DF8001041680191017A8DF8081089
:1026F000C0680390044850F82210083850F822208F
:10270000684690471FBD00001C00002001490120C1
:10271000087070473C00002010B588B004462022A5
:102720000E496846FDF7FEFD06200090C01F01908F
:10273000029003904FF0EB7006900CB1084A00E055
:10274000002269460748FEF707FC08B1FEF728F8A3
:102750000448001F447008B010BD0000042B0000A6
:102760000D270000400000202DE9FF470C460546DC
:102770004FF40071FFF763FA01274FF40178002648
:1027800018B34FF4927949462846FFF74DFAE0B165
:1027900049462846FFF74DFAC5F8088394F8290002
:1027A00000B96F6002208DF80000D5F88004C5F8EC
:1027B00080040390A0690290E0680190A661E66140
:1027C000D4E900126846904728E004212846FFF724
:1027D00036FA18B34FF484712846FFF725FAE8B1AA
:1027E00021462846FFF75EFE616AA069884215D13E
:1027F000E06938B1E268616AA0612069E6616662F9
:10280000E06008E094F8290000B96F60C5F808831B
:10281000A661E268616A2046FFF75DFE4FF48E789C
:1028200041462846FFF700FA80B16069216A81427B
:1028300002D294F8280028B341462846FFF7F9F958
:10284000606918B161692046FFF72EFF4FF4A27846
:1028500041462846FFF7E8F9002818D041462846A7
:10286000FFF7E7F994F8290000B12F60A06900286C
:102870000DD0A661E268616A04B02046BDE8F04769
:10288000FFF729BE21462846FFF7FEFEDEE7BDE83A
:10289000FF8700001FB50A4601788DF800104168D7
:1028A0000191017A8DF80810C0680390044850F82F
:1028B0002210083850F82220684690471FBD0000BB
:1028C0001C0000202DE9FF410C464FF4927705468D
:1028D0003946FFF7BAF90026B8B139462846FFF75E
:1028E000B9F902208DF80000D5F88004C5F88004FD
:1028F0000390D5F83C050290E0680190A661E6617E
:10290000D4E900126846904723E04FF488773946AF
:102910002846FFF79AF9E0B139462846FFF79AF9B9
:10292000D5F83C15A069884213D1E06960B1E2682E
:10293000D5F8000220F02000C5F80002E069A0618F
:102940002069E661E06001E0A661E2682046FFF7E9
:10295000CDFD4FF4A27739462846FFF776F968B1E6
:1029600039462846FFF776F9A06938B1A661E661D5
:10297000D5F83C152046E268FFF7B8FD4FF4907695
:1029800031462846FFF761F960B131462846FFF726
:1029900061F90120E860606920B1D5F84C15204646
:1029A000FFF78FFE4FF4AC7631462846FFF74DF91E
:1029B00000280ED031462846FFF74CF96069002800
:1029C00007D0D5F84C1504B02046BDE8F041FFF71C
:1029D00078BEBDE8FF8100002DE9F05F8346DDE9A8
:1029E0000A4A994690460D460846012703E000BF73
:1029F000B0FBF8F07F1C4045FAD2B94500D94F46EC
:102A00005FEACA7012D18CB15FEA8A7002D5B9F15F
:102A1000000F01D0202607E0302605E03146584659
:102A2000641EFDF7EDFF0CB1A742F7D35FF001067E
:102A3000B9F1010F02D9A9F1010903E0B5FBF6F0E4
:102A4000404502D306FB08F6F2E7DFF83C9000BFF2
:102A5000B5FBF6F000FB165519F800105846FDF7C7
:102A6000CFFFB6FBF8F6002EF2D15FEACA7009D0AC
:102A7000002C07D0A74205D220215846641EFDF73E
:102A8000BFFFF5E7BDE8F09FE82A00000000000066
:102A90000338FDD8704700000000000000300040FF
:102AA000000000000000000000000000FFFFFFFF2A
:102AB00006FF000000000040000000000D0E0F1097
:102AC0000B0C1819FFFFFFFF0006FF00000000407D
:102AD00000000000000000500003005055040000FA
:102AE000211E00008D20000030313233343536375E
:102AF0003839414243444546F9150000CD150000E0
:102B0000C5150000FFFFFFFFFFFFFFFFFFFFFFFFF7
:102B1000FFFFFFFF00000000000000000000D601E2
:102B200006010000B40200207F00000034030020F2
:102B300000404040404040404040414141414140D0
:102B40004040404040404040404040404040404085
:102B50004005020202020202020202020202020214
:102B60000220202020202020202020020202020219
:102B70000202909090909090101010101010101071
:102B8000101010101010101010101010020202027D
:102B900002028888888888880808080808080808C1
:102BA00008080808080808080808080802020202BD
:102BB00040000000312B00007761726E696E670083
:102BC00064656275670000001B5B313B33306D004C
:102BD0001B5B306D000000001B5B313B33316D002F
:102BE0001B5B313B33326D001B5B313B33336D007C
:102BF0001B5B313B33346D001B5B313B33356D0068
:102C00001B5B313B33366D001B5B313B33376D0053
:102C1000696E666F000000006572726F72000000DE
:102C20004750494F54450000505253005350494DAE
:102C3000000000005541525400000000554152541C
:102C4000450000006170705F627574746F6E000003
:102C50006170705F74696D6572000000736F7274EB
:102C60006C69737400000000756172745F6C6F674B
:102C70005F6261636B656E640000000061707000EC
:102C80000C2D000000000020B4000000FC06000035
:102C9000C02D0000B4000020BC2600000C0700007E
:102CA000F82A000000000000682C000054000020FA
:102CB000202C000000000000282C00000000000074
:102CC0002C2C000000000000342C0000000000004C
:102CD0003C2C000000000000442C0000000000001C
:102CE000502C0000000000005C2C000000000000E0
:102CF0007C2C00000000030368000020600000201E
:102D000068000020F401002018000000004E6F72DF
:102D10006469630000000000000000000000000083
:102D200000000000000000000000000000000000A3
:102D30000000000000000000000000000000000093
:102D40000000000000000000000000000000000083
:102D500000200040000000000020004000000000B3
:102D600000000000FF000000FF0000000000000065
:102D70000000000000000000000000000000000053
:102D80000000000000000000182C0000B82B00001C
:102D9000102C0000C02B0000D02B0000C82B00001E
:102DA000D82B0000E02B0000E82B0000F02B0000E7
:102DB000F82B0000002C0000082C00000090D0032D
:0400000500000201F4
:00000001FF
